{
  "_format": "hh-sol-artifact-1",
  "contractName": "RunnerFox",
  "sourceName": "contracts/RunnerFox.sol",
  "abi": [
    {
      "inputs": [
        {
          "internalType": "address",
          "name": "owner",
          "type": "address"
        },
        {
          "internalType": "string",
          "name": "name",
          "type": "string"
        },
        {
          "internalType": "string",
          "name": "symbol",
          "type": "string"
        },
        {
          "internalType": "string",
          "name": "baseURI",
          "type": "string"
        },
        {
          "internalType": "string",
          "name": "contractURI",
          "type": "string"
        },
        {
          "internalType": "address",
          "name": "operatorAllowlist",
          "type": "address"
        },
        {
          "internalType": "address",
          "name": "receiver",
          "type": "address"
        },
        {
          "internalType": "uint96",
          "name": "feeNumerator",
          "type": "uint96"
        }
      ],
      "stateMutability": "nonpayable",
      "type": "constructor"
    },
    {
      "inputs": [],
      "name": "AllowlistDoesNotImplementIOperatorAllowlist",
      "type": "error"
    },
    {
      "inputs": [
        {
          "internalType": "address",
          "name": "target",
          "type": "address"
        }
      ],
      "name": "ApproveTargetNotInAllowlist",
      "type": "error"
    },
    {
      "inputs": [
        {
          "internalType": "address",
          "name": "approver",
          "type": "address"
        }
      ],
      "name": "ApproverNotInAllowlist",
      "type": "error"
    },
    {
      "inputs": [
        {
          "internalType": "address",
          "name": "caller",
          "type": "address"
        }
      ],
      "name": "CallerNotInAllowlist",
      "type": "error"
    },
    {
      "inputs": [
        {
          "internalType": "uint256",
          "name": "tokenId",
          "type": "uint256"
        }
      ],
      "name": "IImmutableERC721IDAboveThreshold",
      "type": "error"
    },
    {
      "inputs": [
        {
          "internalType": "uint256",
          "name": "tokenId",
          "type": "uint256"
        },
        {
          "internalType": "address",
          "name": "currentOwner",
          "type": "address"
        }
      ],
      "name": "IImmutableERC721MismatchedTokenOwner",
      "type": "error"
    },
    {
      "inputs": [],
      "name": "IImmutableERC721MismatchedTransferLengths",
      "type": "error"
    },
    {
      "inputs": [
        {
          "internalType": "uint256",
          "name": "tokenId",
          "type": "uint256"
        }
      ],
      "name": "IImmutableERC721NotOwnerOrOperator",
      "type": "error"
    },
    {
      "inputs": [],
      "name": "IImmutableERC721SendingToZerothAddress",
      "type": "error"
    },
    {
      "inputs": [
        {
          "internalType": "uint256",
          "name": "tokenId",
          "type": "uint256"
        }
      ],
      "name": "IImmutableERC721TokenAlreadyBurned",
      "type": "error"
    },
    {
      "inputs": [],
      "name": "InvalidShortString",
      "type": "error"
    },
    {
      "inputs": [],
      "name": "InvalidSignature",
      "type": "error"
    },
    {
      "inputs": [],
      "name": "PermitExpired",
      "type": "error"
    },
    {
      "inputs": [],
      "name": "SignerCannotBeZerothAddress",
      "type": "error"
    },
    {
      "inputs": [
        {
          "internalType": "string",
          "name": "str",
          "type": "string"
        }
      ],
      "name": "StringTooLong",
      "type": "error"
    },
    {
      "inputs": [
        {
          "internalType": "address",
          "name": "from",
          "type": "address"
        }
      ],
      "name": "TransferFromNotInAllowlist",
      "type": "error"
    },
    {
      "inputs": [
        {
          "internalType": "address",
          "name": "to",
          "type": "address"
        }
      ],
      "name": "TransferToNotInAllowlist",
      "type": "error"
    },
    {
      "anonymous": false,
      "inputs": [
        {
          "indexed": true,
          "internalType": "address",
          "name": "owner",
          "type": "address"
        },
        {
          "indexed": true,
          "internalType": "address",
          "name": "approved",
          "type": "address"
        },
        {
          "indexed": true,
          "internalType": "uint256",
          "name": "tokenId",
          "type": "uint256"
        }
      ],
      "name": "Approval",
      "type": "event"
    },
    {
      "anonymous": false,
      "inputs": [
        {
          "indexed": true,
          "internalType": "address",
          "name": "owner",
          "type": "address"
        },
        {
          "indexed": true,
          "internalType": "address",
          "name": "operator",
          "type": "address"
        },
        {
          "indexed": false,
          "internalType": "bool",
          "name": "approved",
          "type": "bool"
        }
      ],
      "name": "ApprovalForAll",
      "type": "event"
    },
    {
      "anonymous": false,
      "inputs": [],
      "name": "EIP712DomainChanged",
      "type": "event"
    },
    {
      "anonymous": false,
      "inputs": [
        {
          "indexed": false,
          "internalType": "address",
          "name": "oldRegistry",
          "type": "address"
        },
        {
          "indexed": false,
          "internalType": "address",
          "name": "newRegistry",
          "type": "address"
        }
      ],
      "name": "OperatorAllowlistRegistryUpdated",
      "type": "event"
    },
    {
      "anonymous": false,
      "inputs": [
        {
          "indexed": true,
          "internalType": "bytes32",
          "name": "role",
          "type": "bytes32"
        },
        {
          "indexed": true,
          "internalType": "bytes32",
          "name": "previousAdminRole",
          "type": "bytes32"
        },
        {
          "indexed": true,
          "internalType": "bytes32",
          "name": "newAdminRole",
          "type": "bytes32"
        }
      ],
      "name": "RoleAdminChanged",
      "type": "event"
    },
    {
      "anonymous": false,
      "inputs": [
        {
          "indexed": true,
          "internalType": "bytes32",
          "name": "role",
          "type": "bytes32"
        },
        {
          "indexed": true,
          "internalType": "address",
          "name": "account",
          "type": "address"
        },
        {
          "indexed": true,
          "internalType": "address",
          "name": "sender",
          "type": "address"
        }
      ],
      "name": "RoleGranted",
      "type": "event"
    },
    {
      "anonymous": false,
      "inputs": [
        {
          "indexed": true,
          "internalType": "bytes32",
          "name": "role",
          "type": "bytes32"
        },
        {
          "indexed": true,
          "internalType": "address",
          "name": "account",
          "type": "address"
        },
        {
          "indexed": true,
          "internalType": "address",
          "name": "sender",
          "type": "address"
        }
      ],
      "name": "RoleRevoked",
      "type": "event"
    },
    {
      "anonymous": false,
      "inputs": [
        {
          "indexed": true,
          "internalType": "address",
          "name": "from",
          "type": "address"
        },
        {
          "indexed": true,
          "internalType": "address",
          "name": "to",
          "type": "address"
        },
        {
          "indexed": true,
          "internalType": "uint256",
          "name": "tokenId",
          "type": "uint256"
        }
      ],
      "name": "Transfer",
      "type": "event"
    },
    {
      "inputs": [],
      "name": "DEFAULT_ADMIN_ROLE",
      "outputs": [
        {
          "internalType": "bytes32",
          "name": "",
          "type": "bytes32"
        }
      ],
      "stateMutability": "view",
      "type": "function"
    },
    {
      "inputs": [],
      "name": "DOMAIN_SEPARATOR",
      "outputs": [
        {
          "internalType": "bytes32",
          "name": "",
          "type": "bytes32"
        }
      ],
      "stateMutability": "view",
      "type": "function"
    },
    {
      "inputs": [],
      "name": "MINTER_ROLE",
      "outputs": [
        {
          "internalType": "bytes32",
          "name": "",
          "type": "bytes32"
        }
      ],
      "stateMutability": "view",
      "type": "function"
    },
    {
      "inputs": [
        {
          "internalType": "address",
          "name": "to",
          "type": "address"
        },
        {
          "internalType": "uint256",
          "name": "tokenId",
          "type": "uint256"
        }
      ],
      "name": "approve",
      "outputs": [],
      "stateMutability": "nonpayable",
      "type": "function"
    },
    {
      "inputs": [
        {
          "internalType": "address",
          "name": "owner",
          "type": "address"
        }
      ],
      "name": "balanceOf",
      "outputs": [
        {
          "internalType": "uint256",
          "name": "",
          "type": "uint256"
        }
      ],
      "stateMutability": "view",
      "type": "function"
    },
    {
      "inputs": [],
      "name": "baseURI",
      "outputs": [
        {
          "internalType": "string",
          "name": "",
          "type": "string"
        }
      ],
      "stateMutability": "view",
      "type": "function"
    },
    {
      "inputs": [
        {
          "internalType": "uint256",
          "name": "tokenId",
          "type": "uint256"
        }
      ],
      "name": "burn",
      "outputs": [],
      "stateMutability": "nonpayable",
      "type": "function"
    },
    {
      "inputs": [
        {
          "internalType": "uint256[]",
          "name": "tokenIDs",
          "type": "uint256[]"
        }
      ],
      "name": "burnBatch",
      "outputs": [],
      "stateMutability": "nonpayable",
      "type": "function"
    },
    {
      "inputs": [],
      "name": "contractURI",
      "outputs": [
        {
          "internalType": "string",
          "name": "",
          "type": "string"
        }
      ],
      "stateMutability": "view",
      "type": "function"
    },
    {
      "inputs": [],
      "name": "eip712Domain",
      "outputs": [
        {
          "internalType": "bytes1",
          "name": "fields",
          "type": "bytes1"
        },
        {
          "internalType": "string",
          "name": "name",
          "type": "string"
        },
        {
          "internalType": "string",
          "name": "version",
          "type": "string"
        },
        {
          "internalType": "uint256",
          "name": "chainId",
          "type": "uint256"
        },
        {
          "internalType": "address",
          "name": "verifyingContract",
          "type": "address"
        },
        {
          "internalType": "bytes32",
          "name": "salt",
          "type": "bytes32"
        },
        {
          "internalType": "uint256[]",
          "name": "extensions",
          "type": "uint256[]"
        }
      ],
      "stateMutability": "view",
      "type": "function"
    },
    {
      "inputs": [
        {
          "internalType": "uint256",
          "name": "tokenId",
          "type": "uint256"
        }
      ],
      "name": "exists",
      "outputs": [
        {
          "internalType": "bool",
          "name": "",
          "type": "bool"
        }
      ],
      "stateMutability": "view",
      "type": "function"
    },
    {
      "inputs": [],
      "name": "getAdmins",
      "outputs": [
        {
          "internalType": "address[]",
          "name": "",
          "type": "address[]"
        }
      ],
      "stateMutability": "view",
      "type": "function"
    },
    {
      "inputs": [
        {
          "internalType": "uint256",
          "name": "tokenId",
          "type": "uint256"
        }
      ],
      "name": "getApproved",
      "outputs": [
        {
          "internalType": "address",
          "name": "",
          "type": "address"
        }
      ],
      "stateMutability": "view",
      "type": "function"
    },
    {
      "inputs": [
        {
          "internalType": "bytes32",
          "name": "role",
          "type": "bytes32"
        }
      ],
      "name": "getRoleAdmin",
      "outputs": [
        {
          "internalType": "bytes32",
          "name": "",
          "type": "bytes32"
        }
      ],
      "stateMutability": "view",
      "type": "function"
    },
    {
      "inputs": [
        {
          "internalType": "bytes32",
          "name": "role",
          "type": "bytes32"
        },
        {
          "internalType": "uint256",
          "name": "index",
          "type": "uint256"
        }
      ],
      "name": "getRoleMember",
      "outputs": [
        {
          "internalType": "address",
          "name": "",
          "type": "address"
        }
      ],
      "stateMutability": "view",
      "type": "function"
    },
    {
      "inputs": [
        {
          "internalType": "bytes32",
          "name": "role",
          "type": "bytes32"
        }
      ],
      "name": "getRoleMemberCount",
      "outputs": [
        {
          "internalType": "uint256",
          "name": "",
          "type": "uint256"
        }
      ],
      "stateMutability": "view",
      "type": "function"
    },
    {
      "inputs": [
        {
          "internalType": "address",
          "name": "user",
          "type": "address"
        }
      ],
      "name": "grantMinterRole",
      "outputs": [],
      "stateMutability": "nonpayable",
      "type": "function"
    },
    {
      "inputs": [
        {
          "internalType": "bytes32",
          "name": "role",
          "type": "bytes32"
        },
        {
          "internalType": "address",
          "name": "account",
          "type": "address"
        }
      ],
      "name": "grantRole",
      "outputs": [],
      "stateMutability": "nonpayable",
      "type": "function"
    },
    {
      "inputs": [
        {
          "internalType": "bytes32",
          "name": "role",
          "type": "bytes32"
        },
        {
          "internalType": "address",
          "name": "account",
          "type": "address"
        }
      ],
      "name": "hasRole",
      "outputs": [
        {
          "internalType": "bool",
          "name": "",
          "type": "bool"
        }
      ],
      "stateMutability": "view",
      "type": "function"
    },
    {
      "inputs": [
        {
          "internalType": "address",
          "name": "owner",
          "type": "address"
        },
        {
          "internalType": "address",
          "name": "operator",
          "type": "address"
        }
      ],
      "name": "isApprovedForAll",
      "outputs": [
        {
          "internalType": "bool",
          "name": "",
          "type": "bool"
        }
      ],
      "stateMutability": "view",
      "type": "function"
    },
    {
      "inputs": [
        {
          "internalType": "address",
          "name": "to",
          "type": "address"
        },
        {
          "internalType": "uint256",
          "name": "tokenId",
          "type": "uint256"
        }
      ],
      "name": "mint",
      "outputs": [],
      "stateMutability": "nonpayable",
      "type": "function"
    },
    {
      "inputs": [
        {
          "components": [
            {
              "internalType": "address",
              "name": "to",
              "type": "address"
            },
            {
              "internalType": "uint256[]",
              "name": "tokenIds",
              "type": "uint256[]"
            }
          ],
          "internalType": "struct ERC721Hybrid.IDMint[]",
          "name": "mints",
          "type": "tuple[]"
        }
      ],
      "name": "mintBatch",
      "outputs": [],
      "stateMutability": "nonpayable",
      "type": "function"
    },
    {
      "inputs": [
        {
          "components": [
            {
              "internalType": "address",
              "name": "to",
              "type": "address"
            },
            {
              "internalType": "uint256",
              "name": "quantity",
              "type": "uint256"
            }
          ],
          "internalType": "struct ERC721Hybrid.Mint[]",
          "name": "mints",
          "type": "tuple[]"
        }
      ],
      "name": "mintBatchByQuantity",
      "outputs": [],
      "stateMutability": "nonpayable",
      "type": "function"
    },
    {
      "inputs": [],
      "name": "mintBatchByQuantityThreshold",
      "outputs": [
        {
          "internalType": "uint256",
          "name": "",
          "type": "uint256"
        }
      ],
      "stateMutability": "pure",
      "type": "function"
    },
    {
      "inputs": [
        {
          "internalType": "address",
          "name": "to",
          "type": "address"
        },
        {
          "internalType": "uint256",
          "name": "quantity",
          "type": "uint256"
        }
      ],
      "name": "mintByQuantity",
      "outputs": [],
      "stateMutability": "nonpayable",
      "type": "function"
    },
    {
      "inputs": [],
      "name": "name",
      "outputs": [
        {
          "internalType": "string",
          "name": "",
          "type": "string"
        }
      ],
      "stateMutability": "view",
      "type": "function"
    },
    {
      "inputs": [
        {
          "internalType": "uint256",
          "name": "tokenId",
          "type": "uint256"
        }
      ],
      "name": "nonces",
      "outputs": [
        {
          "internalType": "uint256",
          "name": "",
          "type": "uint256"
        }
      ],
      "stateMutability": "view",
      "type": "function"
    },
    {
      "inputs": [],
      "name": "operatorAllowlist",
      "outputs": [
        {
          "internalType": "contract IOperatorAllowlist",
          "name": "",
          "type": "address"
        }
      ],
      "stateMutability": "view",
      "type": "function"
    },
    {
      "inputs": [
        {
          "internalType": "uint256",
          "name": "tokenId",
          "type": "uint256"
        }
      ],
      "name": "ownerOf",
      "outputs": [
        {
          "internalType": "address",
          "name": "",
          "type": "address"
        }
      ],
      "stateMutability": "view",
      "type": "function"
    },
    {
      "inputs": [
        {
          "internalType": "address",
          "name": "spender",
          "type": "address"
        },
        {
          "internalType": "uint256",
          "name": "tokenId",
          "type": "uint256"
        },
        {
          "internalType": "uint256",
          "name": "deadline",
          "type": "uint256"
        },
        {
          "internalType": "bytes",
          "name": "sig",
          "type": "bytes"
        }
      ],
      "name": "permit",
      "outputs": [],
      "stateMutability": "nonpayable",
      "type": "function"
    },
    {
      "inputs": [
        {
          "internalType": "bytes32",
          "name": "role",
          "type": "bytes32"
        },
        {
          "internalType": "address",
          "name": "account",
          "type": "address"
        }
      ],
      "name": "renounceRole",
      "outputs": [],
      "stateMutability": "nonpayable",
      "type": "function"
    },
    {
      "inputs": [
        {
          "internalType": "address",
          "name": "user",
          "type": "address"
        }
      ],
      "name": "revokeMinterRole",
      "outputs": [],
      "stateMutability": "nonpayable",
      "type": "function"
    },
    {
      "inputs": [
        {
          "internalType": "bytes32",
          "name": "role",
          "type": "bytes32"
        },
        {
          "internalType": "address",
          "name": "account",
          "type": "address"
        }
      ],
      "name": "revokeRole",
      "outputs": [],
      "stateMutability": "nonpayable",
      "type": "function"
    },
    {
      "inputs": [
        {
          "internalType": "uint256",
          "name": "tokenId",
          "type": "uint256"
        },
        {
          "internalType": "uint256",
          "name": "salePrice",
          "type": "uint256"
        }
      ],
      "name": "royaltyInfo",
      "outputs": [
        {
          "internalType": "address",
          "name": "",
          "type": "address"
        },
        {
          "internalType": "uint256",
          "name": "",
          "type": "uint256"
        }
      ],
      "stateMutability": "view",
      "type": "function"
    },
    {
      "inputs": [
        {
          "internalType": "address",
          "name": "owner",
          "type": "address"
        },
        {
          "internalType": "uint256",
          "name": "tokenId",
          "type": "uint256"
        }
      ],
      "name": "safeBurn",
      "outputs": [],
      "stateMutability": "nonpayable",
      "type": "function"
    },
    {
      "inputs": [
        {
          "components": [
            {
              "internalType": "address",
              "name": "owner",
              "type": "address"
            },
            {
              "internalType": "uint256[]",
              "name": "tokenIds",
              "type": "uint256[]"
            }
          ],
          "internalType": "struct ERC721Hybrid.IDBurn[]",
          "name": "burns",
          "type": "tuple[]"
        }
      ],
      "name": "safeBurnBatch",
      "outputs": [],
      "stateMutability": "nonpayable",
      "type": "function"
    },
    {
      "inputs": [
        {
          "internalType": "address",
          "name": "to",
          "type": "address"
        },
        {
          "internalType": "uint256",
          "name": "tokenId",
          "type": "uint256"
        }
      ],
      "name": "safeMint",
      "outputs": [],
      "stateMutability": "nonpayable",
      "type": "function"
    },
    {
      "inputs": [
        {
          "components": [
            {
              "internalType": "address",
              "name": "to",
              "type": "address"
            },
            {
              "internalType": "uint256[]",
              "name": "tokenIds",
              "type": "uint256[]"
            }
          ],
          "internalType": "struct ERC721Hybrid.IDMint[]",
          "name": "mints",
          "type": "tuple[]"
        }
      ],
      "name": "safeMintBatch",
      "outputs": [],
      "stateMutability": "nonpayable",
      "type": "function"
    },
    {
      "inputs": [
        {
          "components": [
            {
              "internalType": "address",
              "name": "to",
              "type": "address"
            },
            {
              "internalType": "uint256",
              "name": "quantity",
              "type": "uint256"
            }
          ],
          "internalType": "struct ERC721Hybrid.Mint[]",
          "name": "mints",
          "type": "tuple[]"
        }
      ],
      "name": "safeMintBatchByQuantity",
      "outputs": [],
      "stateMutability": "nonpayable",
      "type": "function"
    },
    {
      "inputs": [
        {
          "internalType": "address",
          "name": "to",
          "type": "address"
        },
        {
          "internalType": "uint256",
          "name": "quantity",
          "type": "uint256"
        }
      ],
      "name": "safeMintByQuantity",
      "outputs": [],
      "stateMutability": "nonpayable",
      "type": "function"
    },
    {
      "inputs": [
        {
          "internalType": "address",
          "name": "from",
          "type": "address"
        },
        {
          "internalType": "address",
          "name": "to",
          "type": "address"
        },
        {
          "internalType": "uint256",
          "name": "tokenId",
          "type": "uint256"
        }
      ],
      "name": "safeTransferFrom",
      "outputs": [],
      "stateMutability": "nonpayable",
      "type": "function"
    },
    {
      "inputs": [
        {
          "internalType": "address",
          "name": "from",
          "type": "address"
        },
        {
          "internalType": "address",
          "name": "to",
          "type": "address"
        },
        {
          "internalType": "uint256",
          "name": "tokenId",
          "type": "uint256"
        },
        {
          "internalType": "bytes",
          "name": "_data",
          "type": "bytes"
        }
      ],
      "name": "safeTransferFrom",
      "outputs": [],
      "stateMutability": "nonpayable",
      "type": "function"
    },
    {
      "inputs": [
        {
          "components": [
            {
              "internalType": "address",
              "name": "from",
              "type": "address"
            },
            {
              "internalType": "address[]",
              "name": "tos",
              "type": "address[]"
            },
            {
              "internalType": "uint256[]",
              "name": "tokenIds",
              "type": "uint256[]"
            }
          ],
          "internalType": "struct ERC721Hybrid.TransferRequest",
          "name": "tr",
          "type": "tuple"
        }
      ],
      "name": "safeTransferFromBatch",
      "outputs": [],
      "stateMutability": "nonpayable",
      "type": "function"
    },
    {
      "inputs": [
        {
          "internalType": "address",
          "name": "operator",
          "type": "address"
        },
        {
          "internalType": "bool",
          "name": "approved",
          "type": "bool"
        }
      ],
      "name": "setApprovalForAll",
      "outputs": [],
      "stateMutability": "nonpayable",
      "type": "function"
    },
    {
      "inputs": [
        {
          "internalType": "string",
          "name": "baseURI_",
          "type": "string"
        }
      ],
      "name": "setBaseURI",
      "outputs": [],
      "stateMutability": "nonpayable",
      "type": "function"
    },
    {
      "inputs": [
        {
          "internalType": "string",
          "name": "_contractURI",
          "type": "string"
        }
      ],
      "name": "setContractURI",
      "outputs": [],
      "stateMutability": "nonpayable",
      "type": "function"
    },
    {
      "inputs": [
        {
          "internalType": "address",
          "name": "receiver",
          "type": "address"
        },
        {
          "internalType": "uint96",
          "name": "feeNumerator",
          "type": "uint96"
        }
      ],
      "name": "setDefaultRoyaltyReceiver",
      "outputs": [],
      "stateMutability": "nonpayable",
      "type": "function"
    },
    {
      "inputs": [
        {
          "internalType": "uint256",
          "name": "tokenId",
          "type": "uint256"
        },
        {
          "internalType": "address",
          "name": "receiver",
          "type": "address"
        },
        {
          "internalType": "uint96",
          "name": "feeNumerator",
          "type": "uint96"
        }
      ],
      "name": "setNFTRoyaltyReceiver",
      "outputs": [],
      "stateMutability": "nonpayable",
      "type": "function"
    },
    {
      "inputs": [
        {
          "internalType": "uint256[]",
          "name": "tokenIds",
          "type": "uint256[]"
        },
        {
          "internalType": "address",
          "name": "receiver",
          "type": "address"
        },
        {
          "internalType": "uint96",
          "name": "feeNumerator",
          "type": "uint96"
        }
      ],
      "name": "setNFTRoyaltyReceiverBatch",
      "outputs": [],
      "stateMutability": "nonpayable",
      "type": "function"
    },
    {
      "inputs": [
        {
          "internalType": "bytes4",
          "name": "interfaceId",
          "type": "bytes4"
        }
      ],
      "name": "supportsInterface",
      "outputs": [
        {
          "internalType": "bool",
          "name": "",
          "type": "bool"
        }
      ],
      "stateMutability": "view",
      "type": "function"
    },
    {
      "inputs": [],
      "name": "symbol",
      "outputs": [
        {
          "internalType": "string",
          "name": "",
          "type": "string"
        }
      ],
      "stateMutability": "view",
      "type": "function"
    },
    {
      "inputs": [
        {
          "internalType": "uint256",
          "name": "tokenId",
          "type": "uint256"
        }
      ],
      "name": "tokenURI",
      "outputs": [
        {
          "internalType": "string",
          "name": "",
          "type": "string"
        }
      ],
      "stateMutability": "view",
      "type": "function"
    },
    {
      "inputs": [],
      "name": "totalSupply",
      "outputs": [
        {
          "internalType": "uint256",
          "name": "",
          "type": "uint256"
        }
      ],
      "stateMutability": "view",
      "type": "function"
    },
    {
      "inputs": [
        {
          "internalType": "address",
          "name": "from",
          "type": "address"
        },
        {
          "internalType": "address",
          "name": "to",
          "type": "address"
        },
        {
          "internalType": "uint256",
          "name": "tokenId",
          "type": "uint256"
        }
      ],
      "name": "transferFrom",
      "outputs": [],
      "stateMutability": "nonpayable",
      "type": "function"
    }
  ],
  "bytecode": "0x61016060405260006013553480156200001757600080fd5b5060405162005a6f38038062005a6f8339810160408190526200003a9162000675565b87878787878787878787878787878787868681604051806040016040528060018152602001603160f81b81525083838181838381600690816200007e919062000808565b5060076200008d828262000808565b5050600160801b60095550600d620000a6838262000808565b50600e620000b5828262000808565b50620000ca93508592506015915050620001d5565b61012052620000db816016620001d5565b61014052815160208084019190912060e052815190820120610100524660a0526200016960e05161010051604080517f8b73c3c69bb8fe3d512ecc4cf759cc79239f7b179b0ffacaa9a75d522b39400f60208201529081019290925260608201524660808201523060a082015260009060c00160405160208183030381529060405280519060200120905090565b60805250503060c052506200018290506000896200020e565b6200018e828262000239565b62000199836200033e565b6019620001a7868262000808565b506018620001b6858262000808565b5050505050505050505050505050505050505050505050505062000952565b6000602083511015620001f557620001ed8362000437565b905062000208565b8162000202848262000808565b5060ff90505b92915050565b6200021a82826200047a565b600082815260026020526040902062000234908262000503565b505050565b6127106001600160601b0382161115620002ad5760405162461bcd60e51b815260206004820152602a60248201527f455243323938313a20726f79616c7479206665652077696c6c206578636565646044820152692073616c65507269636560b01b60648201526084015b60405180910390fd5b6001600160a01b038216620003055760405162461bcd60e51b815260206004820152601960248201527f455243323938313a20696e76616c6964207265636569766572000000000000006044820152606401620002a4565b604080518082019091526001600160a01b039092168083526001600160601b039091166020909201829052600160a01b90910217600355565b6040516301ffc9a760e01b81526305a3b80960e01b60048201526001600160a01b038216906301ffc9a790602401602060405180830381865afa1580156200038a573d6000803e3d6000fd5b505050506040513d601f19601f82011682018060405250810190620003b09190620008d4565b620003ce5760405163d6f93fb760e01b815260040160405180910390fd5b600054604080516001600160a01b03928316815291831660208301527f3edc37a14cc8047c7c8a3f354311efe86c14848efd4e3765a3e1e57eea04ea76910160405180910390a1600080546001600160a01b0319166001600160a01b0392909216919091179055565b600080829050601f8151111562000465578260405163305a27a960e01b8152600401620002a49190620008f8565b805162000472826200092d565b179392505050565b60008281526001602090815260408083206001600160a01b038516845290915290205460ff16620004ff5760008281526001602081815260408084206001600160a01b0386168086529252808420805460ff19169093179092559051339285917f2f8788117e7eff1d82e926ec794901d17c78024a50270940304540a733656f0d9190a45b5050565b60006200051a836001600160a01b03841662000521565b9392505050565b60008181526001830160205260408120546200056a5750815460018181018455600084815260208082209093018490558454848252828601909352604090209190915562000208565b50600062000208565b80516001600160a01b03811681146200058b57600080fd5b919050565b634e487b7160e01b600052604160045260246000fd5b60005b83811015620005c3578181015183820152602001620005a9565b50506000910152565b600082601f830112620005de57600080fd5b81516001600160401b0380821115620005fb57620005fb62000590565b604051601f8301601f19908116603f0116810190828211818310171562000626576200062662000590565b816040528381528660208588010111156200064057600080fd5b62000653846020830160208901620005a6565b9695505050505050565b80516001600160601b03811681146200058b57600080fd5b600080600080600080600080610100898b0312156200069357600080fd5b6200069e8962000573565b60208a01519098506001600160401b0380821115620006bc57600080fd5b620006ca8c838d01620005cc565b985060408b0151915080821115620006e157600080fd5b620006ef8c838d01620005cc565b975060608b01519150808211156200070657600080fd5b620007148c838d01620005cc565b965060808b01519150808211156200072b57600080fd5b506200073a8b828c01620005cc565b9450506200074b60a08a0162000573565b92506200075b60c08a0162000573565b91506200076b60e08a016200065d565b90509295985092959890939650565b600181811c908216806200078f57607f821691505b602082108103620007b057634e487b7160e01b600052602260045260246000fd5b50919050565b601f8211156200023457600081815260208120601f850160051c81016020861015620007df5750805b601f850160051c820191505b818110156200080057828155600101620007eb565b505050505050565b81516001600160401b0381111562000824576200082462000590565b6200083c816200083584546200077a565b84620007b6565b602080601f8311600181146200087457600084156200085b5750858301515b600019600386901b1c1916600185901b17855562000800565b600085815260208120601f198616915b82811015620008a55788860151825594840194600190910190840162000884565b5085821015620008c45787850151600019600388901b60f8161c191681555b5050505050600190811b01905550565b600060208284031215620008e757600080fd5b815180151581146200051a57600080fd5b602081526000825180602084015262000919816040850160208701620005a6565b601f01601f19169190910160400192915050565b80516020808301519190811015620007b05760001960209190910360031b1b16919050565b60805160a05160c05160e0516101005161012051610140516150c2620009ad6000396000610d8a01526000610d5f0152600061178e01526000611766015260006116c1015260006116eb0152600061171501526150c26000f3fe608060405234801561001057600080fd5b50600436106103415760003560e01c806369e2f0fb116101b8578063a144819411610104578063d5391393116100a2578063e4623c1b1161007c578063e4623c1b14610744578063e8a3d48514610757578063e985e9c51461075f578063eea987681461077257600080fd5b8063d539139314610709578063d547741f1461071e578063e19278591461073157600080fd5b8063a7012816116100de578063a7012816146106bd578063b88d4fde146106d0578063c87b56dd146106e3578063ca15c873146106f657600080fd5b8063a14481941461068f578063a217fddf146106a2578063a22cb465146106aa57600080fd5b8063885e7a0811610171578063938e3d7b1161014b578063938e3d7b1461064e57806395d89b41146106615780639e2641a3146106695780639f15d7001461067c57600080fd5b8063885e7a08146106155780639010d07c1461062857806391d148541461063b57600080fd5b806369e2f0fb146105a65780636c0360eb146105b957806370a08231146105c1578063745a41bc146105d457806374f16a81146105e757806384b0196e146105fa57600080fd5b80632f2ff15d1161029257806342842e0e116102305780634f558e791161020a5780634f558e791461055a57806355f804b31461056d578063567e4075146105805780636352211e1461059357600080fd5b806342842e0e1461052157806342966c6814610534578063439aed341461054757600080fd5b80633644e5151161026c5780633644e515146104e057806336568abe146104e85780633dd1eb61146104fb57806340c10f191461050e57600080fd5b80632f2ff15d146104ae578063315ed308146104c157806331ae450b146104cb57600080fd5b806318160ddd116102ff578063248a9ca3116102d9578063248a9ca31461043257806329326f29146104565780632a55205a146104695780632d2c5a8b1461049b57600080fd5b806318160ddd14610404578063234af0461461040c57806323b872dd1461041f57600080fd5b80628ad9461461034657806301ffc9a71461035b57806306fdde0314610383578063081812fc14610398578063095ea7b3146103c3578063141a468c146103d6575b600080fd5b6103596103543660046142ff565b610785565b005b61036e61036936600461434f565b61085b565b60405190151581526020015b60405180910390f35b61038b61086c565b60405161037a91906143bc565b6103ab6103a63660046143cf565b61087b565b6040516001600160a01b03909116815260200161037a565b6103596103d13660046143ff565b61089b565b6103f66103e43660046143cf565b60009081526017602052604090205490565b60405190815260200161037a565b6103f66108bb565b61035961041a36600461446d565b6108d2565b61035961042d3660046144ae565b6108f9565b6103f66104403660046143cf565b6000908152600160208190526040909120015490565b6000546103ab906001600160a01b031681565b61047c6104773660046144ea565b61091b565b604080516001600160a01b03909316835260208301919091520161037a565b6103596104a936600461450c565b6109c9565b6103596104bc366004614580565b6109eb565b600160801b6103f6565b6104d3610a11565b60405161037a91906145ac565b6103f6610abf565b6103596104f6366004614580565b610ac9565b6103596105093660046145f9565b610b48565b61035961051c3660046143ff565b610b6b565b61035961052f3660046144ae565b610b8d565b6103596105423660046143cf565b610ba8565b61035961055536600461462b565b610bdf565b61036e6105683660046143cf565b610c08565b61035961057b3660046146f2565b610c13565b61035961058e3660046143ff565b610c2a565b6103ab6105a13660046143cf565b610c4c565b6103596105b43660046145f9565b610c6c565b61038b610c8f565b6103f66105cf3660046145f9565b610d1d565b6103596105e236600461475a565b610d3b565b6103596105f536600461446d565b610d47565b610602610d51565b60405161037a97969594939291906147ba565b610359610623366004614850565b610dda565b6103ab6106363660046144ea565b610def565b61036e610649366004614580565b610e0e565b61035961065c3660046146f2565b610e39565b61038b610e50565b61035961067736600461446d565b610e5a565b61035961068a3660046143ff565b610e7c565b61035961069d3660046143ff565b610ed6565b6103f6600081565b6103596106b8366004614888565b610ef8565b6103596106cb3660046148bf565b611049565b6103596106de366004614923565b6110a9565b61038b6106f13660046143cf565b6110d2565b6103f66107043660046143cf565b6110dd565b6103f66a4d494e5445525f524f4c4560a81b81565b61035961072c366004614580565b6110f4565b61035961073f36600461450c565b61111a565b61035961075236600461446d565b61113c565b61038b61117a565b61036e61076d366004614972565b611187565b6103596107803660046143ff565b6111b7565b610792602082018261499c565b90506107a1604083018361499c565b9050146107c15760405163359a1bc360e01b815260040160405180910390fd5b60005b6107d1604083018361499c565b9050811015610857576108456107ea60208401846145f9565b6107f7602085018561499c565b84818110610807576108076149e5565b905060200201602081019061081c91906145f9565b610829604086018661499c565b85818110610839576108396149e5565b90506020020135610b8d565b8061084f81614a11565b9150506107c4565b5050565b6000610866826111d9565b92915050565b60606108766111fe565b905090565b6000600160801b8210156108925761086682611290565b610866826112b7565b600160801b8110156108b1576108578282611342565b6108578282611452565b60006013546108c861155a565b6108769190614a2a565b6a4d494e5445525f524f4c4560a81b6108ea81611576565b6108f48383611580565b505050565b600160801b811015610910576108f48383836115e7565b6108f4838383611617565b60008281526004602090815260408083208151808301909252546001600160a01b038116808352600160a01b9091046001600160601b03169282019290925282916109905750604080518082019091526003546001600160a01b0381168252600160a01b90046001600160601b031660208201525b6020810151600090612710906109af906001600160601b031687614a3d565b6109b99190614a54565b91519350909150505b9250929050565b6a4d494e5445525f524f4c4560a81b6109e181611576565b6108f4838361163c565b60008281526001602081905260409091200154610a0781611576565b6108f48383611692565b60606000610a1e816110dd565b90506000816001600160401b03811115610a3a57610a3a614667565b604051908082528060200260200182016040528015610a63578160200160208202803683370190505b50905060005b82811015610ab857610a7c600082610def565b828281518110610a8e57610a8e6149e5565b6001600160a01b039092166020928302919091019091015280610ab081614a11565b915050610a69565b5092915050565b60006108766116b4565b6001600160a01b0381163314610b3e5760405162461bcd60e51b815260206004820152602f60248201527f416363657373436f6e74726f6c3a2063616e206f6e6c792072656e6f756e636560448201526e103937b632b9903337b91039b2b63360891b60648201526084015b60405180910390fd5b61085782826117df565b6000610b5381611576565b6108576a4d494e5445525f524f4c4560a81b836109eb565b6a4d494e5445525f524f4c4560a81b610b8381611576565b6108f48383611801565b6108f4838383604051806020016040528060008152506110a9565b610bb3335b82611884565b610bd357604051630247e3a960e01b815260048101829052602401610b35565b610bdc816118ad565b50565b6a4d494e5445525f524f4c4560a81b610bf781611576565b610c02848484611900565b50505050565b6000610866826119cb565b6000610c1e81611576565b60196108f48382614af6565b6a4d494e5445525f524f4c4560a81b610c4281611576565b6108f48383611a28565b6000600160801b821015610c635761086682611a32565b61086682611a92565b6000610c7781611576565b6108576a4d494e5445525f524f4c4560a81b836110f4565b60198054610c9c90614a76565b80601f0160208091040260200160405190810160405280929190818152602001828054610cc890614a76565b8015610d155780601f10610cea57610100808354040283529160200191610d15565b820191906000526020600020905b815481529060010190602001808311610cf857829003601f168201915b505050505081565b6000610d2882611aa6565b610d3183611b71565b6108669190614a2a565b610c0284848484611bf7565b6108578282611ce0565b600060608082808083610d857f00000000000000000000000000000000000000000000000000000000000000006015611d8b565b610db07f00000000000000000000000000000000000000000000000000000000000000006016611d8b565b60408051600080825260208201909252600f60f81b9b939a50919850469750309650945092509050565b6000610de581611576565b6108f48383611e2f565b6000828152600260205260408120610e079083611ee9565b9392505050565b60009182526001602090815260408084206001600160a01b0393909316845291905290205460ff1690565b6000610e4481611576565b60186108f48382614af6565b6060610876611ef5565b6a4d494e5445525f524f4c4560a81b610e7281611576565b6108f48383611f04565b6000610e8782610c4c565b9050826001600160a01b0316816001600160a01b031614610ecd57604051634fefd56160e01b8152600481018390526001600160a01b0382166024820152604401610b35565b6108f482610ba8565b6a4d494e5445525f524f4c4560a81b610eee81611576565b6108f48383611f6b565b81333b15801590610f7257506000546040516305a3b80960e01b81523360048201526001600160a01b03909116906305a3b80990602401602060405180830381865afa158015610f4c573d6000803e3d6000fd5b505050506040513d601f19601f82011682018060405250810190610f709190614bb5565b155b15610f925760405163f6fa4cbd60e01b8152336004820152602401610b35565b6001600160a01b0381163b1580159061101657506000546040516305a3b80960e01b81526001600160a01b038381166004830152909116906305a3b80990602401602060405180830381865afa158015610ff0573d6000803e3d6000fd5b505050506040513d601f19601f820116820180604052508101906110149190614bb5565b155b1561103f576040516341b8d58160e11b81526001600160a01b0382166004820152602401610b35565b6108f48383611fee565b6a4d494e5445525f524f4c4560a81b61106181611576565b60005b848110156110a15761108f868683818110611081576110816149e5565b905060200201358585611900565b8061109981614a11565b915050611064565b505050505050565b600160801b8210156110c6576110c184848484611ff8565b610c02565b610c028484848461202b565b606061086682612050565b6000818152600260205260408120610866906120b6565b6000828152600160208190526040909120015461111081611576565b6108f483836117df565b6a4d494e5445525f524f4c4560a81b61113281611576565b6108f483836120c0565b60005b818110156108f45761116883838381811061115c5761115c6149e5565b90506020020135610ba8565b8061117281614a11565b91505061113f565b60188054610c9c90614a76565b6001600160a01b03808316600090815260126020908152604080832093851683529290529081205460ff16610e07565b6a4d494e5445525f524f4c4560a81b6111cf81611576565b6108f48383612116565b60006001600160e01b03198216635604e22560e01b1480610866575061086682612120565b6060600d805461120d90614a76565b80601f016020809104026020016040519081016040528092919081815260200182805461123990614a76565b80156112865780601f1061125b57610100808354040283529160200191611286565b820191906000526020600020905b81548152906001019060200180831161126957829003601f168201915b5050505050905090565b600061129b8261212b565b506000908152601160205260409020546001600160a01b031690565b60006112c2826119cb565b6113265760405162461bcd60e51b815260206004820152602f60248201527f4552433732315073693a20617070726f76656420717565727920666f72206e6f60448201526e3732bc34b9ba32b73a103a37b5b2b760891b6064820152608401610b35565b506000908152600a60205260409020546001600160a01b031690565b600061134d82611a32565b9050806001600160a01b0316836001600160a01b0316036113ba5760405162461bcd60e51b815260206004820152602160248201527f4552433732313a20617070726f76616c20746f2063757272656e74206f776e656044820152603960f91b6064820152608401610b35565b336001600160a01b03821614806113d657506113d68133611187565b6114485760405162461bcd60e51b815260206004820152603d60248201527f4552433732313a20617070726f76652063616c6c6572206973206e6f7420746f60448201527f6b656e206f776e6572206f7220617070726f76656420666f7220616c6c0000006064820152608401610b35565b6108f4838361217b565b600061145d82610c4c565b9050806001600160a01b0316836001600160a01b0316036114cc5760405162461bcd60e51b8152602060048201526024808201527f4552433732315073693a20617070726f76616c20746f2063757272656e74206f6044820152633bb732b960e11b6064820152608401610b35565b336001600160a01b03821614806114e857506114e88133611187565b6114485760405162461bcd60e51b815260206004820152603b60248201527f4552433732315073693a20617070726f76652063616c6c6572206973206e6f7460448201527f206f776e6572206e6f7220617070726f76656420666f7220616c6c00000000006064820152608401610b35565b60006115646122cc565b61156c612332565b6108769190614bd2565b610bdc8133612346565b60005b818110156108f4573683838381811061159e5761159e6149e5565b90506020028101906115b09190614be5565b90506115d46115c260208301836145f9565b6115cf602084018461499c565b61239f565b50806115df81614a11565b915050611583565b6115f033610bad565b61160c5760405162461bcd60e51b8152600401610b3590614c05565b6108f48383836123de565b61162033610bad565b61160c5760405162461bcd60e51b8152600401610b3590614c52565b60005b818110156108f4573683838381811061165a5761165a6149e5565b60400291909101915061167f905061167560208301836145f9565b8260200135611a28565b508061168a81614a11565b91505061163f565b61169c82826125e5565b60008281526002602052604090206108f49082612650565b6000306001600160a01b037f00000000000000000000000000000000000000000000000000000000000000001614801561170d57507f000000000000000000000000000000000000000000000000000000000000000046145b1561173757507f000000000000000000000000000000000000000000000000000000000000000090565b610876604080517f8b73c3c69bb8fe3d512ecc4cf759cc79239f7b179b0ffacaa9a75d522b39400f60208201527f0000000000000000000000000000000000000000000000000000000000000000918101919091527f000000000000000000000000000000000000000000000000000000000000000060608201524660808201523060a082015260009060c00160405160208183030381529060405280519060200120905090565b6117e98282612665565b60008281526002602052604090206108f490826126cc565b600160801b81106118285760405163b73c99f560e01b815260048101829052602401610b35565b600881901c600090815260146020526040902054600160ff83161b1615611865576040516305dcda1160e51b815260048101829052602401610b35565b6013805490600061187583614a11565b919050555061085782826126e1565b6000600160801b8210156118a35761189c838361283c565b9050610866565b610e07838361289b565b600160801b8110156118f7576118c281612960565b600881901c60009081526014602052604081208054600160ff85161b17905560138054916118ef83614ca6565b919050555050565b610bdc816129e3565b6127106001600160601b038216111561192b5760405162461bcd60e51b8152600401610b3590614cbd565b6001600160a01b0382166119815760405162461bcd60e51b815260206004820152601b60248201527f455243323938313a20496e76616c696420706172616d657465727300000000006044820152606401610b35565b6040805180820182526001600160a01b0393841681526001600160601b0392831660208083019182526000968752600490529190942093519051909116600160a01b029116179055565b6000600160801b821015611a1f576000828152600f60205260409020546001600160a01b0316158015906108665750600882901c600090815260146020526040902054600160ff84161b1615151592915050565b61086682612a25565b6108578282612a5a565b6000818152600f60205260408120546001600160a01b0316806108665760405162461bcd60e51b8152602060048201526018602482015277115490cdcc8c4e881a5b9d985b1a59081d1bdad95b88125160421b6044820152606401610b35565b600080611a9e83612a74565b509392505050565b60006001600160a01b038216611b145760405162461bcd60e51b815260206004820152602d60248201527f4552433732315073693a2062616c616e636520717565727920666f722074686560448201526c207a65726f206164647265737360981b6064820152608401610b35565b6000600160801b5b600954811015610ab857611b2f816119cb565b15611b6157611b3d81610c4c565b6001600160a01b0316846001600160a01b031603611b6157611b5e82614a11565b91505b611b6a81614a11565b9050611b1c565b60006001600160a01b038216611bdb5760405162461bcd60e51b815260206004820152602960248201527f4552433732313a2061646472657373207a65726f206973206e6f7420612076616044820152683634b21037bbb732b960b91b6064820152608401610b35565b506001600160a01b031660009081526010602052604090205490565b42821015611c185760405163068568f360e21b815260040160405180910390fd5b6000611c25858585612b0b565b9050611c3a611c3385610c4c565b8284612be4565b15611c4f57611c49858561217b565b50610c02565b60008251604003611c9657611c8f82611c6b8560006020612cee565b611c7490614d07565b611c818660206040612cee565b611c8a90614d07565b612dfb565b9050611cc2565b8251604103611ca957611c8f8284612e18565b604051638baa579f60e01b815260040160405180910390fd5b611ccc8186612e34565b15611ca957611cdb868661217b565b6110a1565b60005b818110156108f45736838383818110611cfe57611cfe6149e5565b9050602002810190611d109190614be5565b905060005b611d22602083018361499c565b9050811015611d7657611d64611d3b60208401846145f9565b611d48602085018561499c565b84818110611d5857611d586149e5565b90506020020135610e7c565b80611d6e81614a11565b915050611d15565b50508080611d8390614a11565b915050611ce3565b606060ff8314611d9e5761189c83612e53565b818054611daa90614a76565b80601f0160208091040260200160405190810160405280929190818152602001828054611dd690614a76565b8015611e235780601f10611df857610100808354040283529160200191611e23565b820191906000526020600020905b815481529060010190602001808311611e0657829003601f168201915b50505050509050610866565b6127106001600160601b0382161115611e5a5760405162461bcd60e51b8152600401610b3590614cbd565b6001600160a01b038216611eb05760405162461bcd60e51b815260206004820152601960248201527f455243323938313a20696e76616c6964207265636569766572000000000000006044820152606401610b35565b604080518082019091526001600160a01b039092168083526001600160601b039091166020909201829052600160a01b90910217600355565b6000610e078383612e92565b6060600e805461120d90614a76565b60005b818110156108f45736838383818110611f2257611f226149e5565b9050602002810190611f349190614be5565b9050611f58611f4660208301836145f9565b611f53602084018461499c565b612ebc565b5080611f6381614a11565b915050611f07565b600160801b8110611f925760405163b73c99f560e01b815260048101829052602401610b35565b600881901c600090815260146020526040902054600160ff83161b1615611fcf576040516305dcda1160e51b815260048101829052602401610b35565b60138054906000611fdf83614a11565b91905055506108578282612efb565b6108578282612f15565b612003335b83611884565b61201f5760405162461bcd60e51b8152600401610b3590614c05565b610c0284848484612f20565b61203433611ffd565b61201f5760405162461bcd60e51b8152600401610b3590614c52565b606061205b8261212b565b6000612065612f44565b905060008151116120855760405180602001604052806000815250610e07565b8061208f84612f53565b6040516020016120a0929190614d2b565b6040516020818303038152906040529392505050565b6000610866825490565b60005b818110156108f457368383838181106120de576120de6149e5565b60400291909101915061210390506120f960208301836145f9565b8260200135612116565b508061210e81614a11565b9150506120c3565b6108578282612fe5565b60006108668261315e565b612134816119cb565b610bdc5760405162461bcd60e51b8152602060048201526018602482015277115490cdcc8c4e881a5b9d985b1a59081d1bdad95b88125160421b6044820152606401610b35565b81333b158015906121f557506000546040516305a3b80960e01b81523360048201526001600160a01b03909116906305a3b80990602401602060405180830381865afa1580156121cf573d6000803e3d6000fd5b505050506040513d601f19601f820116820180604052508101906121f39190614bb5565b155b156122155760405163f6fa4cbd60e01b8152336004820152602401610b35565b6001600160a01b0381163b1580159061229957506000546040516305a3b80960e01b81526001600160a01b038381166004830152909116906305a3b80990602401602060405180830381865afa158015612273573d6000803e3d6000fd5b505050506040513d601f19601f820116820180604052508101906122979190614bb5565b155b156122c2576040516341b8d58160e11b81526001600160a01b0382166004820152602401610b35565b6108f4838361319e565b600954600090600160781b9082906122e89060081c6001614a2a565b9050815b8181101561232c576000818152600c602052604090205461230c816131be565b6123169086614a2a565b945050808061232490614a11565b9150506122ec565b50505090565b6000600160801b6009546108769190614bd2565b6123508282610e0e565b6108575761235d816131dd565b6123688360206131ef565b604051602001612379929190614d5a565b60408051601f198184030181529082905262461bcd60e51b8252610b35916004016143bc565b60005b81811015610c02576123cc848484848181106123c0576123c06149e5565b90506020020135611f6b565b806123d681614a11565b9150506123a2565b828233321480159061245957506000546040516305a3b80960e01b81523360048201526001600160a01b03909116906305a3b80990602401602060405180830381865afa158015612433573d6000803e3d6000fd5b505050506040513d601f19601f820116820180604052508101906124579190614bb5565b155b156124795760405163937db65f60e01b8152336004820152602401610b35565b6001600160a01b0382163b158015906124fd57506000546040516305a3b80960e01b81526001600160a01b038481166004830152909116906305a3b80990602401602060405180830381865afa1580156124d7573d6000803e3d6000fd5b505050506040513d601f19601f820116820180604052508101906124fb9190614bb5565b155b156125265760405163f934453160e01b81526001600160a01b0383166004820152602401610b35565b6001600160a01b0381163b158015906125aa57506000546040516305a3b80960e01b81526001600160a01b038381166004830152909116906305a3b80990602401602060405180830381865afa158015612584573d6000803e3d6000fd5b505050506040513d601f19601f820116820180604052508101906125a89190614bb5565b155b156125d357604051632a67242160e11b81526001600160a01b0382166004820152602401610b35565b6125de85858561338a565b5050505050565b6125ef8282610e0e565b6108575760008281526001602081815260408084206001600160a01b0386168086529252808420805460ff19169093179092559051339285917f2f8788117e7eff1d82e926ec794901d17c78024a50270940304540a733656f0d9190a45050565b6000610e07836001600160a01b0384166133b4565b61266f8282610e0e565b156108575760008281526001602090815260408083206001600160a01b0385168085529252808320805460ff1916905551339285917ff6391f5c32d9c69d2a47ea670b442974b53935d1edc7fd64eb21e047a839171b9190a45050565b6000610e07836001600160a01b038416613403565b6001600160a01b0382166127375760405162461bcd60e51b815260206004820181905260248201527f4552433732313a206d696e7420746f20746865207a65726f20616464726573736044820152606401610b35565b612740816119cb565b1561278d5760405162461bcd60e51b815260206004820152601c60248201527f4552433732313a20746f6b656e20616c7265616479206d696e746564000000006044820152606401610b35565b612796816119cb565b156127e35760405162461bcd60e51b815260206004820152601c60248201527f4552433732313a20746f6b656e20616c7265616479206d696e746564000000006044820152606401610b35565b6001600160a01b038216600081815260106020908152604080832080546001019055848352600f90915280822080546001600160a01b031916841790555183929190600080516020614f6d833981519152908290a45050565b60008061284883611a32565b9050806001600160a01b0316846001600160a01b0316148061286f575061286f8185611187565b806128935750836001600160a01b03166128888461087b565b6001600160a01b0316145b949350505050565b60006128a6826119cb565b61290a5760405162461bcd60e51b815260206004820152602f60248201527f4552433732315073693a206f70657261746f7220717565727920666f72206e6f60448201526e3732bc34b9ba32b73a103a37b5b2b760891b6064820152608401610b35565b600061291583610c4c565b9050806001600160a01b0316846001600160a01b031614806129505750836001600160a01b03166129458461087b565b6001600160a01b0316145b8061289357506128938185611187565b600061296b82611a32565b905061297682611a32565b600083815260116020908152604080832080546001600160a01b03199081169091556001600160a01b038516808552601084528285208054600019019055878552600f90935281842080549091169055519293508492600080516020614f6d833981519152908390a45050565b60006129ee82610c4c565b90506129fb600c836134f6565b60405182906000906001600160a01b03841690600080516020614f6d833981519152908390a45050565b600881901c6000908152600c6020526040812054600160ff1b60ff84161c1615612a5157506000919050565b61086682613522565b610857828260405180602001604052806000815250613541565b600080612a80836119cb565b612ae15760405162461bcd60e51b815260206004820152602c60248201527f4552433732315073693a206f776e657220717565727920666f72206e6f6e657860448201526b34b9ba32b73a103a37b5b2b760a11b6064820152608401610b35565b612aea83613582565b6000818152600860205260409020546001600160a01b031694909350915050565b6000612893604051602001612b7990660a0cae4dad2e8560cb1b81527f61646472657373207370656e6465722c75696e7432353620746f6b656e49642c60078201527f75696e74323536206e6f6e63652c75696e7432353620646561646c696e652900602782015260460190565b60408051808303601f19018152828252805160209182012060008881526017835283902054918401526001600160a01b0388169183019190915260608201869052608082015260a0810184905260c0016040516020818303038152906040528051906020012061358f565b6000806000856001600160a01b0316631626ba7e60e01b8686604051602401612c0e929190614dcf565b60408051601f198184030181529181526020820180516001600160e01b03166001600160e01b0319909416939093179092529051612c4c9190614de8565b600060405180830381855afa9150503d8060008114612c87576040519150601f19603f3d011682016040523d82523d6000602084013e612c8c565b606091505b5091509150818015612c9f575080516020145b15612ce257600081806020019051810190612cba9190614dfa565b90506374eca2c160e11b6001600160e01b0319821601612ce05760019350505050610e07565b505b50600095945050505050565b606081612cfc81601f614a2a565b1015612d3b5760405162461bcd60e51b815260206004820152600e60248201526d736c6963655f6f766572666c6f7760901b6044820152606401610b35565b612d458284614a2a565b84511015612d895760405162461bcd60e51b8152602060048201526011602482015270736c6963655f6f75744f66426f756e647360781b6044820152606401610b35565b606082158015612da85760405191506000825260208201604052612df2565b6040519150601f8416801560200281840101858101878315602002848b0101015b81831015612de1578051835260209283019201612dc9565b5050858452601f01601f1916604052505b50949350505050565b6000806000612e0b8686866135bc565b91509150612df2816135f5565b6000806000612e27858561373f565b91509150611a9e816135f5565b60006001600160a01b03831615801590610e075750610e078383611884565b60606000612e6083613781565b604080516020808252818301909252919250600091906020820181803683375050509182525060208101929092525090565b6000826000018281548110612ea957612ea96149e5565b9060005260206000200154905092915050565b60005b81811015610c0257612ee984848484818110612edd57612edd6149e5565b90506020020135611801565b80612ef381614a11565b915050612ebf565b6108578282604051806020016040528060008152506137a9565b6108573383836137b4565b600160801b821015612f38576110c184848484613882565b610c02848484846138b5565b60606019805461120d90614a76565b60606000612f60836138ce565b60010190506000816001600160401b03811115612f7f57612f7f614667565b6040519080825280601f01601f191660200182016040528015612fa9576020820181803683370190505b5090508181016020015b600019016f181899199a1a9b1b9c1cb0b131b232b360811b600a86061a8153600a8504945084612fb357509392505050565b6000612ff060095490565b9050600082116130505760405162461bcd60e51b815260206004820152602560248201527f4552433732315073693a207175616e74697479206d7573742062652067726561604482015264074657220360dc1b6064820152608401610b35565b6001600160a01b0383166130b25760405162461bcd60e51b815260206004820152602360248201527f4552433732315073693a206d696e7420746f20746865207a65726f206164647260448201526265737360e81b6064820152608401610b35565b81600960008282546130c49190614a2a565b9091555050600081815260086020526040902080546001600160a01b0319166001600160a01b0385161790556130fb6005826134f6565b6000806131088484614a2a565b90506001600160a01b038516915082826000600080516020614f6d833981519152600080a4600183015b8181146131585780836000600080516020614f6d833981519152600080a4600101613132565b506125de565b60006001600160e01b031982166380ac58cd60e01b148061318f57506001600160e01b03198216635b5e139f60e01b145b806108665750610866826139a6565b600160801b8110156131b45761085782826139e6565b6108578282613a54565b60005b81156131d8576000198201909116906001016131c1565b919050565b60606108666001600160a01b03831660145b606060006131fe836002614a3d565b613209906002614a2a565b6001600160401b0381111561322057613220614667565b6040519080825280601f01601f19166020018201604052801561324a576020820181803683370190505b509050600360fc1b81600081518110613265576132656149e5565b60200101906001600160f81b031916908160001a905350600f60fb1b81600181518110613294576132946149e5565b60200101906001600160f81b031916908160001a90535060006132b8846002614a3d565b6132c3906001614a2a565b90505b600181111561333b576f181899199a1a9b1b9c1cb0b131b232b360811b85600f16601081106132f7576132f76149e5565b1a60f81b82828151811061330d5761330d6149e5565b60200101906001600160f81b031916908160001a90535060049490941c9361333481614ca6565b90506132c6565b508315610e075760405162461bcd60e51b815260206004820181905260248201527f537472696e67733a20686578206c656e67746820696e73756666696369656e746044820152606401610b35565b60008181526017602052604081208054916133a483614a11565b91905055506108f4838383613a89565b60008181526001830160205260408120546133fb57508154600181810184556000848152602080822090930184905584548482528286019093526040902091909155610866565b506000610866565b600081815260018301602052604081205480156134ec576000613427600183614bd2565b855490915060009061343b90600190614bd2565b90508181146134a057600086600001828154811061345b5761345b6149e5565b906000526020600020015490508087600001848154811061347e5761347e6149e5565b6000918252602080832090910192909255918252600188019052604090208390555b85548690806134b1576134b1614e17565b600190038181906000526020600020016000905590558560010160008681526020019081526020016000206000905560019350505050610866565b6000915050610866565b600881901c600090815260209290925260409091208054600160ff1b60ff9093169290921c9091179055565b600061352d60095490565b82108015610866575050600160801b111590565b600061354c60095490565b90506135588484612fe5565b613566600085838686613aab565b610c025760405162461bcd60e51b8152600401610b3590614e2d565b6000610866600583613be2565b600061086661359c6116b4565b8360405161190160f01b8152600281019290925260228201526042902090565b6000806001600160ff1b038316816135d960ff86901c601b614a2a565b90506135e787828885613cda565b935093505050935093915050565b600081600481111561360957613609614e82565b036136115750565b600181600481111561362557613625614e82565b036136725760405162461bcd60e51b815260206004820152601860248201527f45434453413a20696e76616c6964207369676e617475726500000000000000006044820152606401610b35565b600281600481111561368657613686614e82565b036136d35760405162461bcd60e51b815260206004820152601f60248201527f45434453413a20696e76616c6964207369676e6174757265206c656e677468006044820152606401610b35565b60038160048111156136e7576136e7614e82565b03610bdc5760405162461bcd60e51b815260206004820152602260248201527f45434453413a20696e76616c6964207369676e6174757265202773272076616c604482015261756560f01b6064820152608401610b35565b60008082516041036137755760208301516040840151606085015160001a61376987828585613cda565b945094505050506109c2565b506000905060026109c2565b600060ff8216601f81111561086657604051632cd44ac360e21b815260040160405180910390fd5b6108f4838383613d9e565b816001600160a01b0316836001600160a01b0316036138155760405162461bcd60e51b815260206004820152601960248201527f4552433732313a20617070726f766520746f2063616c6c6572000000000000006044820152606401610b35565b6001600160a01b03838116600081815260126020908152604080832094871680845294825291829020805460ff191686151590811790915591519182527f17307eab39ab6107e8899845ad3d59bd9653f200f220920489ca2b5937696c31910160405180910390a3505050565b61388d8484846123de565b61389984848484613dd1565b610c025760405162461bcd60e51b8152600401610b3590614e98565b6138c08484846123de565b613566848484600185613aab565b60008072184f03e93ff9f4daa797ed6e38ed64bf6a1f0160401b831061390d5772184f03e93ff9f4daa797ed6e38ed64bf6a1f0160401b830492506040015b6d04ee2d6d415b85acef81000000008310613939576d04ee2d6d415b85acef8100000000830492506020015b662386f26fc10000831061395757662386f26fc10000830492506010015b6305f5e100831061396f576305f5e100830492506008015b612710831061398357612710830492506004015b60648310613995576064830492506002015b600a83106108665760010192915050565b60006001600160e01b031982166380ac58cd60e01b14806139d757506001600160e01b03198216635b5e139f60e01b145b80610866575061086682613eca565b600081815260116020526040902080546001600160a01b0319166001600160a01b0384169081179091558190613a1b82611a32565b6001600160a01b03167f8c5be1e5ebec7d5bd14f71427d1e84f3dd0314c0f7b2291e5b200ac8c7c3b92560405160405180910390a45050565b6000818152600a6020526040902080546001600160a01b0319166001600160a01b0384169081179091558190613a1b82610c4c565b600160801b811015613aa0576108f4838383613eef565b6108f4838383614041565b60006001600160a01b0385163b15613bd557506001835b613acc8486614a2a565b811015613bcf57604051630a85bd0160e11b81526001600160a01b0387169063150b7a0290613b059033908b9086908990600401614eea565b6020604051808303816000875af1925050508015613b40575060408051601f3d908101601f19168201909252613b3d91810190614dfa565b60015b613b9d573d808015613b6e576040519150601f19603f3d011682016040523d82523d6000602084013e613b73565b606091505b508051600003613b955760405162461bcd60e51b8152600401610b3590614e2d565b805181602001fd5b828015613bba57506001600160e01b03198116630a85bd0160e11b145b92505080613bc781614a11565b915050613ac2565b50613bd9565b5060015b95945050505050565b600881901c60008181526020849052604081205490919060ff808516919082181c8015613c2457613c1281614219565b60ff168203600884901b179350613cd1565b60008311613c915760405162461bcd60e51b815260206004820152603460248201527f4269744d6170733a205468652073657420626974206265666f7265207468652060448201527334b73232bc103237b2b9b713ba1032bc34b9ba1760611b6064820152608401610b35565b506000199091016000818152602086905260409020549091908015613ccc57613cb981614219565b60ff0360ff16600884901b179350613cd1565b613c24565b50505092915050565b6000807f7fffffffffffffffffffffffffffffff5d576e7357a4501ddfe92f46681b20a0831115613d115750600090506003613d95565b6040805160008082526020820180845289905260ff881692820192909252606081018690526080810185905260019060a0016020604051602081039080840390855afa158015613d65573d6000803e3d6000fd5b5050604051601f1901519150506001600160a01b038116613d8e57600060019250925050613d95565b9150600090505b94509492505050565b613da88383614283565b613db56000848484613dd1565b6108f45760405162461bcd60e51b8152600401610b3590614e98565b60006001600160a01b0384163b15613ebf57604051630a85bd0160e11b81526001600160a01b0385169063150b7a0290613e15903390899088908890600401614eea565b6020604051808303816000875af1925050508015613e50575060408051601f3d908101601f19168201909252613e4d91810190614dfa565b60015b613ea5573d808015613e7e576040519150601f19603f3d011682016040523d82523d6000602084013e613e83565b606091505b508051600003613b955760405162461bcd60e51b8152600401610b3590614e98565b6001600160e01b031916630a85bd0160e11b149050612893565b506001949350505050565b60006001600160e01b0319821663152a902d60e11b148061086657506108668261428d565b826001600160a01b0316613f0282611a32565b6001600160a01b031614613f285760405162461bcd60e51b8152600401610b3590614f27565b6001600160a01b038216613f8a5760405162461bcd60e51b8152602060048201526024808201527f4552433732313a207472616e7366657220746f20746865207a65726f206164646044820152637265737360e01b6064820152608401610b35565b826001600160a01b0316613f9d82611a32565b6001600160a01b031614613fc35760405162461bcd60e51b8152600401610b3590614f27565b600081815260116020908152604080832080546001600160a01b03199081169091556001600160a01b0387811680865260108552838620805460001901905590871680865283862080546001019055868652600f9094528285208054909216841790915590518493600080516020614f6d83398151915291a4505050565b60008061404d83612a74565b91509150846001600160a01b0316826001600160a01b0316146140c75760405162461bcd60e51b815260206004820152602c60248201527f4552433732315073693a207472616e73666572206f6620746f6b656e2074686160448201526b3a1034b9903737ba1037bbb760a11b6064820152608401610b35565b6001600160a01b03841661412d5760405162461bcd60e51b815260206004820152602760248201527f4552433732315073693a207472616e7366657220746f20746865207a65726f206044820152666164647265737360c81b6064820152608401610b35565b61413860008461217b565b6000614145846001614a2a565b600881901c600090815260056020526040902054909150600160ff1b60ff83161c16158015614175575060095481105b156141ac57600081815260086020526040902080546001600160a01b0319166001600160a01b0388161790556141ac6005826134f6565b600084815260086020526040902080546001600160a01b0319166001600160a01b0387161790558184146141e5576141e56005856134f6565b83856001600160a01b0316876001600160a01b0316600080516020614f6d83398151915260405160405180910390a46110a1565b60006040518061012001604052806101008152602001614f8d610100913960f87e818283848586878898a8b8c8d8e8f929395969799a9b9d9e9faaeb6bedeeff614262856142b2565b02901c81518110614275576142756149e5565b016020015160f81c92915050565b61085782826126e1565b60006001600160e01b03198216635a05180f60e01b14806108665750610866826142ca565b60008082116142c057600080fd5b5060008190031690565b60006001600160e01b03198216637965db0b60e01b148061086657506301ffc9a760e01b6001600160e01b0319831614610866565b60006020828403121561431157600080fd5b81356001600160401b0381111561432757600080fd5b820160608185031215610e0757600080fd5b6001600160e01b031981168114610bdc57600080fd5b60006020828403121561436157600080fd5b8135610e0781614339565b60005b8381101561438757818101518382015260200161436f565b50506000910152565b600081518084526143a881602086016020860161436c565b601f01601f19169290920160200192915050565b602081526000610e076020830184614390565b6000602082840312156143e157600080fd5b5035919050565b80356001600160a01b03811681146131d857600080fd5b6000806040838503121561441257600080fd5b61441b836143e8565b946020939093013593505050565b60008083601f84011261443b57600080fd5b5081356001600160401b0381111561445257600080fd5b6020830191508360208260051b85010111156109c257600080fd5b6000806020838503121561448057600080fd5b82356001600160401b0381111561449657600080fd5b6144a285828601614429565b90969095509350505050565b6000806000606084860312156144c357600080fd5b6144cc846143e8565b92506144da602085016143e8565b9150604084013590509250925092565b600080604083850312156144fd57600080fd5b50508035926020909101359150565b6000806020838503121561451f57600080fd5b82356001600160401b038082111561453657600080fd5b818501915085601f83011261454a57600080fd5b81358181111561455957600080fd5b8660208260061b850101111561456e57600080fd5b60209290920196919550909350505050565b6000806040838503121561459357600080fd5b823591506145a3602084016143e8565b90509250929050565b6020808252825182820181905260009190848201906040850190845b818110156145ed5783516001600160a01b0316835292840192918401916001016145c8565b50909695505050505050565b60006020828403121561460b57600080fd5b610e07826143e8565b80356001600160601b03811681146131d857600080fd5b60008060006060848603121561464057600080fd5b83359250614650602085016143e8565b915061465e60408501614614565b90509250925092565b634e487b7160e01b600052604160045260246000fd5b60006001600160401b038084111561469757614697614667565b604051601f8501601f19908116603f011681019082821181831017156146bf576146bf614667565b816040528093508581528686860111156146d857600080fd5b858560208301376000602087830101525050509392505050565b60006020828403121561470457600080fd5b81356001600160401b0381111561471a57600080fd5b8201601f8101841361472b57600080fd5b6128938482356020840161467d565b600082601f83011261474b57600080fd5b610e078383356020850161467d565b6000806000806080858703121561477057600080fd5b614779856143e8565b9350602085013592506040850135915060608501356001600160401b038111156147a257600080fd5b6147ae8782880161473a565b91505092959194509250565b60ff60f81b881681526000602060e0818401526147da60e084018a614390565b83810360408501526147ec818a614390565b606085018990526001600160a01b038816608086015260a0850187905284810360c0860152855180825283870192509083019060005b8181101561483e57835183529284019291840191600101614822565b50909c9b505050505050505050505050565b6000806040838503121561486357600080fd5b61486c836143e8565b91506145a360208401614614565b8015158114610bdc57600080fd5b6000806040838503121561489b57600080fd5b6148a4836143e8565b915060208301356148b48161487a565b809150509250929050565b600080600080606085870312156148d557600080fd5b84356001600160401b038111156148eb57600080fd5b6148f787828801614429565b909550935061490a9050602086016143e8565b915061491860408601614614565b905092959194509250565b6000806000806080858703121561493957600080fd5b614942856143e8565b9350614950602086016143e8565b92506040850135915060608501356001600160401b038111156147a257600080fd5b6000806040838503121561498557600080fd5b61498e836143e8565b91506145a3602084016143e8565b6000808335601e198436030181126149b357600080fd5b8301803591506001600160401b038211156149cd57600080fd5b6020019150600581901b36038213156109c257600080fd5b634e487b7160e01b600052603260045260246000fd5b634e487b7160e01b600052601160045260246000fd5b600060018201614a2357614a236149fb565b5060010190565b80820180821115610866576108666149fb565b8082028115828204841417610866576108666149fb565b600082614a7157634e487b7160e01b600052601260045260246000fd5b500490565b600181811c90821680614a8a57607f821691505b602082108103614aaa57634e487b7160e01b600052602260045260246000fd5b50919050565b601f8211156108f457600081815260208120601f850160051c81016020861015614ad75750805b601f850160051c820191505b818110156110a157828155600101614ae3565b81516001600160401b03811115614b0f57614b0f614667565b614b2381614b1d8454614a76565b84614ab0565b602080601f831160018114614b585760008415614b405750858301515b600019600386901b1c1916600185901b1785556110a1565b600085815260208120601f198616915b82811015614b8757888601518255948401946001909101908401614b68565b5085821015614ba55787850151600019600388901b60f8161c191681555b5050505050600190811b01905550565b600060208284031215614bc757600080fd5b8151610e078161487a565b81810381811115610866576108666149fb565b60008235603e19833603018112614bfb57600080fd5b9190910192915050565b6020808252602d908201527f4552433732313a2063616c6c6572206973206e6f7420746f6b656e206f776e6560408201526c1c881bdc88185c1c1c9bdd9959609a1b606082015260800190565b60208082526034908201527f4552433732315073693a207472616e736665722063616c6c6572206973206e6f6040820152731d081bdddb995c881b9bdc88185c1c1c9bdd995960621b606082015260800190565b600081614cb557614cb56149fb565b506000190190565b6020808252602a908201527f455243323938313a20726f79616c7479206665652077696c6c206578636565646040820152692073616c65507269636560b01b606082015260800190565b80516020808301519190811015614aaa5760001960209190910360031b1b16919050565b60008351614d3d81846020880161436c565b835190830190614d5181836020880161436c565b01949350505050565b7f416363657373436f6e74726f6c3a206163636f756e7420000000000000000000815260008351614d9281601785016020880161436c565b7001034b99036b4b9b9b4b733903937b6329607d1b6017918401918201528351614dc381602884016020880161436c565b01602801949350505050565b8281526040602082015260006128936040830184614390565b60008251614bfb81846020870161436c565b600060208284031215614e0c57600080fd5b8151610e0781614339565b634e487b7160e01b600052603160045260246000fd5b60208082526035908201527f4552433732315073693a207472616e7366657220746f206e6f6e20455243373260408201527418a932b1b2b4bb32b91034b6b83632b6b2b73a32b960591b606082015260800190565b634e487b7160e01b600052602160045260246000fd5b60208082526032908201527f4552433732313a207472616e7366657220746f206e6f6e20455243373231526560408201527131b2b4bb32b91034b6b83632b6b2b73a32b960711b606082015260800190565b6001600160a01b0385811682528416602082015260408101839052608060608201819052600090614f1d90830184614390565b9695505050505050565b60208082526025908201527f4552433732313a207472616e736665722066726f6d20696e636f72726563742060408201526437bbb732b960d91b60608201526080019056feddf252ad1be2c89b69c2b068fc378daa952ba7f163c4a11628f55a4df523b3ef0001020903110a19042112290b311a3905412245134d2a550c5d32651b6d3a7506264262237d468514804e8d2b95569d0d495ea533a966b11c886eb93bc176c9071727374353637324837e9b47af86c7155181ad4fd18ed32c9096db57d59ee30e2e4a6a5f92a6be3498aae067ddb2eb1d5989b56fd7baf33ca0c2ee77e5caf7ff0810182028303840444c545c646c7425617c847f8c949c48a4a8b087b8c0c816365272829aaec650acd0d28fdad4e22d6991bd97dfdcea58b4d6f29fede4f6fe0f1f2f3f4b5b6b607b8b93a3a7b7bf357199c5abcfd9e168bcdee9b3f1ecf5fd1e3e5a7a8aa2b670c4ced8bbe8f0f4fc3d79a1c3cde7effb78cce6facbf9f8a2646970667358221220d35268a42431c2f260311a887093939f1cfa6187dbae006230368e75db4c956864736f6c63430008130033",
  "linkReferences": {},
  "deployedLinkReferences": {}
}