{"@imtbl/contracts/contracts/allowlist/OperatorAllowlistUpgradeable.sol":{"OperatorAllowlistUpgradeable":{"abi":[{"anonymous":false,"inputs":[{"indexed":true,"internalType":"address","name":"target","type":"address"},{"indexed":false,"internalType":"bool","name":"added","type":"bool"}],"name":"AddressAllowlistChanged","type":"event"},{"anonymous":false,"inputs":[{"indexed":false,"internalType":"address","name":"previousAdmin","type":"address"},{"indexed":false,"internalType":"address","name":"newAdmin","type":"address"}],"name":"AdminChanged","type":"event"},{"anonymous":false,"inputs":[{"indexed":true,"internalType":"address","name":"beacon","type":"address"}],"name":"BeaconUpgraded","type":"event"},{"anonymous":false,"inputs":[{"indexed":false,"internalType":"uint8","name":"version","type":"uint8"}],"name":"Initialized","type":"event"},{"anonymous":false,"inputs":[{"indexed":true,"internalType":"bytes32","name":"role","type":"bytes32"},{"indexed":true,"internalType":"bytes32","name":"previousAdminRole","type":"bytes32"},{"indexed":true,"internalType":"bytes32","name":"newAdminRole","type":"bytes32"}],"name":"RoleAdminChanged","type":"event"},{"anonymous":false,"inputs":[{"indexed":true,"internalType":"bytes32","name":"role","type":"bytes32"},{"indexed":true,"internalType":"address","name":"account","type":"address"},{"indexed":true,"internalType":"address","name":"sender","type":"address"}],"name":"RoleGranted","type":"event"},{"anonymous":false,"inputs":[{"indexed":true,"internalType":"bytes32","name":"role","type":"bytes32"},{"indexed":true,"internalType":"address","name":"account","type":"address"},{"indexed":true,"internalType":"address","name":"sender","type":"address"}],"name":"RoleRevoked","type":"event"},{"anonymous":false,"inputs":[{"indexed":true,"internalType":"address","name":"implementation","type":"address"}],"name":"Upgraded","type":"event"},{"anonymous":false,"inputs":[{"indexed":true,"internalType":"bytes32","name":"targetBytes","type":"bytes32"},{"indexed":true,"internalType":"address","name":"targetAddress","type":"address"},{"indexed":false,"internalType":"bool","name":"added","type":"bool"}],"name":"WalletAllowlistChanged","type":"event"},{"inputs":[],"name":"DEFAULT_ADMIN_ROLE","outputs":[{"internalType":"bytes32","name":"","type":"bytes32"}],"stateMutability":"view","type":"function"},{"inputs":[],"name":"REGISTRAR_ROLE","outputs":[{"internalType":"bytes32","name":"","type":"bytes32"}],"stateMutability":"view","type":"function"},{"inputs":[],"name":"UPGRADE_ROLE","outputs":[{"internalType":"bytes32","name":"","type":"bytes32"}],"stateMutability":"view","type":"function"},{"inputs":[{"internalType":"address[]","name":"addressTargets","type":"address[]"}],"name":"addAddressesToAllowlist","outputs":[],"stateMutability":"nonpayable","type":"function"},{"inputs":[{"internalType":"address","name":"walletAddr","type":"address"}],"name":"addWalletToAllowlist","outputs":[],"stateMutability":"nonpayable","type":"function"},{"inputs":[{"internalType":"bytes32","name":"role","type":"bytes32"}],"name":"getRoleAdmin","outputs":[{"internalType":"bytes32","name":"","type":"bytes32"}],"stateMutability":"view","type":"function"},{"inputs":[{"internalType":"bytes32","name":"role","type":"bytes32"},{"internalType":"uint256","name":"index","type":"uint256"}],"name":"getRoleMember","outputs":[{"internalType":"address","name":"","type":"address"}],"stateMutability":"view","type":"function"},{"inputs":[{"internalType":"bytes32","name":"role","type":"bytes32"}],"name":"getRoleMemberCount","outputs":[{"internalType":"uint256","name":"","type":"uint256"}],"stateMutability":"view","type":"function"},{"inputs":[{"internalType":"bytes32","name":"role","type":"bytes32"},{"internalType":"address","name":"account","type":"address"}],"name":"grantRole","outputs":[],"stateMutability":"nonpayable","type":"function"},{"inputs":[{"internalType":"bytes32","name":"role","type":"bytes32"},{"internalType":"address","name":"account","type":"address"}],"name":"hasRole","outputs":[{"internalType":"bool","name":"","type":"bool"}],"stateMutability":"view","type":"function"},{"inputs":[{"internalType":"address","name":"_roleAdmin","type":"address"},{"internalType":"address","name":"_upgradeAdmin","type":"address"},{"internalType":"address","name":"_registerarAdmin","type":"address"}],"name":"initialize","outputs":[],"stateMutability":"nonpayable","type":"function"},{"inputs":[{"internalType":"address","name":"target","type":"address"}],"name":"isAllowlisted","outputs":[{"internalType":"bool","name":"","type":"bool"}],"stateMutability":"view","type":"function"},{"inputs":[],"name":"proxiableUUID","outputs":[{"internalType":"bytes32","name":"","type":"bytes32"}],"stateMutability":"view","type":"function"},{"inputs":[{"internalType":"address[]","name":"addressTargets","type":"address[]"}],"name":"removeAddressesFromAllowlist","outputs":[],"stateMutability":"nonpayable","type":"function"},{"inputs":[{"internalType":"address","name":"walletAddr","type":"address"}],"name":"removeWalletFromAllowlist","outputs":[],"stateMutability":"nonpayable","type":"function"},{"inputs":[{"internalType":"bytes32","name":"role","type":"bytes32"},{"internalType":"address","name":"account","type":"address"}],"name":"renounceRole","outputs":[],"stateMutability":"nonpayable","type":"function"},{"inputs":[{"internalType":"bytes32","name":"role","type":"bytes32"},{"internalType":"address","name":"account","type":"address"}],"name":"revokeRole","outputs":[],"stateMutability":"nonpayable","type":"function"},{"inputs":[{"internalType":"bytes4","name":"interfaceId","type":"bytes4"}],"name":"supportsInterface","outputs":[{"internalType":"bool","name":"","type":"bool"}],"stateMutability":"view","type":"function"},{"inputs":[{"internalType":"address","name":"newImplementation","type":"address"}],"name":"upgradeTo","outputs":[],"stateMutability":"nonpayable","type":"function"},{"inputs":[{"internalType":"address","name":"newImplementation","type":"address"},{"internalType":"bytes","name":"data","type":"bytes"}],"name":"upgradeToAndCall","outputs":[],"stateMutability":"payable","type":"function"}],"evm":{"bytecode":{"linkReferences":{},"object":"60a06040523060805234801561001457600080fd5b50608051611c6f61004c60003960008181610696015281816106d601528181610775015281816107b501526108440152611c6f6000f3fe60806040526004361061011f5760003560e01c80636caacbe7116100a0578063b908afa811610064578063b908afa81461032e578063c0c53b8b14610351578063ca15c87314610371578063d547741f14610391578063f68e9553146103b157600080fd5b80636caacbe7146102815780637f17caa7146102a15780639010d07c146102c157806391d14854146102f9578063a217fddf1461031957600080fd5b806336568abe116100e757806336568abe146101f95780633659cfe6146102195780634f1ef2861461023957806352d1902d1461024c5780636aa700961461026157600080fd5b806301ffc9a7146101245780630488d9741461015957806305a3b8091461017b578063248a9ca31461019b5780632f2ff15d146101d9575b600080fd5b34801561013057600080fd5b5061014461013f36600461172c565b6103d6565b60405190151581526020015b60405180910390f35b34801561016557600080fd5b5061017961017436600461176b565b610401565b005b34801561018757600080fd5b5061014461019636600461176b565b61050a565b3480156101a757600080fd5b506101cb6101b6366004611788565b60009081526065602052604090206001015490565b604051908152602001610150565b3480156101e557600080fd5b506101796101f43660046117a1565b6105df565b34801561020557600080fd5b506101796102143660046117a1565b610609565b34801561022557600080fd5b5061017961023436600461176b565b61068c565b6101796102473660046117e7565b61076b565b34801561025857600080fd5b506101cb610837565b34801561026d57600080fd5b5061017961027c36600461176b565b6108ea565b34801561028d57600080fd5b5061017961029c3660046118ab565b6109de565b3480156102ad57600080fd5b506101796102bc3660046118ab565b610ad5565b3480156102cd57600080fd5b506102e16102dc366004611920565b610bcf565b6040516001600160a01b039091168152602001610150565b34801561030557600080fd5b506101446103143660046117a1565b610bee565b34801561032557600080fd5b506101cb600081565b34801561033a57600080fd5b506101cb6b555047524144455f524f4c4560a01b81565b34801561035d57600080fd5b5061017961036c366004611942565b610c19565b34801561037d57600080fd5b506101cb61038c366004611788565b610d73565b34801561039d57600080fd5b506101796103ac3660046117a1565b610d8a565b3480156103bd57600080fd5b506101cb6d5245474953545241525f524f4c4560901b81565b60006001600160e01b031982166305a3b80960e01b14806103fb57506103fb82610daf565b92915050565b6d5245474953545241525f524f4c4560901b61041c81610dd4565b813f600081815261012f60209081526040808320805460ff191660011790558051639061112760e01b815290516001600160a01b03871692639061112792600480820193918290030181865afa15801561047a573d6000803e3d6000fd5b505050506040513d601f19601f8201168201806040525081019061049e919061198d565b6001600160a01b03818116600090815261012e6020908152604091829020805460ff1916600190811790915591519182529293509086169184917f52a9758e33d80a562e98b34d922581e414149b9c485e5929682a72acb451c31591015b60405180910390a350505050565b6001600160a01b038116600090815261012d602052604081205460ff161561053457506001919050565b813f600081815261012f602052604090205460ff16156105d6576000836001600160a01b031663906111276040518163ffffffff1660e01b8152600401602060405180830381865afa15801561058e573d6000803e3d6000fd5b505050506040513d601f19601f820116820180604052508101906105b2919061198d565b6001600160a01b0316600090815261012e602052604090205460ff16949350505050565b50600092915050565b6000828152606560205260409020600101546105fa81610dd4565b6106048383610dde565b505050565b6001600160a01b038116331461067e5760405162461bcd60e51b815260206004820152602f60248201527f416363657373436f6e74726f6c3a2063616e206f6e6c792072656e6f756e636560448201526e103937b632b9903337b91039b2b63360891b60648201526084015b60405180910390fd5b6106888282610e00565b5050565b6001600160a01b037f00000000000000000000000000000000000000000000000000000000000000001630036106d45760405162461bcd60e51b8152600401610675906119aa565b7f00000000000000000000000000000000000000000000000000000000000000006001600160a01b031661071d600080516020611bf3833981519152546001600160a01b031690565b6001600160a01b0316146107435760405162461bcd60e51b8152600401610675906119f6565b61074c81610e22565b6040805160008082526020820190925261076891839190610e3b565b50565b6001600160a01b037f00000000000000000000000000000000000000000000000000000000000000001630036107b35760405162461bcd60e51b8152600401610675906119aa565b7f00000000000000000000000000000000000000000000000000000000000000006001600160a01b03166107fc600080516020611bf3833981519152546001600160a01b031690565b6001600160a01b0316146108225760405162461bcd60e51b8152600401610675906119f6565b61082b82610e22565b61068882826001610e3b565b6000306001600160a01b037f000000000000000000000000000000000000000000000000000000000000000016146108d75760405162461bcd60e51b815260206004820152603860248201527f555550535570677261646561626c653a206d757374206e6f742062652063616c60448201527f6c6564207468726f7567682064656c656761746563616c6c00000000000000006064820152608401610675565b50600080516020611bf383398151915290565b6d5245474953545241525f524f4c4560901b61090581610dd4565b813f600081815261012f60209081526040808320805460ff191690558051639061112760e01b815290516001600160a01b03871692639061112792600480820193918290030181865afa158015610960573d6000803e3d6000fd5b505050506040513d601f19601f82011682018060405250810190610984919061198d565b6001600160a01b03818116600090815261012e60209081526040808320805460ff19169055519182529293509086169184917f52a9758e33d80a562e98b34d922581e414149b9c485e5929682a72acb451c31591016104fc565b6d5245474953545241525f524f4c4560901b6109f981610dd4565b60005b82811015610acf5761012d6000858584818110610a1b57610a1b611a42565b9050602002016020810190610a30919061176b565b6001600160a01b031681526020810191909152604001600020805460ff19169055838382818110610a6357610a63611a42565b9050602002016020810190610a78919061176b565b6001600160a01b03167f218a1635b2755f3fe7bdb77932fcd6ffca69760533404fe817f7404315bf6df06000604051610ab5911515815260200190565b60405180910390a280610ac781611a6e565b9150506109fc565b50505050565b6d5245474953545241525f524f4c4560901b610af081610dd4565b60005b82811015610acf57600161012d6000868685818110610b1457610b14611a42565b9050602002016020810190610b29919061176b565b6001600160a01b031681526020810191909152604001600020805460ff1916911515919091179055838382818110610b6357610b63611a42565b9050602002016020810190610b78919061176b565b6001600160a01b03167f218a1635b2755f3fe7bdb77932fcd6ffca69760533404fe817f7404315bf6df06001604051610bb5911515815260200190565b60405180910390a280610bc781611a6e565b915050610af3565b6000828152609760205260408120610be79083610fa6565b9392505050565b60009182526065602090815260408084206001600160a01b0393909316845291905290205460ff1690565b600054610100900460ff1615808015610c395750600054600160ff909116105b80610c535750303b158015610c53575060005460ff166001145b610cb65760405162461bcd60e51b815260206004820152602e60248201527f496e697469616c697a61626c653a20636f6e747261637420697320616c72656160448201526d191e481a5b9a5d1a585b1a5e995960921b6064820152608401610675565b6000805460ff191660011790558015610cd9576000805461ff0019166101001790555b610ce1610fb2565b610ce9610fb2565b610cf4600085610dde565b610d0d6b555047524144455f524f4c4560a01b84610dde565b610d286d5245474953545241525f524f4c4560901b83610dde565b8015610acf576000805461ff0019169055604051600181527f7f26b83ff96e1f2b6a682f133852f6798a09c465da95921460cefb38474024989060200160405180910390a150505050565b60008181526097602052604081206103fb9061101f565b600082815260656020526040902060010154610da581610dd4565b6106048383610e00565b60006001600160e01b03198216635a05180f60e01b14806103fb57506103fb82611029565b610768813361105e565b610de882826110b7565b6000828152609760205260409020610604908261113d565b610e0a8282611152565b600082815260976020526040902061060490826111b9565b6b555047524144455f524f4c4560a01b61068881610dd4565b7f4910fdfa16fed3260ed0e7147f7cc6da11a60208b5b9406d12a635614ffd91435460ff1615610e6e57610604836111ce565b826001600160a01b03166352d1902d6040518163ffffffff1660e01b8152600401602060405180830381865afa925050508015610ec8575060408051601f3d908101601f19168201909252610ec591810190611a87565b60015b610f2b5760405162461bcd60e51b815260206004820152602e60248201527f45524331393637557067726164653a206e657720696d706c656d656e7461746960448201526d6f6e206973206e6f74205555505360901b6064820152608401610675565b600080516020611bf38339815191528114610f9a5760405162461bcd60e51b815260206004820152602960248201527f45524331393637557067726164653a20756e737570706f727465642070726f786044820152681a58589b195555525160ba1b6064820152608401610675565b5061060483838361126a565b6000610be7838361128f565b600054610100900460ff1661101d5760405162461bcd60e51b815260206004820152602b60248201527f496e697469616c697a61626c653a20636f6e7472616374206973206e6f74206960448201526a6e697469616c697a696e6760a81b6064820152608401610675565b565b60006103fb825490565b60006001600160e01b03198216637965db0b60e01b14806103fb57506301ffc9a760e01b6001600160e01b03198316146103fb565b6110688282610bee565b61068857611075816112b9565b6110808360206112cb565b604051602001611091929190611ac4565b60408051601f198184030181529082905262461bcd60e51b825261067591600401611b39565b6110c18282610bee565b6106885760008281526065602090815260408083206001600160a01b03851684529091529020805460ff191660011790556110f93390565b6001600160a01b0316816001600160a01b0316837f2f8788117e7eff1d82e926ec794901d17c78024a50270940304540a733656f0d60405160405180910390a45050565b6000610be7836001600160a01b038416611467565b61115c8282610bee565b156106885760008281526065602090815260408083206001600160a01b0385168085529252808320805460ff1916905551339285917ff6391f5c32d9c69d2a47ea670b442974b53935d1edc7fd64eb21e047a839171b9190a45050565b6000610be7836001600160a01b0384166114b6565b6001600160a01b0381163b61123b5760405162461bcd60e51b815260206004820152602d60248201527f455243313936373a206e657720696d706c656d656e746174696f6e206973206e60448201526c1bdd08184818dbdb9d1c9858dd609a1b6064820152608401610675565b600080516020611bf383398151915280546001600160a01b0319166001600160a01b0392909216919091179055565b611273836115a9565b6000825111806112805750805b1561060457610acf83836115e9565b60008260000182815481106112a6576112a6611a42565b9060005260206000200154905092915050565b60606103fb6001600160a01b03831660145b606060006112da836002611b6c565b6112e5906002611b83565b67ffffffffffffffff8111156112fd576112fd6117d1565b6040519080825280601f01601f191660200182016040528015611327576020820181803683370190505b509050600360fc1b8160008151811061134257611342611a42565b60200101906001600160f81b031916908160001a905350600f60fb1b8160018151811061137157611371611a42565b60200101906001600160f81b031916908160001a9053506000611395846002611b6c565b6113a0906001611b83565b90505b6001811115611418576f181899199a1a9b1b9c1cb0b131b232b360811b85600f16601081106113d4576113d4611a42565b1a60f81b8282815181106113ea576113ea611a42565b60200101906001600160f81b031916908160001a90535060049490941c9361141181611b96565b90506113a3565b508315610be75760405162461bcd60e51b815260206004820181905260248201527f537472696e67733a20686578206c656e67746820696e73756666696369656e746044820152606401610675565b60008181526001830160205260408120546114ae575081546001818101845560008481526020808220909301849055845484825282860190935260409020919091556103fb565b5060006103fb565b6000818152600183016020526040812054801561159f5760006114da600183611bad565b85549091506000906114ee90600190611bad565b905081811461155357600086600001828154811061150e5761150e611a42565b906000526020600020015490508087600001848154811061153157611531611a42565b6000918252602080832090910192909255918252600188019052604090208390555b855486908061156457611564611bc0565b6001900381819060005260206000200160009055905585600101600086815260200190815260200160002060009055600193505050506103fb565b60009150506103fb565b6115b2816111ce565b6040516001600160a01b038216907fbc7cd75a20ee27fd9adebab32041f755214dbc6bffa90cc0225b39da2e5c2d3b90600090a250565b6060610be78383604051806060016040528060278152602001611c13602791396060600080856001600160a01b0316856040516116269190611bd6565b600060405180830381855af49150503d8060008114611661576040519150601f19603f3d011682016040523d82523d6000602084013e611666565b606091505b509150915061167786838387611681565b9695505050505050565b606083156116f05782516000036116e9576001600160a01b0385163b6116e95760405162461bcd60e51b815260206004820152601d60248201527f416464726573733a2063616c6c20746f206e6f6e2d636f6e74726163740000006044820152606401610675565b50816116fa565b6116fa8383611702565b949350505050565b8151156117125781518083602001fd5b8060405162461bcd60e51b81526004016106759190611b39565b60006020828403121561173e57600080fd5b81356001600160e01b031981168114610be757600080fd5b6001600160a01b038116811461076857600080fd5b60006020828403121561177d57600080fd5b8135610be781611756565b60006020828403121561179a57600080fd5b5035919050565b600080604083850312156117b457600080fd5b8235915060208301356117c681611756565b809150509250929050565b634e487b7160e01b600052604160045260246000fd5b600080604083850312156117fa57600080fd5b823561180581611756565b9150602083013567ffffffffffffffff8082111561182257600080fd5b818501915085601f83011261183657600080fd5b813581811115611848576118486117d1565b604051601f8201601f19908116603f01168101908382118183101715611870576118706117d1565b8160405282815288602084870101111561188957600080fd5b8260208601602083013760006020848301015280955050505050509250929050565b600080602083850312156118be57600080fd5b823567ffffffffffffffff808211156118d657600080fd5b818501915085601f8301126118ea57600080fd5b8135818111156118f957600080fd5b8660208260051b850101111561190e57600080fd5b60209290920196919550909350505050565b6000806040838503121561193357600080fd5b50508035926020909101359150565b60008060006060848603121561195757600080fd5b833561196281611756565b9250602084013561197281611756565b9150604084013561198281611756565b809150509250925092565b60006020828403121561199f57600080fd5b8151610be781611756565b6020808252602c908201527f46756e6374696f6e206d7573742062652063616c6c6564207468726f7567682060408201526b19195b1959d85d1958d85b1b60a21b606082015260800190565b6020808252602c908201527f46756e6374696f6e206d7573742062652063616c6c6564207468726f7567682060408201526b6163746976652070726f787960a01b606082015260800190565b634e487b7160e01b600052603260045260246000fd5b634e487b7160e01b600052601160045260246000fd5b600060018201611a8057611a80611a58565b5060010190565b600060208284031215611a9957600080fd5b5051919050565b60005b83811015611abb578181015183820152602001611aa3565b50506000910152565b7f416363657373436f6e74726f6c3a206163636f756e7420000000000000000000815260008351611afc816017850160208801611aa0565b7001034b99036b4b9b9b4b733903937b6329607d1b6017918401918201528351611b2d816028840160208801611aa0565b01602801949350505050565b6020815260008251806020840152611b58816040850160208701611aa0565b601f01601f19169190910160400192915050565b80820281158282048414176103fb576103fb611a58565b808201808211156103fb576103fb611a58565b600081611ba557611ba5611a58565b506000190190565b818103818111156103fb576103fb611a58565b634e487b7160e01b600052603160045260246000fd5b60008251611be8818460208701611aa0565b919091019291505056fe360894a13ba1a3210667c828492db98dca3e2076cc3735a920a3ca505d382bbc416464726573733a206c6f772d6c6576656c2064656c65676174652063616c6c206661696c6564a26469706673582212202c0309543a2d84dd26cd09887918d4b72da3aaa4e17fb534e5e161334ce6e3f964736f6c63430008130033","opcodes":"PUSH1 0xA0 PUSH1 0x40 MSTORE ADDRESS PUSH1 0x80 MSTORE CALLVALUE DUP1 ISZERO PUSH2 0x14 JUMPI PUSH1 0x0 DUP1 REVERT JUMPDEST POP PUSH1 0x80 MLOAD PUSH2 0x1C6F PUSH2 0x4C PUSH1 0x0 CODECOPY PUSH1 0x0 DUP2 DUP2 PUSH2 0x696 ADD MSTORE DUP2 DUP2 PUSH2 0x6D6 ADD MSTORE DUP2 DUP2 PUSH2 0x775 ADD MSTORE DUP2 DUP2 PUSH2 0x7B5 ADD MSTORE PUSH2 0x844 ADD MSTORE PUSH2 0x1C6F PUSH1 0x0 RETURN INVALID PUSH1 0x80 PUSH1 0x40 MSTORE PUSH1 0x4 CALLDATASIZE LT PUSH2 0x11F JUMPI PUSH1 0x0 CALLDATALOAD PUSH1 0xE0 SHR DUP1 PUSH4 0x6CAACBE7 GT PUSH2 0xA0 JUMPI DUP1 PUSH4 0xB908AFA8 GT PUSH2 0x64 JUMPI DUP1 PUSH4 0xB908AFA8 EQ PUSH2 0x32E JUMPI DUP1 PUSH4 0xC0C53B8B EQ PUSH2 0x351 JUMPI DUP1 PUSH4 0xCA15C873 EQ PUSH2 0x371 JUMPI DUP1 PUSH4 0xD547741F EQ PUSH2 0x391 JUMPI DUP1 PUSH4 0xF68E9553 EQ PUSH2 0x3B1 JUMPI PUSH1 0x0 DUP1 REVERT JUMPDEST DUP1 PUSH4 0x6CAACBE7 EQ PUSH2 0x281 JUMPI DUP1 PUSH4 0x7F17CAA7 EQ PUSH2 0x2A1 JUMPI DUP1 PUSH4 0x9010D07C EQ PUSH2 0x2C1 JUMPI DUP1 PUSH4 0x91D14854 EQ PUSH2 0x2F9 JUMPI DUP1 PUSH4 0xA217FDDF EQ PUSH2 0x319 JUMPI PUSH1 0x0 DUP1 REVERT JUMPDEST DUP1 PUSH4 0x36568ABE GT PUSH2 0xE7 JUMPI DUP1 PUSH4 0x36568ABE EQ PUSH2 0x1F9 JUMPI DUP1 PUSH4 0x3659CFE6 EQ PUSH2 0x219 JUMPI DUP1 PUSH4 0x4F1EF286 EQ PUSH2 0x239 JUMPI DUP1 PUSH4 0x52D1902D EQ PUSH2 0x24C JUMPI DUP1 PUSH4 0x6AA70096 EQ PUSH2 0x261 JUMPI PUSH1 0x0 DUP1 REVERT JUMPDEST DUP1 PUSH4 0x1FFC9A7 EQ PUSH2 0x124 JUMPI DUP1 PUSH4 0x488D974 EQ PUSH2 0x159 JUMPI DUP1 PUSH4 0x5A3B809 EQ PUSH2 0x17B JUMPI DUP1 PUSH4 0x248A9CA3 EQ PUSH2 0x19B JUMPI DUP1 PUSH4 0x2F2FF15D EQ PUSH2 0x1D9 JUMPI JUMPDEST PUSH1 0x0 DUP1 REVERT JUMPDEST CALLVALUE DUP1 ISZERO PUSH2 0x130 JUMPI PUSH1 0x0 DUP1 REVERT JUMPDEST POP PUSH2 0x144 PUSH2 0x13F CALLDATASIZE PUSH1 0x4 PUSH2 0x172C JUMP JUMPDEST PUSH2 0x3D6 JUMP JUMPDEST PUSH1 0x40 MLOAD SWAP1 ISZERO ISZERO DUP2 MSTORE PUSH1 0x20 ADD JUMPDEST PUSH1 0x40 MLOAD DUP1 SWAP2 SUB SWAP1 RETURN JUMPDEST CALLVALUE DUP1 ISZERO PUSH2 0x165 JUMPI PUSH1 0x0 DUP1 REVERT JUMPDEST POP PUSH2 0x179 PUSH2 0x174 CALLDATASIZE PUSH1 0x4 PUSH2 0x176B JUMP JUMPDEST PUSH2 0x401 JUMP JUMPDEST STOP JUMPDEST CALLVALUE DUP1 ISZERO PUSH2 0x187 JUMPI PUSH1 0x0 DUP1 REVERT JUMPDEST POP PUSH2 0x144 PUSH2 0x196 CALLDATASIZE PUSH1 0x4 PUSH2 0x176B JUMP JUMPDEST PUSH2 0x50A JUMP JUMPDEST CALLVALUE DUP1 ISZERO PUSH2 0x1A7 JUMPI PUSH1 0x0 DUP1 REVERT JUMPDEST POP PUSH2 0x1CB PUSH2 0x1B6 CALLDATASIZE PUSH1 0x4 PUSH2 0x1788 JUMP JUMPDEST PUSH1 0x0 SWAP1 DUP2 MSTORE PUSH1 0x65 PUSH1 0x20 MSTORE PUSH1 0x40 SWAP1 KECCAK256 PUSH1 0x1 ADD SLOAD SWAP1 JUMP JUMPDEST PUSH1 0x40 MLOAD SWAP1 DUP2 MSTORE PUSH1 0x20 ADD PUSH2 0x150 JUMP JUMPDEST CALLVALUE DUP1 ISZERO PUSH2 0x1E5 JUMPI PUSH1 0x0 DUP1 REVERT JUMPDEST POP PUSH2 0x179 PUSH2 0x1F4 CALLDATASIZE PUSH1 0x4 PUSH2 0x17A1 JUMP JUMPDEST PUSH2 0x5DF JUMP JUMPDEST CALLVALUE DUP1 ISZERO PUSH2 0x205 JUMPI PUSH1 0x0 DUP1 REVERT JUMPDEST POP PUSH2 0x179 PUSH2 0x214 CALLDATASIZE PUSH1 0x4 PUSH2 0x17A1 JUMP JUMPDEST PUSH2 0x609 JUMP JUMPDEST CALLVALUE DUP1 ISZERO PUSH2 0x225 JUMPI PUSH1 0x0 DUP1 REVERT JUMPDEST POP PUSH2 0x179 PUSH2 0x234 CALLDATASIZE PUSH1 0x4 PUSH2 0x176B JUMP JUMPDEST PUSH2 0x68C JUMP JUMPDEST PUSH2 0x179 PUSH2 0x247 CALLDATASIZE PUSH1 0x4 PUSH2 0x17E7 JUMP JUMPDEST PUSH2 0x76B JUMP JUMPDEST CALLVALUE DUP1 ISZERO PUSH2 0x258 JUMPI PUSH1 0x0 DUP1 REVERT JUMPDEST POP PUSH2 0x1CB PUSH2 0x837 JUMP JUMPDEST CALLVALUE DUP1 ISZERO PUSH2 0x26D JUMPI PUSH1 0x0 DUP1 REVERT JUMPDEST POP PUSH2 0x179 PUSH2 0x27C CALLDATASIZE PUSH1 0x4 PUSH2 0x176B JUMP JUMPDEST PUSH2 0x8EA JUMP JUMPDEST CALLVALUE DUP1 ISZERO PUSH2 0x28D JUMPI PUSH1 0x0 DUP1 REVERT JUMPDEST POP PUSH2 0x179 PUSH2 0x29C CALLDATASIZE PUSH1 0x4 PUSH2 0x18AB JUMP JUMPDEST PUSH2 0x9DE JUMP JUMPDEST CALLVALUE DUP1 ISZERO PUSH2 0x2AD JUMPI PUSH1 0x0 DUP1 REVERT JUMPDEST POP PUSH2 0x179 PUSH2 0x2BC CALLDATASIZE PUSH1 0x4 PUSH2 0x18AB JUMP JUMPDEST PUSH2 0xAD5 JUMP JUMPDEST CALLVALUE DUP1 ISZERO PUSH2 0x2CD JUMPI PUSH1 0x0 DUP1 REVERT JUMPDEST POP PUSH2 0x2E1 PUSH2 0x2DC CALLDATASIZE PUSH1 0x4 PUSH2 0x1920 JUMP JUMPDEST PUSH2 0xBCF JUMP JUMPDEST PUSH1 0x40 MLOAD PUSH1 0x1 PUSH1 0x1 PUSH1 0xA0 SHL SUB SWAP1 SWAP2 AND DUP2 MSTORE PUSH1 0x20 ADD PUSH2 0x150 JUMP JUMPDEST CALLVALUE DUP1 ISZERO PUSH2 0x305 JUMPI PUSH1 0x0 DUP1 REVERT JUMPDEST POP PUSH2 0x144 PUSH2 0x314 CALLDATASIZE PUSH1 0x4 PUSH2 0x17A1 JUMP JUMPDEST PUSH2 0xBEE JUMP JUMPDEST CALLVALUE DUP1 ISZERO PUSH2 0x325 JUMPI PUSH1 0x0 DUP1 REVERT JUMPDEST POP PUSH2 0x1CB PUSH1 0x0 DUP2 JUMP JUMPDEST CALLVALUE DUP1 ISZERO PUSH2 0x33A JUMPI PUSH1 0x0 DUP1 REVERT JUMPDEST POP PUSH2 0x1CB PUSH12 0x555047524144455F524F4C45 PUSH1 0xA0 SHL DUP2 JUMP JUMPDEST CALLVALUE DUP1 ISZERO PUSH2 0x35D JUMPI PUSH1 0x0 DUP1 REVERT JUMPDEST POP PUSH2 0x179 PUSH2 0x36C CALLDATASIZE PUSH1 0x4 PUSH2 0x1942 JUMP JUMPDEST PUSH2 0xC19 JUMP JUMPDEST CALLVALUE DUP1 ISZERO PUSH2 0x37D JUMPI PUSH1 0x0 DUP1 REVERT JUMPDEST POP PUSH2 0x1CB PUSH2 0x38C CALLDATASIZE PUSH1 0x4 PUSH2 0x1788 JUMP JUMPDEST PUSH2 0xD73 JUMP JUMPDEST CALLVALUE DUP1 ISZERO PUSH2 0x39D JUMPI PUSH1 0x0 DUP1 REVERT JUMPDEST POP PUSH2 0x179 PUSH2 0x3AC CALLDATASIZE PUSH1 0x4 PUSH2 0x17A1 JUMP JUMPDEST PUSH2 0xD8A JUMP JUMPDEST CALLVALUE DUP1 ISZERO PUSH2 0x3BD JUMPI PUSH1 0x0 DUP1 REVERT JUMPDEST POP PUSH2 0x1CB PUSH14 0x5245474953545241525F524F4C45 PUSH1 0x90 SHL DUP2 JUMP JUMPDEST PUSH1 0x0 PUSH1 0x1 PUSH1 0x1 PUSH1 0xE0 SHL SUB NOT DUP3 AND PUSH4 0x5A3B809 PUSH1 0xE0 SHL EQ DUP1 PUSH2 0x3FB JUMPI POP PUSH2 0x3FB DUP3 PUSH2 0xDAF JUMP JUMPDEST SWAP3 SWAP2 POP POP JUMP JUMPDEST PUSH14 0x5245474953545241525F524F4C45 PUSH1 0x90 SHL PUSH2 0x41C DUP2 PUSH2 0xDD4 JUMP JUMPDEST DUP2 EXTCODEHASH PUSH1 0x0 DUP2 DUP2 MSTORE PUSH2 0x12F PUSH1 0x20 SWAP1 DUP2 MSTORE PUSH1 0x40 DUP1 DUP4 KECCAK256 DUP1 SLOAD PUSH1 0xFF NOT AND PUSH1 0x1 OR SWAP1 SSTORE DUP1 MLOAD PUSH4 0x90611127 PUSH1 0xE0 SHL DUP2 MSTORE SWAP1 MLOAD PUSH1 0x1 PUSH1 0x1 PUSH1 0xA0 SHL SUB DUP8 AND SWAP3 PUSH4 0x90611127 SWAP3 PUSH1 0x4 DUP1 DUP3 ADD SWAP4 SWAP2 DUP3 SWAP1 SUB ADD DUP2 DUP7 GAS STATICCALL ISZERO DUP1 ISZERO PUSH2 0x47A JUMPI RETURNDATASIZE PUSH1 0x0 DUP1 RETURNDATACOPY RETURNDATASIZE PUSH1 0x0 REVERT JUMPDEST POP POP POP POP PUSH1 0x40 MLOAD RETURNDATASIZE PUSH1 0x1F NOT PUSH1 0x1F DUP3 ADD AND DUP3 ADD DUP1 PUSH1 0x40 MSTORE POP DUP2 ADD SWAP1 PUSH2 0x49E SWAP2 SWAP1 PUSH2 0x198D JUMP JUMPDEST PUSH1 0x1 PUSH1 0x1 PUSH1 0xA0 SHL SUB DUP2 DUP2 AND PUSH1 0x0 SWAP1 DUP2 MSTORE PUSH2 0x12E PUSH1 0x20 SWAP1 DUP2 MSTORE PUSH1 0x40 SWAP2 DUP3 SWAP1 KECCAK256 DUP1 SLOAD PUSH1 0xFF NOT AND PUSH1 0x1 SWAP1 DUP2 OR SWAP1 SWAP2 SSTORE SWAP2 MLOAD SWAP2 DUP3 MSTORE SWAP3 SWAP4 POP SWAP1 DUP7 AND SWAP2 DUP5 SWAP2 PUSH32 0x52A9758E33D80A562E98B34D922581E414149B9C485E5929682A72ACB451C315 SWAP2 ADD JUMPDEST PUSH1 0x40 MLOAD DUP1 SWAP2 SUB SWAP1 LOG3 POP POP POP POP JUMP JUMPDEST PUSH1 0x1 PUSH1 0x1 PUSH1 0xA0 SHL SUB DUP2 AND PUSH1 0x0 SWAP1 DUP2 MSTORE PUSH2 0x12D PUSH1 0x20 MSTORE PUSH1 0x40 DUP2 KECCAK256 SLOAD PUSH1 0xFF AND ISZERO PUSH2 0x534 JUMPI POP PUSH1 0x1 SWAP2 SWAP1 POP JUMP JUMPDEST DUP2 EXTCODEHASH PUSH1 0x0 DUP2 DUP2 MSTORE PUSH2 0x12F PUSH1 0x20 MSTORE PUSH1 0x40 SWAP1 KECCAK256 SLOAD PUSH1 0xFF AND ISZERO PUSH2 0x5D6 JUMPI PUSH1 0x0 DUP4 PUSH1 0x1 PUSH1 0x1 PUSH1 0xA0 SHL SUB AND PUSH4 0x90611127 PUSH1 0x40 MLOAD DUP2 PUSH4 0xFFFFFFFF AND PUSH1 0xE0 SHL DUP2 MSTORE PUSH1 0x4 ADD PUSH1 0x20 PUSH1 0x40 MLOAD DUP1 DUP4 SUB DUP2 DUP7 GAS STATICCALL ISZERO DUP1 ISZERO PUSH2 0x58E JUMPI RETURNDATASIZE PUSH1 0x0 DUP1 RETURNDATACOPY RETURNDATASIZE PUSH1 0x0 REVERT JUMPDEST POP POP POP POP PUSH1 0x40 MLOAD RETURNDATASIZE PUSH1 0x1F NOT PUSH1 0x1F DUP3 ADD AND DUP3 ADD DUP1 PUSH1 0x40 MSTORE POP DUP2 ADD SWAP1 PUSH2 0x5B2 SWAP2 SWAP1 PUSH2 0x198D JUMP JUMPDEST PUSH1 0x1 PUSH1 0x1 PUSH1 0xA0 SHL SUB AND PUSH1 0x0 SWAP1 DUP2 MSTORE PUSH2 0x12E PUSH1 0x20 MSTORE PUSH1 0x40 SWAP1 KECCAK256 SLOAD PUSH1 0xFF AND SWAP5 SWAP4 POP POP POP POP JUMP JUMPDEST POP PUSH1 0x0 SWAP3 SWAP2 POP POP JUMP JUMPDEST PUSH1 0x0 DUP3 DUP2 MSTORE PUSH1 0x65 PUSH1 0x20 MSTORE PUSH1 0x40 SWAP1 KECCAK256 PUSH1 0x1 ADD SLOAD PUSH2 0x5FA DUP2 PUSH2 0xDD4 JUMP JUMPDEST PUSH2 0x604 DUP4 DUP4 PUSH2 0xDDE JUMP JUMPDEST POP POP POP JUMP JUMPDEST PUSH1 0x1 PUSH1 0x1 PUSH1 0xA0 SHL SUB DUP2 AND CALLER EQ PUSH2 0x67E JUMPI PUSH1 0x40 MLOAD PUSH3 0x461BCD PUSH1 0xE5 SHL DUP2 MSTORE PUSH1 0x20 PUSH1 0x4 DUP3 ADD MSTORE PUSH1 0x2F PUSH1 0x24 DUP3 ADD MSTORE PUSH32 0x416363657373436F6E74726F6C3A2063616E206F6E6C792072656E6F756E6365 PUSH1 0x44 DUP3 ADD MSTORE PUSH15 0x103937B632B9903337B91039B2B633 PUSH1 0x89 SHL PUSH1 0x64 DUP3 ADD MSTORE PUSH1 0x84 ADD JUMPDEST PUSH1 0x40 MLOAD DUP1 SWAP2 SUB SWAP1 REVERT JUMPDEST PUSH2 0x688 DUP3 DUP3 PUSH2 0xE00 JUMP JUMPDEST POP POP JUMP JUMPDEST PUSH1 0x1 PUSH1 0x1 PUSH1 0xA0 SHL SUB PUSH32 0x0 AND ADDRESS SUB PUSH2 0x6D4 JUMPI PUSH1 0x40 MLOAD PUSH3 0x461BCD PUSH1 0xE5 SHL DUP2 MSTORE PUSH1 0x4 ADD PUSH2 0x675 SWAP1 PUSH2 0x19AA JUMP JUMPDEST PUSH32 0x0 PUSH1 0x1 PUSH1 0x1 PUSH1 0xA0 SHL SUB AND PUSH2 0x71D PUSH1 0x0 DUP1 MLOAD PUSH1 0x20 PUSH2 0x1BF3 DUP4 CODECOPY DUP2 MLOAD SWAP2 MSTORE SLOAD PUSH1 0x1 PUSH1 0x1 PUSH1 0xA0 SHL SUB AND SWAP1 JUMP JUMPDEST PUSH1 0x1 PUSH1 0x1 PUSH1 0xA0 SHL SUB AND EQ PUSH2 0x743 JUMPI PUSH1 0x40 MLOAD PUSH3 0x461BCD PUSH1 0xE5 SHL DUP2 MSTORE PUSH1 0x4 ADD PUSH2 0x675 SWAP1 PUSH2 0x19F6 JUMP JUMPDEST PUSH2 0x74C DUP2 PUSH2 0xE22 JUMP JUMPDEST PUSH1 0x40 DUP1 MLOAD PUSH1 0x0 DUP1 DUP3 MSTORE PUSH1 0x20 DUP3 ADD SWAP1 SWAP3 MSTORE PUSH2 0x768 SWAP2 DUP4 SWAP2 SWAP1 PUSH2 0xE3B JUMP JUMPDEST POP JUMP JUMPDEST PUSH1 0x1 PUSH1 0x1 PUSH1 0xA0 SHL SUB PUSH32 0x0 AND ADDRESS SUB PUSH2 0x7B3 JUMPI PUSH1 0x40 MLOAD PUSH3 0x461BCD PUSH1 0xE5 SHL DUP2 MSTORE PUSH1 0x4 ADD PUSH2 0x675 SWAP1 PUSH2 0x19AA JUMP JUMPDEST PUSH32 0x0 PUSH1 0x1 PUSH1 0x1 PUSH1 0xA0 SHL SUB AND PUSH2 0x7FC PUSH1 0x0 DUP1 MLOAD PUSH1 0x20 PUSH2 0x1BF3 DUP4 CODECOPY DUP2 MLOAD SWAP2 MSTORE SLOAD PUSH1 0x1 PUSH1 0x1 PUSH1 0xA0 SHL SUB AND SWAP1 JUMP JUMPDEST PUSH1 0x1 PUSH1 0x1 PUSH1 0xA0 SHL SUB AND EQ PUSH2 0x822 JUMPI PUSH1 0x40 MLOAD PUSH3 0x461BCD PUSH1 0xE5 SHL DUP2 MSTORE PUSH1 0x4 ADD PUSH2 0x675 SWAP1 PUSH2 0x19F6 JUMP JUMPDEST PUSH2 0x82B DUP3 PUSH2 0xE22 JUMP JUMPDEST PUSH2 0x688 DUP3 DUP3 PUSH1 0x1 PUSH2 0xE3B JUMP JUMPDEST PUSH1 0x0 ADDRESS PUSH1 0x1 PUSH1 0x1 PUSH1 0xA0 SHL SUB PUSH32 0x0 AND EQ PUSH2 0x8D7 JUMPI PUSH1 0x40 MLOAD PUSH3 0x461BCD PUSH1 0xE5 SHL DUP2 MSTORE PUSH1 0x20 PUSH1 0x4 DUP3 ADD MSTORE PUSH1 0x38 PUSH1 0x24 DUP3 ADD MSTORE PUSH32 0x555550535570677261646561626C653A206D757374206E6F742062652063616C PUSH1 0x44 DUP3 ADD MSTORE PUSH32 0x6C6564207468726F7567682064656C656761746563616C6C0000000000000000 PUSH1 0x64 DUP3 ADD MSTORE PUSH1 0x84 ADD PUSH2 0x675 JUMP JUMPDEST POP PUSH1 0x0 DUP1 MLOAD PUSH1 0x20 PUSH2 0x1BF3 DUP4 CODECOPY DUP2 MLOAD SWAP2 MSTORE SWAP1 JUMP JUMPDEST PUSH14 0x5245474953545241525F524F4C45 PUSH1 0x90 SHL PUSH2 0x905 DUP2 PUSH2 0xDD4 JUMP JUMPDEST DUP2 EXTCODEHASH PUSH1 0x0 DUP2 DUP2 MSTORE PUSH2 0x12F PUSH1 0x20 SWAP1 DUP2 MSTORE PUSH1 0x40 DUP1 DUP4 KECCAK256 DUP1 SLOAD PUSH1 0xFF NOT AND SWAP1 SSTORE DUP1 MLOAD PUSH4 0x90611127 PUSH1 0xE0 SHL DUP2 MSTORE SWAP1 MLOAD PUSH1 0x1 PUSH1 0x1 PUSH1 0xA0 SHL SUB DUP8 AND SWAP3 PUSH4 0x90611127 SWAP3 PUSH1 0x4 DUP1 DUP3 ADD SWAP4 SWAP2 DUP3 SWAP1 SUB ADD DUP2 DUP7 GAS STATICCALL ISZERO DUP1 ISZERO PUSH2 0x960 JUMPI RETURNDATASIZE PUSH1 0x0 DUP1 RETURNDATACOPY RETURNDATASIZE PUSH1 0x0 REVERT JUMPDEST POP POP POP POP PUSH1 0x40 MLOAD RETURNDATASIZE PUSH1 0x1F NOT PUSH1 0x1F DUP3 ADD AND DUP3 ADD DUP1 PUSH1 0x40 MSTORE POP DUP2 ADD SWAP1 PUSH2 0x984 SWAP2 SWAP1 PUSH2 0x198D JUMP JUMPDEST PUSH1 0x1 PUSH1 0x1 PUSH1 0xA0 SHL SUB DUP2 DUP2 AND PUSH1 0x0 SWAP1 DUP2 MSTORE PUSH2 0x12E PUSH1 0x20 SWAP1 DUP2 MSTORE PUSH1 0x40 DUP1 DUP4 KECCAK256 DUP1 SLOAD PUSH1 0xFF NOT AND SWAP1 SSTORE MLOAD SWAP2 DUP3 MSTORE SWAP3 SWAP4 POP SWAP1 DUP7 AND SWAP2 DUP5 SWAP2 PUSH32 0x52A9758E33D80A562E98B34D922581E414149B9C485E5929682A72ACB451C315 SWAP2 ADD PUSH2 0x4FC JUMP JUMPDEST PUSH14 0x5245474953545241525F524F4C45 PUSH1 0x90 SHL PUSH2 0x9F9 DUP2 PUSH2 0xDD4 JUMP JUMPDEST PUSH1 0x0 JUMPDEST DUP3 DUP2 LT ISZERO PUSH2 0xACF JUMPI PUSH2 0x12D PUSH1 0x0 DUP6 DUP6 DUP5 DUP2 DUP2 LT PUSH2 0xA1B JUMPI PUSH2 0xA1B PUSH2 0x1A42 JUMP JUMPDEST SWAP1 POP PUSH1 0x20 MUL ADD PUSH1 0x20 DUP2 ADD SWAP1 PUSH2 0xA30 SWAP2 SWAP1 PUSH2 0x176B JUMP JUMPDEST PUSH1 0x1 PUSH1 0x1 PUSH1 0xA0 SHL SUB AND DUP2 MSTORE PUSH1 0x20 DUP2 ADD SWAP2 SWAP1 SWAP2 MSTORE PUSH1 0x40 ADD PUSH1 0x0 KECCAK256 DUP1 SLOAD PUSH1 0xFF NOT AND SWAP1 SSTORE DUP4 DUP4 DUP3 DUP2 DUP2 LT PUSH2 0xA63 JUMPI PUSH2 0xA63 PUSH2 0x1A42 JUMP JUMPDEST SWAP1 POP PUSH1 0x20 MUL ADD PUSH1 0x20 DUP2 ADD SWAP1 PUSH2 0xA78 SWAP2 SWAP1 PUSH2 0x176B JUMP JUMPDEST PUSH1 0x1 PUSH1 0x1 PUSH1 0xA0 SHL SUB AND PUSH32 0x218A1635B2755F3FE7BDB77932FCD6FFCA69760533404FE817F7404315BF6DF0 PUSH1 0x0 PUSH1 0x40 MLOAD PUSH2 0xAB5 SWAP2 ISZERO ISZERO DUP2 MSTORE PUSH1 0x20 ADD SWAP1 JUMP JUMPDEST PUSH1 0x40 MLOAD DUP1 SWAP2 SUB SWAP1 LOG2 DUP1 PUSH2 0xAC7 DUP2 PUSH2 0x1A6E JUMP JUMPDEST SWAP2 POP POP PUSH2 0x9FC JUMP JUMPDEST POP POP POP POP JUMP JUMPDEST PUSH14 0x5245474953545241525F524F4C45 PUSH1 0x90 SHL PUSH2 0xAF0 DUP2 PUSH2 0xDD4 JUMP JUMPDEST PUSH1 0x0 JUMPDEST DUP3 DUP2 LT ISZERO PUSH2 0xACF JUMPI PUSH1 0x1 PUSH2 0x12D PUSH1 0x0 DUP7 DUP7 DUP6 DUP2 DUP2 LT PUSH2 0xB14 JUMPI PUSH2 0xB14 PUSH2 0x1A42 JUMP JUMPDEST SWAP1 POP PUSH1 0x20 MUL ADD PUSH1 0x20 DUP2 ADD SWAP1 PUSH2 0xB29 SWAP2 SWAP1 PUSH2 0x176B JUMP JUMPDEST PUSH1 0x1 PUSH1 0x1 PUSH1 0xA0 SHL SUB AND DUP2 MSTORE PUSH1 0x20 DUP2 ADD SWAP2 SWAP1 SWAP2 MSTORE PUSH1 0x40 ADD PUSH1 0x0 KECCAK256 DUP1 SLOAD PUSH1 0xFF NOT AND SWAP2 ISZERO ISZERO SWAP2 SWAP1 SWAP2 OR SWAP1 SSTORE DUP4 DUP4 DUP3 DUP2 DUP2 LT PUSH2 0xB63 JUMPI PUSH2 0xB63 PUSH2 0x1A42 JUMP JUMPDEST SWAP1 POP PUSH1 0x20 MUL ADD PUSH1 0x20 DUP2 ADD SWAP1 PUSH2 0xB78 SWAP2 SWAP1 PUSH2 0x176B JUMP JUMPDEST PUSH1 0x1 PUSH1 0x1 PUSH1 0xA0 SHL SUB AND PUSH32 0x218A1635B2755F3FE7BDB77932FCD6FFCA69760533404FE817F7404315BF6DF0 PUSH1 0x1 PUSH1 0x40 MLOAD PUSH2 0xBB5 SWAP2 ISZERO ISZERO DUP2 MSTORE PUSH1 0x20 ADD SWAP1 JUMP JUMPDEST PUSH1 0x40 MLOAD DUP1 SWAP2 SUB SWAP1 LOG2 DUP1 PUSH2 0xBC7 DUP2 PUSH2 0x1A6E JUMP JUMPDEST SWAP2 POP POP PUSH2 0xAF3 JUMP JUMPDEST PUSH1 0x0 DUP3 DUP2 MSTORE PUSH1 0x97 PUSH1 0x20 MSTORE PUSH1 0x40 DUP2 KECCAK256 PUSH2 0xBE7 SWAP1 DUP4 PUSH2 0xFA6 JUMP JUMPDEST SWAP4 SWAP3 POP POP POP JUMP JUMPDEST PUSH1 0x0 SWAP2 DUP3 MSTORE PUSH1 0x65 PUSH1 0x20 SWAP1 DUP2 MSTORE PUSH1 0x40 DUP1 DUP5 KECCAK256 PUSH1 0x1 PUSH1 0x1 PUSH1 0xA0 SHL SUB SWAP4 SWAP1 SWAP4 AND DUP5 MSTORE SWAP2 SWAP1 MSTORE SWAP1 KECCAK256 SLOAD PUSH1 0xFF AND SWAP1 JUMP JUMPDEST PUSH1 0x0 SLOAD PUSH2 0x100 SWAP1 DIV PUSH1 0xFF AND ISZERO DUP1 DUP1 ISZERO PUSH2 0xC39 JUMPI POP PUSH1 0x0 SLOAD PUSH1 0x1 PUSH1 0xFF SWAP1 SWAP2 AND LT JUMPDEST DUP1 PUSH2 0xC53 JUMPI POP ADDRESS EXTCODESIZE ISZERO DUP1 ISZERO PUSH2 0xC53 JUMPI POP PUSH1 0x0 SLOAD PUSH1 0xFF AND PUSH1 0x1 EQ JUMPDEST PUSH2 0xCB6 JUMPI PUSH1 0x40 MLOAD PUSH3 0x461BCD PUSH1 0xE5 SHL DUP2 MSTORE PUSH1 0x20 PUSH1 0x4 DUP3 ADD MSTORE PUSH1 0x2E PUSH1 0x24 DUP3 ADD MSTORE PUSH32 0x496E697469616C697A61626C653A20636F6E747261637420697320616C726561 PUSH1 0x44 DUP3 ADD MSTORE PUSH14 0x191E481A5B9A5D1A585B1A5E9959 PUSH1 0x92 SHL PUSH1 0x64 DUP3 ADD MSTORE PUSH1 0x84 ADD PUSH2 0x675 JUMP JUMPDEST PUSH1 0x0 DUP1 SLOAD PUSH1 0xFF NOT AND PUSH1 0x1 OR SWAP1 SSTORE DUP1 ISZERO PUSH2 0xCD9 JUMPI PUSH1 0x0 DUP1 SLOAD PUSH2 0xFF00 NOT AND PUSH2 0x100 OR SWAP1 SSTORE JUMPDEST PUSH2 0xCE1 PUSH2 0xFB2 JUMP JUMPDEST PUSH2 0xCE9 PUSH2 0xFB2 JUMP JUMPDEST PUSH2 0xCF4 PUSH1 0x0 DUP6 PUSH2 0xDDE JUMP JUMPDEST PUSH2 0xD0D PUSH12 0x555047524144455F524F4C45 PUSH1 0xA0 SHL DUP5 PUSH2 0xDDE JUMP JUMPDEST PUSH2 0xD28 PUSH14 0x5245474953545241525F524F4C45 PUSH1 0x90 SHL DUP4 PUSH2 0xDDE JUMP JUMPDEST DUP1 ISZERO PUSH2 0xACF JUMPI PUSH1 0x0 DUP1 SLOAD PUSH2 0xFF00 NOT AND SWAP1 SSTORE PUSH1 0x40 MLOAD PUSH1 0x1 DUP2 MSTORE PUSH32 0x7F26B83FF96E1F2B6A682F133852F6798A09C465DA95921460CEFB3847402498 SWAP1 PUSH1 0x20 ADD PUSH1 0x40 MLOAD DUP1 SWAP2 SUB SWAP1 LOG1 POP POP POP POP JUMP JUMPDEST PUSH1 0x0 DUP2 DUP2 MSTORE PUSH1 0x97 PUSH1 0x20 MSTORE PUSH1 0x40 DUP2 KECCAK256 PUSH2 0x3FB SWAP1 PUSH2 0x101F JUMP JUMPDEST PUSH1 0x0 DUP3 DUP2 MSTORE PUSH1 0x65 PUSH1 0x20 MSTORE PUSH1 0x40 SWAP1 KECCAK256 PUSH1 0x1 ADD SLOAD PUSH2 0xDA5 DUP2 PUSH2 0xDD4 JUMP JUMPDEST PUSH2 0x604 DUP4 DUP4 PUSH2 0xE00 JUMP JUMPDEST PUSH1 0x0 PUSH1 0x1 PUSH1 0x1 PUSH1 0xE0 SHL SUB NOT DUP3 AND PUSH4 0x5A05180F PUSH1 0xE0 SHL EQ DUP1 PUSH2 0x3FB JUMPI POP PUSH2 0x3FB DUP3 PUSH2 0x1029 JUMP JUMPDEST PUSH2 0x768 DUP2 CALLER PUSH2 0x105E JUMP JUMPDEST PUSH2 0xDE8 DUP3 DUP3 PUSH2 0x10B7 JUMP JUMPDEST PUSH1 0x0 DUP3 DUP2 MSTORE PUSH1 0x97 PUSH1 0x20 MSTORE PUSH1 0x40 SWAP1 KECCAK256 PUSH2 0x604 SWAP1 DUP3 PUSH2 0x113D JUMP JUMPDEST PUSH2 0xE0A DUP3 DUP3 PUSH2 0x1152 JUMP JUMPDEST PUSH1 0x0 DUP3 DUP2 MSTORE PUSH1 0x97 PUSH1 0x20 MSTORE PUSH1 0x40 SWAP1 KECCAK256 PUSH2 0x604 SWAP1 DUP3 PUSH2 0x11B9 JUMP JUMPDEST PUSH12 0x555047524144455F524F4C45 PUSH1 0xA0 SHL PUSH2 0x688 DUP2 PUSH2 0xDD4 JUMP JUMPDEST PUSH32 0x4910FDFA16FED3260ED0E7147F7CC6DA11A60208B5B9406D12A635614FFD9143 SLOAD PUSH1 0xFF AND ISZERO PUSH2 0xE6E JUMPI PUSH2 0x604 DUP4 PUSH2 0x11CE JUMP JUMPDEST DUP3 PUSH1 0x1 PUSH1 0x1 PUSH1 0xA0 SHL SUB AND PUSH4 0x52D1902D PUSH1 0x40 MLOAD DUP2 PUSH4 0xFFFFFFFF AND PUSH1 0xE0 SHL DUP2 MSTORE PUSH1 0x4 ADD PUSH1 0x20 PUSH1 0x40 MLOAD DUP1 DUP4 SUB DUP2 DUP7 GAS STATICCALL SWAP3 POP POP POP DUP1 ISZERO PUSH2 0xEC8 JUMPI POP PUSH1 0x40 DUP1 MLOAD PUSH1 0x1F RETURNDATASIZE SWAP1 DUP2 ADD PUSH1 0x1F NOT AND DUP3 ADD SWAP1 SWAP3 MSTORE PUSH2 0xEC5 SWAP2 DUP2 ADD SWAP1 PUSH2 0x1A87 JUMP JUMPDEST PUSH1 0x1 JUMPDEST PUSH2 0xF2B JUMPI PUSH1 0x40 MLOAD PUSH3 0x461BCD PUSH1 0xE5 SHL DUP2 MSTORE PUSH1 0x20 PUSH1 0x4 DUP3 ADD MSTORE PUSH1 0x2E PUSH1 0x24 DUP3 ADD MSTORE PUSH32 0x45524331393637557067726164653A206E657720696D706C656D656E74617469 PUSH1 0x44 DUP3 ADD MSTORE PUSH14 0x6F6E206973206E6F742055555053 PUSH1 0x90 SHL PUSH1 0x64 DUP3 ADD MSTORE PUSH1 0x84 ADD PUSH2 0x675 JUMP JUMPDEST PUSH1 0x0 DUP1 MLOAD PUSH1 0x20 PUSH2 0x1BF3 DUP4 CODECOPY DUP2 MLOAD SWAP2 MSTORE DUP2 EQ PUSH2 0xF9A JUMPI PUSH1 0x40 MLOAD PUSH3 0x461BCD PUSH1 0xE5 SHL DUP2 MSTORE PUSH1 0x20 PUSH1 0x4 DUP3 ADD MSTORE PUSH1 0x29 PUSH1 0x24 DUP3 ADD MSTORE PUSH32 0x45524331393637557067726164653A20756E737570706F727465642070726F78 PUSH1 0x44 DUP3 ADD MSTORE PUSH9 0x1A58589B1955555251 PUSH1 0xBA SHL PUSH1 0x64 DUP3 ADD MSTORE PUSH1 0x84 ADD PUSH2 0x675 JUMP JUMPDEST POP PUSH2 0x604 DUP4 DUP4 DUP4 PUSH2 0x126A JUMP JUMPDEST PUSH1 0x0 PUSH2 0xBE7 DUP4 DUP4 PUSH2 0x128F JUMP JUMPDEST PUSH1 0x0 SLOAD PUSH2 0x100 SWAP1 DIV PUSH1 0xFF AND PUSH2 0x101D JUMPI PUSH1 0x40 MLOAD PUSH3 0x461BCD PUSH1 0xE5 SHL DUP2 MSTORE PUSH1 0x20 PUSH1 0x4 DUP3 ADD MSTORE PUSH1 0x2B PUSH1 0x24 DUP3 ADD MSTORE PUSH32 0x496E697469616C697A61626C653A20636F6E7472616374206973206E6F742069 PUSH1 0x44 DUP3 ADD MSTORE PUSH11 0x6E697469616C697A696E67 PUSH1 0xA8 SHL PUSH1 0x64 DUP3 ADD MSTORE PUSH1 0x84 ADD PUSH2 0x675 JUMP JUMPDEST JUMP JUMPDEST PUSH1 0x0 PUSH2 0x3FB DUP3 SLOAD SWAP1 JUMP JUMPDEST PUSH1 0x0 PUSH1 0x1 PUSH1 0x1 PUSH1 0xE0 SHL SUB NOT DUP3 AND PUSH4 0x7965DB0B PUSH1 0xE0 SHL EQ DUP1 PUSH2 0x3FB JUMPI POP PUSH4 0x1FFC9A7 PUSH1 0xE0 SHL PUSH1 0x1 PUSH1 0x1 PUSH1 0xE0 SHL SUB NOT DUP4 AND EQ PUSH2 0x3FB JUMP JUMPDEST PUSH2 0x1068 DUP3 DUP3 PUSH2 0xBEE JUMP JUMPDEST PUSH2 0x688 JUMPI PUSH2 0x1075 DUP2 PUSH2 0x12B9 JUMP JUMPDEST PUSH2 0x1080 DUP4 PUSH1 0x20 PUSH2 0x12CB JUMP JUMPDEST PUSH1 0x40 MLOAD PUSH1 0x20 ADD PUSH2 0x1091 SWAP3 SWAP2 SWAP1 PUSH2 0x1AC4 JUMP JUMPDEST PUSH1 0x40 DUP1 MLOAD PUSH1 0x1F NOT DUP2 DUP5 SUB ADD DUP2 MSTORE SWAP1 DUP3 SWAP1 MSTORE PUSH3 0x461BCD PUSH1 0xE5 SHL DUP3 MSTORE PUSH2 0x675 SWAP2 PUSH1 0x4 ADD PUSH2 0x1B39 JUMP JUMPDEST PUSH2 0x10C1 DUP3 DUP3 PUSH2 0xBEE JUMP JUMPDEST PUSH2 0x688 JUMPI PUSH1 0x0 DUP3 DUP2 MSTORE PUSH1 0x65 PUSH1 0x20 SWAP1 DUP2 MSTORE PUSH1 0x40 DUP1 DUP4 KECCAK256 PUSH1 0x1 PUSH1 0x1 PUSH1 0xA0 SHL SUB DUP6 AND DUP5 MSTORE SWAP1 SWAP2 MSTORE SWAP1 KECCAK256 DUP1 SLOAD PUSH1 0xFF NOT AND PUSH1 0x1 OR SWAP1 SSTORE PUSH2 0x10F9 CALLER SWAP1 JUMP JUMPDEST PUSH1 0x1 PUSH1 0x1 PUSH1 0xA0 SHL SUB AND DUP2 PUSH1 0x1 PUSH1 0x1 PUSH1 0xA0 SHL SUB AND DUP4 PUSH32 0x2F8788117E7EFF1D82E926EC794901D17C78024A50270940304540A733656F0D PUSH1 0x40 MLOAD PUSH1 0x40 MLOAD DUP1 SWAP2 SUB SWAP1 LOG4 POP POP JUMP JUMPDEST PUSH1 0x0 PUSH2 0xBE7 DUP4 PUSH1 0x1 PUSH1 0x1 PUSH1 0xA0 SHL SUB DUP5 AND PUSH2 0x1467 JUMP JUMPDEST PUSH2 0x115C DUP3 DUP3 PUSH2 0xBEE JUMP JUMPDEST ISZERO PUSH2 0x688 JUMPI PUSH1 0x0 DUP3 DUP2 MSTORE PUSH1 0x65 PUSH1 0x20 SWAP1 DUP2 MSTORE PUSH1 0x40 DUP1 DUP4 KECCAK256 PUSH1 0x1 PUSH1 0x1 PUSH1 0xA0 SHL SUB DUP6 AND DUP1 DUP6 MSTORE SWAP3 MSTORE DUP1 DUP4 KECCAK256 DUP1 SLOAD PUSH1 0xFF NOT AND SWAP1 SSTORE MLOAD CALLER SWAP3 DUP6 SWAP2 PUSH32 0xF6391F5C32D9C69D2A47EA670B442974B53935D1EDC7FD64EB21E047A839171B SWAP2 SWAP1 LOG4 POP POP JUMP JUMPDEST PUSH1 0x0 PUSH2 0xBE7 DUP4 PUSH1 0x1 PUSH1 0x1 PUSH1 0xA0 SHL SUB DUP5 AND PUSH2 0x14B6 JUMP JUMPDEST PUSH1 0x1 PUSH1 0x1 PUSH1 0xA0 SHL SUB DUP2 AND EXTCODESIZE PUSH2 0x123B JUMPI PUSH1 0x40 MLOAD PUSH3 0x461BCD PUSH1 0xE5 SHL DUP2 MSTORE PUSH1 0x20 PUSH1 0x4 DUP3 ADD MSTORE PUSH1 0x2D PUSH1 0x24 DUP3 ADD MSTORE PUSH32 0x455243313936373A206E657720696D706C656D656E746174696F6E206973206E PUSH1 0x44 DUP3 ADD MSTORE PUSH13 0x1BDD08184818DBDB9D1C9858DD PUSH1 0x9A SHL PUSH1 0x64 DUP3 ADD MSTORE PUSH1 0x84 ADD PUSH2 0x675 JUMP JUMPDEST PUSH1 0x0 DUP1 MLOAD PUSH1 0x20 PUSH2 0x1BF3 DUP4 CODECOPY DUP2 MLOAD SWAP2 MSTORE DUP1 SLOAD PUSH1 0x1 PUSH1 0x1 PUSH1 0xA0 SHL SUB NOT AND PUSH1 0x1 PUSH1 0x1 PUSH1 0xA0 SHL SUB SWAP3 SWAP1 SWAP3 AND SWAP2 SWAP1 SWAP2 OR SWAP1 SSTORE JUMP JUMPDEST PUSH2 0x1273 DUP4 PUSH2 0x15A9 JUMP JUMPDEST PUSH1 0x0 DUP3 MLOAD GT DUP1 PUSH2 0x1280 JUMPI POP DUP1 JUMPDEST ISZERO PUSH2 0x604 JUMPI PUSH2 0xACF DUP4 DUP4 PUSH2 0x15E9 JUMP JUMPDEST PUSH1 0x0 DUP3 PUSH1 0x0 ADD DUP3 DUP2 SLOAD DUP2 LT PUSH2 0x12A6 JUMPI PUSH2 0x12A6 PUSH2 0x1A42 JUMP JUMPDEST SWAP1 PUSH1 0x0 MSTORE PUSH1 0x20 PUSH1 0x0 KECCAK256 ADD SLOAD SWAP1 POP SWAP3 SWAP2 POP POP JUMP JUMPDEST PUSH1 0x60 PUSH2 0x3FB PUSH1 0x1 PUSH1 0x1 PUSH1 0xA0 SHL SUB DUP4 AND PUSH1 0x14 JUMPDEST PUSH1 0x60 PUSH1 0x0 PUSH2 0x12DA DUP4 PUSH1 0x2 PUSH2 0x1B6C JUMP JUMPDEST PUSH2 0x12E5 SWAP1 PUSH1 0x2 PUSH2 0x1B83 JUMP JUMPDEST PUSH8 0xFFFFFFFFFFFFFFFF DUP2 GT ISZERO PUSH2 0x12FD JUMPI PUSH2 0x12FD PUSH2 0x17D1 JUMP JUMPDEST PUSH1 0x40 MLOAD SWAP1 DUP1 DUP3 MSTORE DUP1 PUSH1 0x1F ADD PUSH1 0x1F NOT AND PUSH1 0x20 ADD DUP3 ADD PUSH1 0x40 MSTORE DUP1 ISZERO PUSH2 0x1327 JUMPI PUSH1 0x20 DUP3 ADD DUP2 DUP1 CALLDATASIZE DUP4 CALLDATACOPY ADD SWAP1 POP JUMPDEST POP SWAP1 POP PUSH1 0x3 PUSH1 0xFC SHL DUP2 PUSH1 0x0 DUP2 MLOAD DUP2 LT PUSH2 0x1342 JUMPI PUSH2 0x1342 PUSH2 0x1A42 JUMP JUMPDEST PUSH1 0x20 ADD ADD SWAP1 PUSH1 0x1 PUSH1 0x1 PUSH1 0xF8 SHL SUB NOT AND SWAP1 DUP2 PUSH1 0x0 BYTE SWAP1 MSTORE8 POP PUSH1 0xF PUSH1 0xFB SHL DUP2 PUSH1 0x1 DUP2 MLOAD DUP2 LT PUSH2 0x1371 JUMPI PUSH2 0x1371 PUSH2 0x1A42 JUMP JUMPDEST PUSH1 0x20 ADD ADD SWAP1 PUSH1 0x1 PUSH1 0x1 PUSH1 0xF8 SHL SUB NOT AND SWAP1 DUP2 PUSH1 0x0 BYTE SWAP1 MSTORE8 POP PUSH1 0x0 PUSH2 0x1395 DUP5 PUSH1 0x2 PUSH2 0x1B6C JUMP JUMPDEST PUSH2 0x13A0 SWAP1 PUSH1 0x1 PUSH2 0x1B83 JUMP JUMPDEST SWAP1 POP JUMPDEST PUSH1 0x1 DUP2 GT ISZERO PUSH2 0x1418 JUMPI PUSH16 0x181899199A1A9B1B9C1CB0B131B232B3 PUSH1 0x81 SHL DUP6 PUSH1 0xF AND PUSH1 0x10 DUP2 LT PUSH2 0x13D4 JUMPI PUSH2 0x13D4 PUSH2 0x1A42 JUMP JUMPDEST BYTE PUSH1 0xF8 SHL DUP3 DUP3 DUP2 MLOAD DUP2 LT PUSH2 0x13EA JUMPI PUSH2 0x13EA PUSH2 0x1A42 JUMP JUMPDEST PUSH1 0x20 ADD ADD SWAP1 PUSH1 0x1 PUSH1 0x1 PUSH1 0xF8 SHL SUB NOT AND SWAP1 DUP2 PUSH1 0x0 BYTE SWAP1 MSTORE8 POP PUSH1 0x4 SWAP5 SWAP1 SWAP5 SHR SWAP4 PUSH2 0x1411 DUP2 PUSH2 0x1B96 JUMP JUMPDEST SWAP1 POP PUSH2 0x13A3 JUMP JUMPDEST POP DUP4 ISZERO PUSH2 0xBE7 JUMPI PUSH1 0x40 MLOAD PUSH3 0x461BCD PUSH1 0xE5 SHL DUP2 MSTORE PUSH1 0x20 PUSH1 0x4 DUP3 ADD DUP2 SWAP1 MSTORE PUSH1 0x24 DUP3 ADD MSTORE PUSH32 0x537472696E67733A20686578206C656E67746820696E73756666696369656E74 PUSH1 0x44 DUP3 ADD MSTORE PUSH1 0x64 ADD PUSH2 0x675 JUMP JUMPDEST PUSH1 0x0 DUP2 DUP2 MSTORE PUSH1 0x1 DUP4 ADD PUSH1 0x20 MSTORE PUSH1 0x40 DUP2 KECCAK256 SLOAD PUSH2 0x14AE JUMPI POP DUP2 SLOAD PUSH1 0x1 DUP2 DUP2 ADD DUP5 SSTORE PUSH1 0x0 DUP5 DUP2 MSTORE PUSH1 0x20 DUP1 DUP3 KECCAK256 SWAP1 SWAP4 ADD DUP5 SWAP1 SSTORE DUP5 SLOAD DUP5 DUP3 MSTORE DUP3 DUP7 ADD SWAP1 SWAP4 MSTORE PUSH1 0x40 SWAP1 KECCAK256 SWAP2 SWAP1 SWAP2 SSTORE PUSH2 0x3FB JUMP JUMPDEST POP PUSH1 0x0 PUSH2 0x3FB JUMP JUMPDEST PUSH1 0x0 DUP2 DUP2 MSTORE PUSH1 0x1 DUP4 ADD PUSH1 0x20 MSTORE PUSH1 0x40 DUP2 KECCAK256 SLOAD DUP1 ISZERO PUSH2 0x159F JUMPI PUSH1 0x0 PUSH2 0x14DA PUSH1 0x1 DUP4 PUSH2 0x1BAD JUMP JUMPDEST DUP6 SLOAD SWAP1 SWAP2 POP PUSH1 0x0 SWAP1 PUSH2 0x14EE SWAP1 PUSH1 0x1 SWAP1 PUSH2 0x1BAD JUMP JUMPDEST SWAP1 POP DUP2 DUP2 EQ PUSH2 0x1553 JUMPI PUSH1 0x0 DUP7 PUSH1 0x0 ADD DUP3 DUP2 SLOAD DUP2 LT PUSH2 0x150E JUMPI PUSH2 0x150E PUSH2 0x1A42 JUMP JUMPDEST SWAP1 PUSH1 0x0 MSTORE PUSH1 0x20 PUSH1 0x0 KECCAK256 ADD SLOAD SWAP1 POP DUP1 DUP8 PUSH1 0x0 ADD DUP5 DUP2 SLOAD DUP2 LT PUSH2 0x1531 JUMPI PUSH2 0x1531 PUSH2 0x1A42 JUMP JUMPDEST PUSH1 0x0 SWAP2 DUP3 MSTORE PUSH1 0x20 DUP1 DUP4 KECCAK256 SWAP1 SWAP2 ADD SWAP3 SWAP1 SWAP3 SSTORE SWAP2 DUP3 MSTORE PUSH1 0x1 DUP9 ADD SWAP1 MSTORE PUSH1 0x40 SWAP1 KECCAK256 DUP4 SWAP1 SSTORE JUMPDEST DUP6 SLOAD DUP7 SWAP1 DUP1 PUSH2 0x1564 JUMPI PUSH2 0x1564 PUSH2 0x1BC0 JUMP JUMPDEST PUSH1 0x1 SWAP1 SUB DUP2 DUP2 SWAP1 PUSH1 0x0 MSTORE PUSH1 0x20 PUSH1 0x0 KECCAK256 ADD PUSH1 0x0 SWAP1 SSTORE SWAP1 SSTORE DUP6 PUSH1 0x1 ADD PUSH1 0x0 DUP7 DUP2 MSTORE PUSH1 0x20 ADD SWAP1 DUP2 MSTORE PUSH1 0x20 ADD PUSH1 0x0 KECCAK256 PUSH1 0x0 SWAP1 SSTORE PUSH1 0x1 SWAP4 POP POP POP POP PUSH2 0x3FB JUMP JUMPDEST PUSH1 0x0 SWAP2 POP POP PUSH2 0x3FB JUMP JUMPDEST PUSH2 0x15B2 DUP2 PUSH2 0x11CE JUMP JUMPDEST PUSH1 0x40 MLOAD PUSH1 0x1 PUSH1 0x1 PUSH1 0xA0 SHL SUB DUP3 AND SWAP1 PUSH32 0xBC7CD75A20EE27FD9ADEBAB32041F755214DBC6BFFA90CC0225B39DA2E5C2D3B SWAP1 PUSH1 0x0 SWAP1 LOG2 POP JUMP JUMPDEST PUSH1 0x60 PUSH2 0xBE7 DUP4 DUP4 PUSH1 0x40 MLOAD DUP1 PUSH1 0x60 ADD PUSH1 0x40 MSTORE DUP1 PUSH1 0x27 DUP2 MSTORE PUSH1 0x20 ADD PUSH2 0x1C13 PUSH1 0x27 SWAP2 CODECOPY PUSH1 0x60 PUSH1 0x0 DUP1 DUP6 PUSH1 0x1 PUSH1 0x1 PUSH1 0xA0 SHL SUB AND DUP6 PUSH1 0x40 MLOAD PUSH2 0x1626 SWAP2 SWAP1 PUSH2 0x1BD6 JUMP JUMPDEST PUSH1 0x0 PUSH1 0x40 MLOAD DUP1 DUP4 SUB DUP2 DUP6 GAS DELEGATECALL SWAP2 POP POP RETURNDATASIZE DUP1 PUSH1 0x0 DUP2 EQ PUSH2 0x1661 JUMPI PUSH1 0x40 MLOAD SWAP2 POP PUSH1 0x1F NOT PUSH1 0x3F RETURNDATASIZE ADD AND DUP3 ADD PUSH1 0x40 MSTORE RETURNDATASIZE DUP3 MSTORE RETURNDATASIZE PUSH1 0x0 PUSH1 0x20 DUP5 ADD RETURNDATACOPY PUSH2 0x1666 JUMP JUMPDEST PUSH1 0x60 SWAP2 POP JUMPDEST POP SWAP2 POP SWAP2 POP PUSH2 0x1677 DUP7 DUP4 DUP4 DUP8 PUSH2 0x1681 JUMP JUMPDEST SWAP7 SWAP6 POP POP POP POP POP POP JUMP JUMPDEST PUSH1 0x60 DUP4 ISZERO PUSH2 0x16F0 JUMPI DUP3 MLOAD PUSH1 0x0 SUB PUSH2 0x16E9 JUMPI PUSH1 0x1 PUSH1 0x1 PUSH1 0xA0 SHL SUB DUP6 AND EXTCODESIZE PUSH2 0x16E9 JUMPI PUSH1 0x40 MLOAD PUSH3 0x461BCD PUSH1 0xE5 SHL DUP2 MSTORE PUSH1 0x20 PUSH1 0x4 DUP3 ADD MSTORE PUSH1 0x1D PUSH1 0x24 DUP3 ADD MSTORE PUSH32 0x416464726573733A2063616C6C20746F206E6F6E2D636F6E7472616374000000 PUSH1 0x44 DUP3 ADD MSTORE PUSH1 0x64 ADD PUSH2 0x675 JUMP JUMPDEST POP DUP2 PUSH2 0x16FA JUMP JUMPDEST PUSH2 0x16FA DUP4 DUP4 PUSH2 0x1702 JUMP JUMPDEST SWAP5 SWAP4 POP POP POP POP JUMP JUMPDEST DUP2 MLOAD ISZERO PUSH2 0x1712 JUMPI DUP2 MLOAD DUP1 DUP4 PUSH1 0x20 ADD REVERT JUMPDEST DUP1 PUSH1 0x40 MLOAD PUSH3 0x461BCD PUSH1 0xE5 SHL DUP2 MSTORE PUSH1 0x4 ADD PUSH2 0x675 SWAP2 SWAP1 PUSH2 0x1B39 JUMP JUMPDEST PUSH1 0x0 PUSH1 0x20 DUP3 DUP5 SUB SLT ISZERO PUSH2 0x173E JUMPI PUSH1 0x0 DUP1 REVERT JUMPDEST DUP2 CALLDATALOAD PUSH1 0x1 PUSH1 0x1 PUSH1 0xE0 SHL SUB NOT DUP2 AND DUP2 EQ PUSH2 0xBE7 JUMPI PUSH1 0x0 DUP1 REVERT JUMPDEST PUSH1 0x1 PUSH1 0x1 PUSH1 0xA0 SHL SUB DUP2 AND DUP2 EQ PUSH2 0x768 JUMPI PUSH1 0x0 DUP1 REVERT JUMPDEST PUSH1 0x0 PUSH1 0x20 DUP3 DUP5 SUB SLT ISZERO PUSH2 0x177D JUMPI PUSH1 0x0 DUP1 REVERT JUMPDEST DUP2 CALLDATALOAD PUSH2 0xBE7 DUP2 PUSH2 0x1756 JUMP JUMPDEST PUSH1 0x0 PUSH1 0x20 DUP3 DUP5 SUB SLT ISZERO PUSH2 0x179A JUMPI PUSH1 0x0 DUP1 REVERT JUMPDEST POP CALLDATALOAD SWAP2 SWAP1 POP JUMP JUMPDEST PUSH1 0x0 DUP1 PUSH1 0x40 DUP4 DUP6 SUB SLT ISZERO PUSH2 0x17B4 JUMPI PUSH1 0x0 DUP1 REVERT JUMPDEST DUP3 CALLDATALOAD SWAP2 POP PUSH1 0x20 DUP4 ADD CALLDATALOAD PUSH2 0x17C6 DUP2 PUSH2 0x1756 JUMP JUMPDEST DUP1 SWAP2 POP POP SWAP3 POP SWAP3 SWAP1 POP JUMP JUMPDEST PUSH4 0x4E487B71 PUSH1 0xE0 SHL PUSH1 0x0 MSTORE PUSH1 0x41 PUSH1 0x4 MSTORE PUSH1 0x24 PUSH1 0x0 REVERT JUMPDEST PUSH1 0x0 DUP1 PUSH1 0x40 DUP4 DUP6 SUB SLT ISZERO PUSH2 0x17FA JUMPI PUSH1 0x0 DUP1 REVERT JUMPDEST DUP3 CALLDATALOAD PUSH2 0x1805 DUP2 PUSH2 0x1756 JUMP JUMPDEST SWAP2 POP PUSH1 0x20 DUP4 ADD CALLDATALOAD PUSH8 0xFFFFFFFFFFFFFFFF DUP1 DUP3 GT ISZERO PUSH2 0x1822 JUMPI PUSH1 0x0 DUP1 REVERT JUMPDEST DUP2 DUP6 ADD SWAP2 POP DUP6 PUSH1 0x1F DUP4 ADD SLT PUSH2 0x1836 JUMPI PUSH1 0x0 DUP1 REVERT JUMPDEST DUP2 CALLDATALOAD DUP2 DUP2 GT ISZERO PUSH2 0x1848 JUMPI PUSH2 0x1848 PUSH2 0x17D1 JUMP JUMPDEST PUSH1 0x40 MLOAD PUSH1 0x1F DUP3 ADD PUSH1 0x1F NOT SWAP1 DUP2 AND PUSH1 0x3F ADD AND DUP2 ADD SWAP1 DUP4 DUP3 GT DUP2 DUP4 LT OR ISZERO PUSH2 0x1870 JUMPI PUSH2 0x1870 PUSH2 0x17D1 JUMP JUMPDEST DUP2 PUSH1 0x40 MSTORE DUP3 DUP2 MSTORE DUP9 PUSH1 0x20 DUP5 DUP8 ADD ADD GT ISZERO PUSH2 0x1889 JUMPI PUSH1 0x0 DUP1 REVERT JUMPDEST DUP3 PUSH1 0x20 DUP7 ADD PUSH1 0x20 DUP4 ADD CALLDATACOPY PUSH1 0x0 PUSH1 0x20 DUP5 DUP4 ADD ADD MSTORE DUP1 SWAP6 POP POP POP POP POP POP SWAP3 POP SWAP3 SWAP1 POP JUMP JUMPDEST PUSH1 0x0 DUP1 PUSH1 0x20 DUP4 DUP6 SUB SLT ISZERO PUSH2 0x18BE JUMPI PUSH1 0x0 DUP1 REVERT JUMPDEST DUP3 CALLDATALOAD PUSH8 0xFFFFFFFFFFFFFFFF DUP1 DUP3 GT ISZERO PUSH2 0x18D6 JUMPI PUSH1 0x0 DUP1 REVERT JUMPDEST DUP2 DUP6 ADD SWAP2 POP DUP6 PUSH1 0x1F DUP4 ADD SLT PUSH2 0x18EA JUMPI PUSH1 0x0 DUP1 REVERT JUMPDEST DUP2 CALLDATALOAD DUP2 DUP2 GT ISZERO PUSH2 0x18F9 JUMPI PUSH1 0x0 DUP1 REVERT JUMPDEST DUP7 PUSH1 0x20 DUP3 PUSH1 0x5 SHL DUP6 ADD ADD GT ISZERO PUSH2 0x190E JUMPI PUSH1 0x0 DUP1 REVERT JUMPDEST PUSH1 0x20 SWAP3 SWAP1 SWAP3 ADD SWAP7 SWAP2 SWAP6 POP SWAP1 SWAP4 POP POP POP POP JUMP JUMPDEST PUSH1 0x0 DUP1 PUSH1 0x40 DUP4 DUP6 SUB SLT ISZERO PUSH2 0x1933 JUMPI PUSH1 0x0 DUP1 REVERT JUMPDEST POP POP DUP1 CALLDATALOAD SWAP3 PUSH1 0x20 SWAP1 SWAP2 ADD CALLDATALOAD SWAP2 POP JUMP JUMPDEST PUSH1 0x0 DUP1 PUSH1 0x0 PUSH1 0x60 DUP5 DUP7 SUB SLT ISZERO PUSH2 0x1957 JUMPI PUSH1 0x0 DUP1 REVERT JUMPDEST DUP4 CALLDATALOAD PUSH2 0x1962 DUP2 PUSH2 0x1756 JUMP JUMPDEST SWAP3 POP PUSH1 0x20 DUP5 ADD CALLDATALOAD PUSH2 0x1972 DUP2 PUSH2 0x1756 JUMP JUMPDEST SWAP2 POP PUSH1 0x40 DUP5 ADD CALLDATALOAD PUSH2 0x1982 DUP2 PUSH2 0x1756 JUMP JUMPDEST DUP1 SWAP2 POP POP SWAP3 POP SWAP3 POP SWAP3 JUMP JUMPDEST PUSH1 0x0 PUSH1 0x20 DUP3 DUP5 SUB SLT ISZERO PUSH2 0x199F JUMPI PUSH1 0x0 DUP1 REVERT JUMPDEST DUP2 MLOAD PUSH2 0xBE7 DUP2 PUSH2 0x1756 JUMP JUMPDEST PUSH1 0x20 DUP1 DUP3 MSTORE PUSH1 0x2C SWAP1 DUP3 ADD MSTORE PUSH32 0x46756E6374696F6E206D7573742062652063616C6C6564207468726F75676820 PUSH1 0x40 DUP3 ADD MSTORE PUSH12 0x19195B1959D85D1958D85B1B PUSH1 0xA2 SHL PUSH1 0x60 DUP3 ADD MSTORE PUSH1 0x80 ADD SWAP1 JUMP JUMPDEST PUSH1 0x20 DUP1 DUP3 MSTORE PUSH1 0x2C SWAP1 DUP3 ADD MSTORE PUSH32 0x46756E6374696F6E206D7573742062652063616C6C6564207468726F75676820 PUSH1 0x40 DUP3 ADD MSTORE PUSH12 0x6163746976652070726F7879 PUSH1 0xA0 SHL PUSH1 0x60 DUP3 ADD MSTORE PUSH1 0x80 ADD SWAP1 JUMP JUMPDEST PUSH4 0x4E487B71 PUSH1 0xE0 SHL PUSH1 0x0 MSTORE PUSH1 0x32 PUSH1 0x4 MSTORE PUSH1 0x24 PUSH1 0x0 REVERT JUMPDEST PUSH4 0x4E487B71 PUSH1 0xE0 SHL PUSH1 0x0 MSTORE PUSH1 0x11 PUSH1 0x4 MSTORE PUSH1 0x24 PUSH1 0x0 REVERT JUMPDEST PUSH1 0x0 PUSH1 0x1 DUP3 ADD PUSH2 0x1A80 JUMPI PUSH2 0x1A80 PUSH2 0x1A58 JUMP JUMPDEST POP PUSH1 0x1 ADD SWAP1 JUMP JUMPDEST PUSH1 0x0 PUSH1 0x20 DUP3 DUP5 SUB SLT ISZERO PUSH2 0x1A99 JUMPI PUSH1 0x0 DUP1 REVERT JUMPDEST POP MLOAD SWAP2 SWAP1 POP JUMP JUMPDEST PUSH1 0x0 JUMPDEST DUP4 DUP2 LT ISZERO PUSH2 0x1ABB JUMPI DUP2 DUP2 ADD MLOAD DUP4 DUP3 ADD MSTORE PUSH1 0x20 ADD PUSH2 0x1AA3 JUMP JUMPDEST POP POP PUSH1 0x0 SWAP2 ADD MSTORE JUMP JUMPDEST PUSH32 0x416363657373436F6E74726F6C3A206163636F756E7420000000000000000000 DUP2 MSTORE PUSH1 0x0 DUP4 MLOAD PUSH2 0x1AFC DUP2 PUSH1 0x17 DUP6 ADD PUSH1 0x20 DUP9 ADD PUSH2 0x1AA0 JUMP JUMPDEST PUSH17 0x1034B99036B4B9B9B4B733903937B6329 PUSH1 0x7D SHL PUSH1 0x17 SWAP2 DUP5 ADD SWAP2 DUP3 ADD MSTORE DUP4 MLOAD PUSH2 0x1B2D DUP2 PUSH1 0x28 DUP5 ADD PUSH1 0x20 DUP9 ADD PUSH2 0x1AA0 JUMP JUMPDEST ADD PUSH1 0x28 ADD SWAP5 SWAP4 POP POP POP POP JUMP JUMPDEST PUSH1 0x20 DUP2 MSTORE PUSH1 0x0 DUP3 MLOAD DUP1 PUSH1 0x20 DUP5 ADD MSTORE PUSH2 0x1B58 DUP2 PUSH1 0x40 DUP6 ADD PUSH1 0x20 DUP8 ADD PUSH2 0x1AA0 JUMP JUMPDEST PUSH1 0x1F ADD PUSH1 0x1F NOT AND SWAP2 SWAP1 SWAP2 ADD PUSH1 0x40 ADD SWAP3 SWAP2 POP POP JUMP JUMPDEST DUP1 DUP3 MUL DUP2 ISZERO DUP3 DUP3 DIV DUP5 EQ OR PUSH2 0x3FB JUMPI PUSH2 0x3FB PUSH2 0x1A58 JUMP JUMPDEST DUP1 DUP3 ADD DUP1 DUP3 GT ISZERO PUSH2 0x3FB JUMPI PUSH2 0x3FB PUSH2 0x1A58 JUMP JUMPDEST PUSH1 0x0 DUP2 PUSH2 0x1BA5 JUMPI PUSH2 0x1BA5 PUSH2 0x1A58 JUMP JUMPDEST POP PUSH1 0x0 NOT ADD SWAP1 JUMP JUMPDEST DUP2 DUP2 SUB DUP2 DUP2 GT ISZERO PUSH2 0x3FB JUMPI PUSH2 0x3FB PUSH2 0x1A58 JUMP JUMPDEST PUSH4 0x4E487B71 PUSH1 0xE0 SHL PUSH1 0x0 MSTORE PUSH1 0x31 PUSH1 0x4 MSTORE PUSH1 0x24 PUSH1 0x0 REVERT JUMPDEST PUSH1 0x0 DUP3 MLOAD PUSH2 0x1BE8 DUP2 DUP5 PUSH1 0x20 DUP8 ADD PUSH2 0x1AA0 JUMP JUMPDEST SWAP2 SWAP1 SWAP2 ADD SWAP3 SWAP2 POP POP JUMP INVALID CALLDATASIZE ADDMOD SWAP5 LOG1 EXTCODESIZE LOG1 LOG3 0x21 MOD PUSH8 0xC828492DB98DCA3E KECCAK256 PUSH23 0xCC3735A920A3CA505D382BBC416464726573733A206C6F PUSH24 0x2D6C6576656C2064656C65676174652063616C6C20666169 PUSH13 0x6564A26469706673582212202C SUB MULMOD SLOAD GASPRICE 0x2D DUP5 0xDD 0x26 0xCD MULMOD DUP9 PUSH26 0x18D4B72DA3AAA4E17FB534E5E161334CE6E3F964736F6C634300 ADDMOD SGT STOP CALLER "},"methodIdentifiers":{"DEFAULT_ADMIN_ROLE()":"a217fddf","REGISTRAR_ROLE()":"f68e9553","UPGRADE_ROLE()":"b908afa8","addAddressesToAllowlist(address[])":"7f17caa7","addWalletToAllowlist(address)":"0488d974","getRoleAdmin(bytes32)":"248a9ca3","getRoleMember(bytes32,uint256)":"9010d07c","getRoleMemberCount(bytes32)":"ca15c873","grantRole(bytes32,address)":"2f2ff15d","hasRole(bytes32,address)":"91d14854","initialize(address,address,address)":"c0c53b8b","isAllowlisted(address)":"05a3b809","proxiableUUID()":"52d1902d","removeAddressesFromAllowlist(address[])":"6caacbe7","removeWalletFromAllowlist(address)":"6aa70096","renounceRole(bytes32,address)":"36568abe","revokeRole(bytes32,address)":"d547741f","supportsInterface(bytes4)":"01ffc9a7","upgradeTo(address)":"3659cfe6","upgradeToAndCall(address,bytes)":"4f1ef286"}}}}}