{
  "_format": "hh-sol-artifact-1",
  "contractName": "RunnerSkin",
  "sourceName": "contracts/RunnerSkin.sol",
  "abi": [
    {
      "inputs": [
        {
          "internalType": "address",
          "name": "owner",
          "type": "address"
        },
        {
          "internalType": "string",
          "name": "name",
          "type": "string"
        },
        {
          "internalType": "string",
          "name": "symbol",
          "type": "string"
        },
        {
          "internalType": "string",
          "name": "baseURI",
          "type": "string"
        },
        {
          "internalType": "string",
          "name": "contractURI",
          "type": "string"
        },
        {
          "internalType": "address",
          "name": "operatorAllowlist",
          "type": "address"
        },
        {
          "internalType": "address",
          "name": "receiver",
          "type": "address"
        },
        {
          "internalType": "uint96",
          "name": "feeNumerator",
          "type": "uint96"
        }
      ],
      "stateMutability": "nonpayable",
      "type": "constructor"
    },
    {
      "inputs": [],
      "name": "AllowlistDoesNotImplementIOperatorAllowlist",
      "type": "error"
    },
    {
      "inputs": [
        {
          "internalType": "address",
          "name": "target",
          "type": "address"
        }
      ],
      "name": "ApproveTargetNotInAllowlist",
      "type": "error"
    },
    {
      "inputs": [
        {
          "internalType": "address",
          "name": "approver",
          "type": "address"
        }
      ],
      "name": "ApproverNotInAllowlist",
      "type": "error"
    },
    {
      "inputs": [
        {
          "internalType": "address",
          "name": "caller",
          "type": "address"
        }
      ],
      "name": "CallerNotInAllowlist",
      "type": "error"
    },
    {
      "inputs": [
        {
          "internalType": "uint256",
          "name": "tokenId",
          "type": "uint256"
        }
      ],
      "name": "IImmutableERC721IDAboveThreshold",
      "type": "error"
    },
    {
      "inputs": [
        {
          "internalType": "uint256",
          "name": "tokenId",
          "type": "uint256"
        },
        {
          "internalType": "address",
          "name": "currentOwner",
          "type": "address"
        }
      ],
      "name": "IImmutableERC721MismatchedTokenOwner",
      "type": "error"
    },
    {
      "inputs": [],
      "name": "IImmutableERC721MismatchedTransferLengths",
      "type": "error"
    },
    {
      "inputs": [
        {
          "internalType": "uint256",
          "name": "tokenId",
          "type": "uint256"
        }
      ],
      "name": "IImmutableERC721NotOwnerOrOperator",
      "type": "error"
    },
    {
      "inputs": [],
      "name": "IImmutableERC721SendingToZerothAddress",
      "type": "error"
    },
    {
      "inputs": [
        {
          "internalType": "uint256",
          "name": "tokenId",
          "type": "uint256"
        }
      ],
      "name": "IImmutableERC721TokenAlreadyBurned",
      "type": "error"
    },
    {
      "inputs": [],
      "name": "InvalidShortString",
      "type": "error"
    },
    {
      "inputs": [],
      "name": "InvalidSignature",
      "type": "error"
    },
    {
      "inputs": [],
      "name": "PermitExpired",
      "type": "error"
    },
    {
      "inputs": [],
      "name": "SignerCannotBeZerothAddress",
      "type": "error"
    },
    {
      "inputs": [
        {
          "internalType": "string",
          "name": "str",
          "type": "string"
        }
      ],
      "name": "StringTooLong",
      "type": "error"
    },
    {
      "inputs": [
        {
          "internalType": "address",
          "name": "from",
          "type": "address"
        }
      ],
      "name": "TransferFromNotInAllowlist",
      "type": "error"
    },
    {
      "inputs": [
        {
          "internalType": "address",
          "name": "to",
          "type": "address"
        }
      ],
      "name": "TransferToNotInAllowlist",
      "type": "error"
    },
    {
      "anonymous": false,
      "inputs": [
        {
          "indexed": true,
          "internalType": "address",
          "name": "owner",
          "type": "address"
        },
        {
          "indexed": true,
          "internalType": "address",
          "name": "approved",
          "type": "address"
        },
        {
          "indexed": true,
          "internalType": "uint256",
          "name": "tokenId",
          "type": "uint256"
        }
      ],
      "name": "Approval",
      "type": "event"
    },
    {
      "anonymous": false,
      "inputs": [
        {
          "indexed": true,
          "internalType": "address",
          "name": "owner",
          "type": "address"
        },
        {
          "indexed": true,
          "internalType": "address",
          "name": "operator",
          "type": "address"
        },
        {
          "indexed": false,
          "internalType": "bool",
          "name": "approved",
          "type": "bool"
        }
      ],
      "name": "ApprovalForAll",
      "type": "event"
    },
    {
      "anonymous": false,
      "inputs": [],
      "name": "EIP712DomainChanged",
      "type": "event"
    },
    {
      "anonymous": false,
      "inputs": [
        {
          "indexed": false,
          "internalType": "address",
          "name": "oldRegistry",
          "type": "address"
        },
        {
          "indexed": false,
          "internalType": "address",
          "name": "newRegistry",
          "type": "address"
        }
      ],
      "name": "OperatorAllowlistRegistryUpdated",
      "type": "event"
    },
    {
      "anonymous": false,
      "inputs": [
        {
          "indexed": true,
          "internalType": "bytes32",
          "name": "role",
          "type": "bytes32"
        },
        {
          "indexed": true,
          "internalType": "bytes32",
          "name": "previousAdminRole",
          "type": "bytes32"
        },
        {
          "indexed": true,
          "internalType": "bytes32",
          "name": "newAdminRole",
          "type": "bytes32"
        }
      ],
      "name": "RoleAdminChanged",
      "type": "event"
    },
    {
      "anonymous": false,
      "inputs": [
        {
          "indexed": true,
          "internalType": "bytes32",
          "name": "role",
          "type": "bytes32"
        },
        {
          "indexed": true,
          "internalType": "address",
          "name": "account",
          "type": "address"
        },
        {
          "indexed": true,
          "internalType": "address",
          "name": "sender",
          "type": "address"
        }
      ],
      "name": "RoleGranted",
      "type": "event"
    },
    {
      "anonymous": false,
      "inputs": [
        {
          "indexed": true,
          "internalType": "bytes32",
          "name": "role",
          "type": "bytes32"
        },
        {
          "indexed": true,
          "internalType": "address",
          "name": "account",
          "type": "address"
        },
        {
          "indexed": true,
          "internalType": "address",
          "name": "sender",
          "type": "address"
        }
      ],
      "name": "RoleRevoked",
      "type": "event"
    },
    {
      "anonymous": false,
      "inputs": [
        {
          "indexed": true,
          "internalType": "address",
          "name": "from",
          "type": "address"
        },
        {
          "indexed": true,
          "internalType": "address",
          "name": "to",
          "type": "address"
        },
        {
          "indexed": true,
          "internalType": "uint256",
          "name": "tokenId",
          "type": "uint256"
        }
      ],
      "name": "Transfer",
      "type": "event"
    },
    {
      "inputs": [],
      "name": "DEFAULT_ADMIN_ROLE",
      "outputs": [
        {
          "internalType": "bytes32",
          "name": "",
          "type": "bytes32"
        }
      ],
      "stateMutability": "view",
      "type": "function"
    },
    {
      "inputs": [],
      "name": "DOMAIN_SEPARATOR",
      "outputs": [
        {
          "internalType": "bytes32",
          "name": "",
          "type": "bytes32"
        }
      ],
      "stateMutability": "view",
      "type": "function"
    },
    {
      "inputs": [],
      "name": "MINTER_ROLE",
      "outputs": [
        {
          "internalType": "bytes32",
          "name": "",
          "type": "bytes32"
        }
      ],
      "stateMutability": "view",
      "type": "function"
    },
    {
      "inputs": [
        {
          "internalType": "address",
          "name": "to",
          "type": "address"
        },
        {
          "internalType": "uint256",
          "name": "tokenId",
          "type": "uint256"
        }
      ],
      "name": "approve",
      "outputs": [],
      "stateMutability": "nonpayable",
      "type": "function"
    },
    {
      "inputs": [
        {
          "internalType": "address",
          "name": "owner",
          "type": "address"
        }
      ],
      "name": "balanceOf",
      "outputs": [
        {
          "internalType": "uint256",
          "name": "",
          "type": "uint256"
        }
      ],
      "stateMutability": "view",
      "type": "function"
    },
    {
      "inputs": [],
      "name": "baseURI",
      "outputs": [
        {
          "internalType": "string",
          "name": "",
          "type": "string"
        }
      ],
      "stateMutability": "view",
      "type": "function"
    },
    {
      "inputs": [
        {
          "internalType": "uint256",
          "name": "tokenId",
          "type": "uint256"
        }
      ],
      "name": "burn",
      "outputs": [],
      "stateMutability": "nonpayable",
      "type": "function"
    },
    {
      "inputs": [
        {
          "internalType": "uint256[]",
          "name": "tokenIDs",
          "type": "uint256[]"
        }
      ],
      "name": "burnBatch",
      "outputs": [],
      "stateMutability": "nonpayable",
      "type": "function"
    },
    {
      "inputs": [],
      "name": "contractURI",
      "outputs": [
        {
          "internalType": "string",
          "name": "",
          "type": "string"
        }
      ],
      "stateMutability": "view",
      "type": "function"
    },
    {
      "inputs": [],
      "name": "eip712Domain",
      "outputs": [
        {
          "internalType": "bytes1",
          "name": "fields",
          "type": "bytes1"
        },
        {
          "internalType": "string",
          "name": "name",
          "type": "string"
        },
        {
          "internalType": "string",
          "name": "version",
          "type": "string"
        },
        {
          "internalType": "uint256",
          "name": "chainId",
          "type": "uint256"
        },
        {
          "internalType": "address",
          "name": "verifyingContract",
          "type": "address"
        },
        {
          "internalType": "bytes32",
          "name": "salt",
          "type": "bytes32"
        },
        {
          "internalType": "uint256[]",
          "name": "extensions",
          "type": "uint256[]"
        }
      ],
      "stateMutability": "view",
      "type": "function"
    },
    {
      "inputs": [
        {
          "internalType": "uint256",
          "name": "tokenId",
          "type": "uint256"
        }
      ],
      "name": "exists",
      "outputs": [
        {
          "internalType": "bool",
          "name": "",
          "type": "bool"
        }
      ],
      "stateMutability": "view",
      "type": "function"
    },
    {
      "inputs": [],
      "name": "getAdmins",
      "outputs": [
        {
          "internalType": "address[]",
          "name": "",
          "type": "address[]"
        }
      ],
      "stateMutability": "view",
      "type": "function"
    },
    {
      "inputs": [
        {
          "internalType": "uint256",
          "name": "tokenId",
          "type": "uint256"
        }
      ],
      "name": "getApproved",
      "outputs": [
        {
          "internalType": "address",
          "name": "",
          "type": "address"
        }
      ],
      "stateMutability": "view",
      "type": "function"
    },
    {
      "inputs": [
        {
          "internalType": "bytes32",
          "name": "role",
          "type": "bytes32"
        }
      ],
      "name": "getRoleAdmin",
      "outputs": [
        {
          "internalType": "bytes32",
          "name": "",
          "type": "bytes32"
        }
      ],
      "stateMutability": "view",
      "type": "function"
    },
    {
      "inputs": [
        {
          "internalType": "bytes32",
          "name": "role",
          "type": "bytes32"
        },
        {
          "internalType": "uint256",
          "name": "index",
          "type": "uint256"
        }
      ],
      "name": "getRoleMember",
      "outputs": [
        {
          "internalType": "address",
          "name": "",
          "type": "address"
        }
      ],
      "stateMutability": "view",
      "type": "function"
    },
    {
      "inputs": [
        {
          "internalType": "bytes32",
          "name": "role",
          "type": "bytes32"
        }
      ],
      "name": "getRoleMemberCount",
      "outputs": [
        {
          "internalType": "uint256",
          "name": "",
          "type": "uint256"
        }
      ],
      "stateMutability": "view",
      "type": "function"
    },
    {
      "inputs": [
        {
          "internalType": "address",
          "name": "user",
          "type": "address"
        }
      ],
      "name": "grantMinterRole",
      "outputs": [],
      "stateMutability": "nonpayable",
      "type": "function"
    },
    {
      "inputs": [
        {
          "internalType": "bytes32",
          "name": "role",
          "type": "bytes32"
        },
        {
          "internalType": "address",
          "name": "account",
          "type": "address"
        }
      ],
      "name": "grantRole",
      "outputs": [],
      "stateMutability": "nonpayable",
      "type": "function"
    },
    {
      "inputs": [
        {
          "internalType": "bytes32",
          "name": "role",
          "type": "bytes32"
        },
        {
          "internalType": "address",
          "name": "account",
          "type": "address"
        }
      ],
      "name": "hasRole",
      "outputs": [
        {
          "internalType": "bool",
          "name": "",
          "type": "bool"
        }
      ],
      "stateMutability": "view",
      "type": "function"
    },
    {
      "inputs": [
        {
          "internalType": "address",
          "name": "owner",
          "type": "address"
        },
        {
          "internalType": "address",
          "name": "operator",
          "type": "address"
        }
      ],
      "name": "isApprovedForAll",
      "outputs": [
        {
          "internalType": "bool",
          "name": "",
          "type": "bool"
        }
      ],
      "stateMutability": "view",
      "type": "function"
    },
    {
      "inputs": [
        {
          "internalType": "address",
          "name": "to",
          "type": "address"
        },
        {
          "internalType": "uint256",
          "name": "tokenId",
          "type": "uint256"
        }
      ],
      "name": "mint",
      "outputs": [],
      "stateMutability": "nonpayable",
      "type": "function"
    },
    {
      "inputs": [
        {
          "components": [
            {
              "internalType": "address",
              "name": "to",
              "type": "address"
            },
            {
              "internalType": "uint256[]",
              "name": "tokenIds",
              "type": "uint256[]"
            }
          ],
          "internalType": "struct ERC721Hybrid.IDMint[]",
          "name": "mints",
          "type": "tuple[]"
        }
      ],
      "name": "mintBatch",
      "outputs": [],
      "stateMutability": "nonpayable",
      "type": "function"
    },
    {
      "inputs": [
        {
          "components": [
            {
              "internalType": "address",
              "name": "to",
              "type": "address"
            },
            {
              "internalType": "uint256",
              "name": "quantity",
              "type": "uint256"
            }
          ],
          "internalType": "struct ERC721Hybrid.Mint[]",
          "name": "mints",
          "type": "tuple[]"
        }
      ],
      "name": "mintBatchByQuantity",
      "outputs": [],
      "stateMutability": "nonpayable",
      "type": "function"
    },
    {
      "inputs": [],
      "name": "mintBatchByQuantityThreshold",
      "outputs": [
        {
          "internalType": "uint256",
          "name": "",
          "type": "uint256"
        }
      ],
      "stateMutability": "pure",
      "type": "function"
    },
    {
      "inputs": [
        {
          "internalType": "address",
          "name": "to",
          "type": "address"
        },
        {
          "internalType": "uint256",
          "name": "quantity",
          "type": "uint256"
        }
      ],
      "name": "mintByQuantity",
      "outputs": [],
      "stateMutability": "nonpayable",
      "type": "function"
    },
    {
      "inputs": [],
      "name": "name",
      "outputs": [
        {
          "internalType": "string",
          "name": "",
          "type": "string"
        }
      ],
      "stateMutability": "view",
      "type": "function"
    },
    {
      "inputs": [
        {
          "internalType": "uint256",
          "name": "tokenId",
          "type": "uint256"
        }
      ],
      "name": "nonces",
      "outputs": [
        {
          "internalType": "uint256",
          "name": "",
          "type": "uint256"
        }
      ],
      "stateMutability": "view",
      "type": "function"
    },
    {
      "inputs": [],
      "name": "operatorAllowlist",
      "outputs": [
        {
          "internalType": "contract IOperatorAllowlist",
          "name": "",
          "type": "address"
        }
      ],
      "stateMutability": "view",
      "type": "function"
    },
    {
      "inputs": [
        {
          "internalType": "uint256",
          "name": "tokenId",
          "type": "uint256"
        }
      ],
      "name": "ownerOf",
      "outputs": [
        {
          "internalType": "address",
          "name": "",
          "type": "address"
        }
      ],
      "stateMutability": "view",
      "type": "function"
    },
    {
      "inputs": [
        {
          "internalType": "address",
          "name": "spender",
          "type": "address"
        },
        {
          "internalType": "uint256",
          "name": "tokenId",
          "type": "uint256"
        },
        {
          "internalType": "uint256",
          "name": "deadline",
          "type": "uint256"
        },
        {
          "internalType": "bytes",
          "name": "sig",
          "type": "bytes"
        }
      ],
      "name": "permit",
      "outputs": [],
      "stateMutability": "nonpayable",
      "type": "function"
    },
    {
      "inputs": [
        {
          "internalType": "bytes32",
          "name": "role",
          "type": "bytes32"
        },
        {
          "internalType": "address",
          "name": "account",
          "type": "address"
        }
      ],
      "name": "renounceRole",
      "outputs": [],
      "stateMutability": "nonpayable",
      "type": "function"
    },
    {
      "inputs": [
        {
          "internalType": "address",
          "name": "user",
          "type": "address"
        }
      ],
      "name": "revokeMinterRole",
      "outputs": [],
      "stateMutability": "nonpayable",
      "type": "function"
    },
    {
      "inputs": [
        {
          "internalType": "bytes32",
          "name": "role",
          "type": "bytes32"
        },
        {
          "internalType": "address",
          "name": "account",
          "type": "address"
        }
      ],
      "name": "revokeRole",
      "outputs": [],
      "stateMutability": "nonpayable",
      "type": "function"
    },
    {
      "inputs": [
        {
          "internalType": "uint256",
          "name": "tokenId",
          "type": "uint256"
        },
        {
          "internalType": "uint256",
          "name": "salePrice",
          "type": "uint256"
        }
      ],
      "name": "royaltyInfo",
      "outputs": [
        {
          "internalType": "address",
          "name": "",
          "type": "address"
        },
        {
          "internalType": "uint256",
          "name": "",
          "type": "uint256"
        }
      ],
      "stateMutability": "view",
      "type": "function"
    },
    {
      "inputs": [
        {
          "internalType": "address",
          "name": "owner",
          "type": "address"
        },
        {
          "internalType": "uint256",
          "name": "tokenId",
          "type": "uint256"
        }
      ],
      "name": "safeBurn",
      "outputs": [],
      "stateMutability": "nonpayable",
      "type": "function"
    },
    {
      "inputs": [
        {
          "components": [
            {
              "internalType": "address",
              "name": "owner",
              "type": "address"
            },
            {
              "internalType": "uint256[]",
              "name": "tokenIds",
              "type": "uint256[]"
            }
          ],
          "internalType": "struct ERC721Hybrid.IDBurn[]",
          "name": "burns",
          "type": "tuple[]"
        }
      ],
      "name": "safeBurnBatch",
      "outputs": [],
      "stateMutability": "nonpayable",
      "type": "function"
    },
    {
      "inputs": [
        {
          "internalType": "address",
          "name": "to",
          "type": "address"
        },
        {
          "internalType": "uint256",
          "name": "tokenId",
          "type": "uint256"
        }
      ],
      "name": "safeMint",
      "outputs": [],
      "stateMutability": "nonpayable",
      "type": "function"
    },
    {
      "inputs": [
        {
          "components": [
            {
              "internalType": "address",
              "name": "to",
              "type": "address"
            },
            {
              "internalType": "uint256[]",
              "name": "tokenIds",
              "type": "uint256[]"
            }
          ],
          "internalType": "struct ERC721Hybrid.IDMint[]",
          "name": "mints",
          "type": "tuple[]"
        }
      ],
      "name": "safeMintBatch",
      "outputs": [],
      "stateMutability": "nonpayable",
      "type": "function"
    },
    {
      "inputs": [
        {
          "components": [
            {
              "internalType": "address",
              "name": "to",
              "type": "address"
            },
            {
              "internalType": "uint256",
              "name": "quantity",
              "type": "uint256"
            }
          ],
          "internalType": "struct ERC721Hybrid.Mint[]",
          "name": "mints",
          "type": "tuple[]"
        }
      ],
      "name": "safeMintBatchByQuantity",
      "outputs": [],
      "stateMutability": "nonpayable",
      "type": "function"
    },
    {
      "inputs": [
        {
          "internalType": "address",
          "name": "to",
          "type": "address"
        },
        {
          "internalType": "uint256",
          "name": "quantity",
          "type": "uint256"
        }
      ],
      "name": "safeMintByQuantity",
      "outputs": [],
      "stateMutability": "nonpayable",
      "type": "function"
    },
    {
      "inputs": [
        {
          "internalType": "address",
          "name": "from",
          "type": "address"
        },
        {
          "internalType": "address",
          "name": "to",
          "type": "address"
        },
        {
          "internalType": "uint256",
          "name": "tokenId",
          "type": "uint256"
        }
      ],
      "name": "safeTransferFrom",
      "outputs": [],
      "stateMutability": "nonpayable",
      "type": "function"
    },
    {
      "inputs": [
        {
          "internalType": "address",
          "name": "from",
          "type": "address"
        },
        {
          "internalType": "address",
          "name": "to",
          "type": "address"
        },
        {
          "internalType": "uint256",
          "name": "tokenId",
          "type": "uint256"
        },
        {
          "internalType": "bytes",
          "name": "_data",
          "type": "bytes"
        }
      ],
      "name": "safeTransferFrom",
      "outputs": [],
      "stateMutability": "nonpayable",
      "type": "function"
    },
    {
      "inputs": [
        {
          "components": [
            {
              "internalType": "address",
              "name": "from",
              "type": "address"
            },
            {
              "internalType": "address[]",
              "name": "tos",
              "type": "address[]"
            },
            {
              "internalType": "uint256[]",
              "name": "tokenIds",
              "type": "uint256[]"
            }
          ],
          "internalType": "struct ERC721Hybrid.TransferRequest",
          "name": "tr",
          "type": "tuple"
        }
      ],
      "name": "safeTransferFromBatch",
      "outputs": [],
      "stateMutability": "nonpayable",
      "type": "function"
    },
    {
      "inputs": [
        {
          "internalType": "address",
          "name": "operator",
          "type": "address"
        },
        {
          "internalType": "bool",
          "name": "approved",
          "type": "bool"
        }
      ],
      "name": "setApprovalForAll",
      "outputs": [],
      "stateMutability": "nonpayable",
      "type": "function"
    },
    {
      "inputs": [
        {
          "internalType": "string",
          "name": "baseURI_",
          "type": "string"
        }
      ],
      "name": "setBaseURI",
      "outputs": [],
      "stateMutability": "nonpayable",
      "type": "function"
    },
    {
      "inputs": [
        {
          "internalType": "string",
          "name": "_contractURI",
          "type": "string"
        }
      ],
      "name": "setContractURI",
      "outputs": [],
      "stateMutability": "nonpayable",
      "type": "function"
    },
    {
      "inputs": [
        {
          "internalType": "address",
          "name": "receiver",
          "type": "address"
        },
        {
          "internalType": "uint96",
          "name": "feeNumerator",
          "type": "uint96"
        }
      ],
      "name": "setDefaultRoyaltyReceiver",
      "outputs": [],
      "stateMutability": "nonpayable",
      "type": "function"
    },
    {
      "inputs": [
        {
          "internalType": "uint256",
          "name": "tokenId",
          "type": "uint256"
        },
        {
          "internalType": "address",
          "name": "receiver",
          "type": "address"
        },
        {
          "internalType": "uint96",
          "name": "feeNumerator",
          "type": "uint96"
        }
      ],
      "name": "setNFTRoyaltyReceiver",
      "outputs": [],
      "stateMutability": "nonpayable",
      "type": "function"
    },
    {
      "inputs": [
        {
          "internalType": "uint256[]",
          "name": "tokenIds",
          "type": "uint256[]"
        },
        {
          "internalType": "address",
          "name": "receiver",
          "type": "address"
        },
        {
          "internalType": "uint96",
          "name": "feeNumerator",
          "type": "uint96"
        }
      ],
      "name": "setNFTRoyaltyReceiverBatch",
      "outputs": [],
      "stateMutability": "nonpayable",
      "type": "function"
    },
    {
      "inputs": [
        {
          "internalType": "bytes4",
          "name": "interfaceId",
          "type": "bytes4"
        }
      ],
      "name": "supportsInterface",
      "outputs": [
        {
          "internalType": "bool",
          "name": "",
          "type": "bool"
        }
      ],
      "stateMutability": "view",
      "type": "function"
    },
    {
      "inputs": [],
      "name": "symbol",
      "outputs": [
        {
          "internalType": "string",
          "name": "",
          "type": "string"
        }
      ],
      "stateMutability": "view",
      "type": "function"
    },
    {
      "inputs": [
        {
          "internalType": "uint256",
          "name": "tokenId",
          "type": "uint256"
        }
      ],
      "name": "tokenURI",
      "outputs": [
        {
          "internalType": "string",
          "name": "",
          "type": "string"
        }
      ],
      "stateMutability": "view",
      "type": "function"
    },
    {
      "inputs": [],
      "name": "totalSupply",
      "outputs": [
        {
          "internalType": "uint256",
          "name": "",
          "type": "uint256"
        }
      ],
      "stateMutability": "view",
      "type": "function"
    },
    {
      "inputs": [
        {
          "internalType": "address",
          "name": "from",
          "type": "address"
        },
        {
          "internalType": "address",
          "name": "to",
          "type": "address"
        },
        {
          "internalType": "uint256",
          "name": "tokenId",
          "type": "uint256"
        }
      ],
      "name": "transferFrom",
      "outputs": [],
      "stateMutability": "nonpayable",
      "type": "function"
    }
  ],
  "bytecode": "0x61016060405260006013553480156200001757600080fd5b5060405162005a9f38038062005a9f8339810160408190526200003a916200068d565b87878787878787878787878787878787868681604051806040016040528060018152602001603160f81b81525083838181838381600690816200007e919062000820565b5060076200008d828262000820565b5050600160801b60095550600d620000a6838262000820565b50600e620000b5828262000820565b50620000ca93508592506015915050620001d5565b61012052620000db816016620001d5565b61014052815160208084019190912060e052815190820120610100524660a0526200016960e05161010051604080517f8b73c3c69bb8fe3d512ecc4cf759cc79239f7b179b0ffacaa9a75d522b39400f60208201529081019290925260608201524660808201523060a082015260009060c00160405160208183030381529060405280519060200120905090565b60805250503060c052506200018290506000896200020e565b6200018e828262000239565b62000199836200033e565b6019620001a7868262000820565b506018620001b6858262000820565b505050505050505050505050505050505050505050505050506200096a565b6000602083511015620001f557620001ed8362000437565b905062000208565b8162000202848262000820565b5060ff90505b92915050565b6200021a82826200047a565b60008281526001602052604090206200023490826200051b565b505050565b6127106001600160601b0382161115620002ad5760405162461bcd60e51b815260206004820152602a60248201527f455243323938313a20726f79616c7479206665652077696c6c206578636565646044820152692073616c65507269636560b01b60648201526084015b60405180910390fd5b6001600160a01b038216620003055760405162461bcd60e51b815260206004820152601960248201527f455243323938313a20696e76616c6964207265636569766572000000000000006044820152606401620002a4565b604080518082019091526001600160a01b039092168083526001600160601b039091166020909201829052600160a01b90910217600355565b6040516301ffc9a760e01b81526305a3b80960e01b60048201526001600160a01b038216906301ffc9a790602401602060405180830381865afa1580156200038a573d6000803e3d6000fd5b505050506040513d601f19601f82011682018060405250810190620003b09190620008ec565b620003ce5760405163d6f93fb760e01b815260040160405180910390fd5b600254604080516001600160a01b03928316815291831660208301527f3edc37a14cc8047c7c8a3f354311efe86c14848efd4e3765a3e1e57eea04ea76910160405180910390a1600280546001600160a01b0319166001600160a01b0392909216919091179055565b600080829050601f8151111562000465578260405163305a27a960e01b8152600401620002a4919062000910565b8051620004728262000945565b179392505050565b6000828152602081815260408083206001600160a01b038516845290915290205460ff1662000517576000828152602081815260408083206001600160a01b03851684529091529020805460ff19166001179055620004d63390565b6001600160a01b0316816001600160a01b0316837f2f8788117e7eff1d82e926ec794901d17c78024a50270940304540a733656f0d60405160405180910390a45b5050565b600062000532836001600160a01b03841662000539565b9392505050565b6000818152600183016020526040812054620005825750815460018181018455600084815260208082209093018490558454848252828601909352604090209190915562000208565b50600062000208565b80516001600160a01b0381168114620005a357600080fd5b919050565b634e487b7160e01b600052604160045260246000fd5b60005b83811015620005db578181015183820152602001620005c1565b50506000910152565b600082601f830112620005f657600080fd5b81516001600160401b0380821115620006135762000613620005a8565b604051601f8301601f19908116603f011681019082821181831017156200063e576200063e620005a8565b816040528381528660208588010111156200065857600080fd5b6200066b846020830160208901620005be565b9695505050505050565b80516001600160601b0381168114620005a357600080fd5b600080600080600080600080610100898b031215620006ab57600080fd5b620006b6896200058b565b60208a01519098506001600160401b0380821115620006d457600080fd5b620006e28c838d01620005e4565b985060408b0151915080821115620006f957600080fd5b620007078c838d01620005e4565b975060608b01519150808211156200071e57600080fd5b6200072c8c838d01620005e4565b965060808b01519150808211156200074357600080fd5b50620007528b828c01620005e4565b9450506200076360a08a016200058b565b92506200077360c08a016200058b565b91506200078360e08a0162000675565b90509295985092959890939650565b600181811c90821680620007a757607f821691505b602082108103620007c857634e487b7160e01b600052602260045260246000fd5b50919050565b601f8211156200023457600081815260208120601f850160051c81016020861015620007f75750805b601f850160051c820191505b81811015620008185782815560010162000803565b505050505050565b81516001600160401b038111156200083c576200083c620005a8565b62000854816200084d845462000792565b84620007ce565b602080601f8311600181146200088c5760008415620008735750858301515b600019600386901b1c1916600185901b17855562000818565b600085815260208120601f198616915b82811015620008bd578886015182559484019460019091019084016200089c565b5085821015620008dc5787850151600019600388901b60f8161c191681555b5050505050600190811b01905550565b600060208284031215620008ff57600080fd5b815180151581146200053257600080fd5b602081526000825180602084015262000931816040850160208701620005be565b601f01601f19169190910160400192915050565b80516020808301519190811015620007c85760001960209190910360031b1b16919050565b60805160a05160c05160e0516101005161012051610140516150da620009c56000396000610d8801526000610d5d0152600061178901526000611761015260006116bc015260006116e60152600061171001526150da6000f3fe608060405234801561001057600080fd5b50600436106103415760003560e01c806369e2f0fb116101b8578063a144819411610104578063d5391393116100a2578063e4623c1b1161007c578063e4623c1b14610743578063e8a3d48514610756578063e985e9c51461075e578063eea987681461077157600080fd5b8063d539139314610708578063d547741f1461071d578063e19278591461073057600080fd5b8063a7012816116100de578063a7012816146106bc578063b88d4fde146106cf578063c87b56dd146106e2578063ca15c873146106f557600080fd5b8063a14481941461068e578063a217fddf146106a1578063a22cb465146106a957600080fd5b8063885e7a0811610171578063938e3d7b1161014b578063938e3d7b1461064d57806395d89b41146106605780639e2641a3146106685780639f15d7001461067b57600080fd5b8063885e7a08146106145780639010d07c1461062757806391d148541461063a57600080fd5b806369e2f0fb146105a55780636c0360eb146105b857806370a08231146105c0578063745a41bc146105d357806374f16a81146105e657806384b0196e146105f957600080fd5b80632f2ff15d1161029257806342842e0e116102305780634f558e791161020a5780634f558e791461055957806355f804b31461056c578063567e40751461057f5780636352211e1461059257600080fd5b806342842e0e1461052057806342966c6814610533578063439aed341461054657600080fd5b80633644e5151161026c5780633644e515146104df57806336568abe146104e75780633dd1eb61146104fa57806340c10f191461050d57600080fd5b80632f2ff15d146104ad578063315ed308146104c057806331ae450b146104ca57600080fd5b806318160ddd116102ff578063248a9ca3116102d9578063248a9ca31461043257806329326f29146104555780632a55205a146104685780632d2c5a8b1461049a57600080fd5b806318160ddd14610404578063234af0461461040c57806323b872dd1461041f57600080fd5b80628ad9461461034657806301ffc9a71461035b57806306fdde0314610383578063081812fc14610398578063095ea7b3146103c3578063141a468c146103d6575b600080fd5b610359610354366004614317565b610784565b005b61036e610369366004614367565b61085a565b60405190151581526020015b60405180910390f35b61038b61086b565b60405161037a91906143d4565b6103ab6103a63660046143e7565b61087a565b6040516001600160a01b03909116815260200161037a565b6103596103d1366004614417565b61089a565b6103f66103e43660046143e7565b60009081526017602052604090205490565b60405190815260200161037a565b6103f66108ba565b61035961041a366004614485565b6108d1565b61035961042d3660046144c6565b6108f8565b6103f66104403660046143e7565b60009081526020819052604090206001015490565b6002546103ab906001600160a01b031681565b61047b610476366004614502565b61091a565b604080516001600160a01b03909316835260208301919091520161037a565b6103596104a8366004614524565b6109c8565b6103596104bb366004614598565b6109ea565b600160801b6103f6565b6104d2610a0f565b60405161037a91906145c4565b6103f6610abd565b6103596104f5366004614598565b610ac7565b610359610508366004614611565b610b46565b61035961051b366004614417565b610b69565b61035961052e3660046144c6565b610b8b565b6103596105413660046143e7565b610ba6565b610359610554366004614643565b610bdd565b61036e6105673660046143e7565b610c06565b61035961057a36600461470a565b610c11565b61035961058d366004614417565b610c28565b6103ab6105a03660046143e7565b610c4a565b6103596105b3366004614611565b610c6a565b61038b610c8d565b6103f66105ce366004614611565b610d1b565b6103596105e1366004614772565b610d39565b6103596105f4366004614485565b610d45565b610601610d4f565b60405161037a97969594939291906147d2565b610359610622366004614868565b610dd8565b6103ab610635366004614502565b610ded565b61036e610648366004614598565b610e0c565b61035961065b36600461470a565b610e35565b61038b610e4c565b610359610676366004614485565b610e56565b610359610689366004614417565b610e78565b61035961069c366004614417565b610ed2565b6103f6600081565b6103596106b73660046148a0565b610ef4565b6103596106ca3660046148d7565b611045565b6103596106dd36600461493b565b6110a5565b61038b6106f03660046143e7565b6110ce565b6103f66107033660046143e7565b6110d9565b6103f66a4d494e5445525f524f4c4560a81b81565b61035961072b366004614598565b6110f0565b61035961073e366004614524565b611115565b610359610751366004614485565b611137565b61038b611175565b61036e61076c36600461498a565b611182565b61035961077f366004614417565b6111b2565b61079160208201826149b4565b90506107a060408301836149b4565b9050146107c05760405163359a1bc360e01b815260040160405180910390fd5b60005b6107d060408301836149b4565b9050811015610856576108446107e96020840184614611565b6107f660208501856149b4565b84818110610806576108066149fd565b905060200201602081019061081b9190614611565b61082860408601866149b4565b85818110610838576108386149fd565b90506020020135610b8b565b8061084e81614a29565b9150506107c3565b5050565b6000610865826111d4565b92915050565b60606108756111f9565b905090565b6000600160801b821015610891576108658261128b565b610865826112b2565b600160801b8110156108b057610856828261133d565b610856828261144d565b60006013546108c7611555565b6108759190614a42565b6a4d494e5445525f524f4c4560a81b6108e981611571565b6108f3838361157b565b505050565b600160801b81101561090f576108f38383836115e2565b6108f3838383611612565b60008281526004602090815260408083208151808301909252546001600160a01b038116808352600160a01b9091046001600160601b031692820192909252829161098f5750604080518082019091526003546001600160a01b0381168252600160a01b90046001600160601b031660208201525b6020810151600090612710906109ae906001600160601b031687614a55565b6109b89190614a6c565b91519350909150505b9250929050565b6a4d494e5445525f524f4c4560a81b6109e081611571565b6108f38383611637565b600082815260208190526040902060010154610a0581611571565b6108f3838361168d565b60606000610a1c816110d9565b90506000816001600160401b03811115610a3857610a3861467f565b604051908082528060200260200182016040528015610a61578160200160208202803683370190505b50905060005b82811015610ab657610a7a600082610ded565b828281518110610a8c57610a8c6149fd565b6001600160a01b039092166020928302919091019091015280610aae81614a29565b915050610a67565b5092915050565b60006108756116af565b6001600160a01b0381163314610b3c5760405162461bcd60e51b815260206004820152602f60248201527f416363657373436f6e74726f6c3a2063616e206f6e6c792072656e6f756e636560448201526e103937b632b9903337b91039b2b63360891b60648201526084015b60405180910390fd5b61085682826117da565b6000610b5181611571565b6108566a4d494e5445525f524f4c4560a81b836109ea565b6a4d494e5445525f524f4c4560a81b610b8181611571565b6108f383836117fc565b6108f3838383604051806020016040528060008152506110a5565b610bb1335b8261187f565b610bd157604051630247e3a960e01b815260048101829052602401610b33565b610bda816118a8565b50565b6a4d494e5445525f524f4c4560a81b610bf581611571565b610c008484846118fb565b50505050565b6000610865826119c6565b6000610c1c81611571565b60196108f38382614b0e565b6a4d494e5445525f524f4c4560a81b610c4081611571565b6108f38383611a23565b6000600160801b821015610c615761086582611a2d565b61086582611a8d565b6000610c7581611571565b6108566a4d494e5445525f524f4c4560a81b836110f0565b60198054610c9a90614a8e565b80601f0160208091040260200160405190810160405280929190818152602001828054610cc690614a8e565b8015610d135780601f10610ce857610100808354040283529160200191610d13565b820191906000526020600020905b815481529060010190602001808311610cf657829003601f168201915b505050505081565b6000610d2682611aa1565b610d2f83611b6c565b6108659190614a42565b610c0084848484611bf2565b6108568282611cdb565b600060608082808083610d837f00000000000000000000000000000000000000000000000000000000000000006015611d86565b610dae7f00000000000000000000000000000000000000000000000000000000000000006016611d86565b60408051600080825260208201909252600f60f81b9b939a50919850469750309650945092509050565b6000610de381611571565b6108f38383611e2a565b6000828152600160205260408120610e059083611ee4565b9392505050565b6000918252602082815260408084206001600160a01b0393909316845291905290205460ff1690565b6000610e4081611571565b60186108f38382614b0e565b6060610875611ef0565b6a4d494e5445525f524f4c4560a81b610e6e81611571565b6108f38383611eff565b6000610e8382610c4a565b9050826001600160a01b0316816001600160a01b031614610ec957604051634fefd56160e01b8152600481018390526001600160a01b0382166024820152604401610b33565b6108f382610ba6565b6a4d494e5445525f524f4c4560a81b610eea81611571565b6108f38383611f66565b81333b15801590610f6e57506002546040516305a3b80960e01b81523360048201526001600160a01b03909116906305a3b80990602401602060405180830381865afa158015610f48573d6000803e3d6000fd5b505050506040513d601f19601f82011682018060405250810190610f6c9190614bcd565b155b15610f8e5760405163f6fa4cbd60e01b8152336004820152602401610b33565b6001600160a01b0381163b1580159061101257506002546040516305a3b80960e01b81526001600160a01b038381166004830152909116906305a3b80990602401602060405180830381865afa158015610fec573d6000803e3d6000fd5b505050506040513d601f19601f820116820180604052508101906110109190614bcd565b155b1561103b576040516341b8d58160e11b81526001600160a01b0382166004820152602401610b33565b6108f38383611fe9565b6a4d494e5445525f524f4c4560a81b61105d81611571565b60005b8481101561109d5761108b86868381811061107d5761107d6149fd565b9050602002013585856118fb565b8061109581614a29565b915050611060565b505050505050565b600160801b8210156110c2576110bd84848484611ff3565b610c00565b610c0084848484612026565b60606108658261204b565b6000818152600160205260408120610865906120b1565b60008281526020819052604090206001015461110b81611571565b6108f383836117da565b6a4d494e5445525f524f4c4560a81b61112d81611571565b6108f383836120bb565b60005b818110156108f357611163838383818110611157576111576149fd565b90506020020135610ba6565b8061116d81614a29565b91505061113a565b60188054610c9a90614a8e565b6001600160a01b03808316600090815260126020908152604080832093851683529290529081205460ff16610e05565b6a4d494e5445525f524f4c4560a81b6111ca81611571565b6108f38383612111565b60006001600160e01b03198216635604e22560e01b148061086557506108658261211b565b6060600d805461120890614a8e565b80601f016020809104026020016040519081016040528092919081815260200182805461123490614a8e565b80156112815780601f1061125657610100808354040283529160200191611281565b820191906000526020600020905b81548152906001019060200180831161126457829003601f168201915b5050505050905090565b600061129682612126565b506000908152601160205260409020546001600160a01b031690565b60006112bd826119c6565b6113215760405162461bcd60e51b815260206004820152602f60248201527f4552433732315073693a20617070726f76656420717565727920666f72206e6f60448201526e3732bc34b9ba32b73a103a37b5b2b760891b6064820152608401610b33565b506000908152600a60205260409020546001600160a01b031690565b600061134882611a2d565b9050806001600160a01b0316836001600160a01b0316036113b55760405162461bcd60e51b815260206004820152602160248201527f4552433732313a20617070726f76616c20746f2063757272656e74206f776e656044820152603960f91b6064820152608401610b33565b336001600160a01b03821614806113d157506113d18133611182565b6114435760405162461bcd60e51b815260206004820152603d60248201527f4552433732313a20617070726f76652063616c6c6572206973206e6f7420746f60448201527f6b656e206f776e6572206f7220617070726f76656420666f7220616c6c0000006064820152608401610b33565b6108f38383612176565b600061145882610c4a565b9050806001600160a01b0316836001600160a01b0316036114c75760405162461bcd60e51b8152602060048201526024808201527f4552433732315073693a20617070726f76616c20746f2063757272656e74206f6044820152633bb732b960e11b6064820152608401610b33565b336001600160a01b03821614806114e357506114e38133611182565b6114435760405162461bcd60e51b815260206004820152603b60248201527f4552433732315073693a20617070726f76652063616c6c6572206973206e6f7460448201527f206f776e6572206e6f7220617070726f76656420666f7220616c6c00000000006064820152608401610b33565b600061155f6122c7565b61156761232d565b6108759190614bea565b610bda8133612341565b60005b818110156108f35736838383818110611599576115996149fd565b90506020028101906115ab9190614bfd565b90506115cf6115bd6020830183614611565b6115ca60208401846149b4565b61239a565b50806115da81614a29565b91505061157e565b6115eb33610bab565b6116075760405162461bcd60e51b8152600401610b3390614c1d565b6108f38383836123d9565b61161b33610bab565b6116075760405162461bcd60e51b8152600401610b3390614c6a565b60005b818110156108f35736838383818110611655576116556149fd565b60400291909101915061167a90506116706020830183614611565b8260200135611a23565b508061168581614a29565b91505061163a565b61169782826125e0565b60008281526001602052604090206108f39082612664565b6000306001600160a01b037f00000000000000000000000000000000000000000000000000000000000000001614801561170857507f000000000000000000000000000000000000000000000000000000000000000046145b1561173257507f000000000000000000000000000000000000000000000000000000000000000090565b610875604080517f8b73c3c69bb8fe3d512ecc4cf759cc79239f7b179b0ffacaa9a75d522b39400f60208201527f0000000000000000000000000000000000000000000000000000000000000000918101919091527f000000000000000000000000000000000000000000000000000000000000000060608201524660808201523060a082015260009060c00160405160208183030381529060405280519060200120905090565b6117e48282612679565b60008281526001602052604090206108f390826126de565b600160801b81106118235760405163b73c99f560e01b815260048101829052602401610b33565b600881901c600090815260146020526040902054600160ff83161b1615611860576040516305dcda1160e51b815260048101829052602401610b33565b6013805490600061187083614a29565b919050555061085682826126f3565b6000600160801b82101561189e57611897838361284e565b9050610865565b610e0583836128ad565b600160801b8110156118f2576118bd81612972565b600881901c60009081526014602052604081208054600160ff85161b17905560138054916118ea83614cbe565b919050555050565b610bda816129f5565b6127106001600160601b03821611156119265760405162461bcd60e51b8152600401610b3390614cd5565b6001600160a01b03821661197c5760405162461bcd60e51b815260206004820152601b60248201527f455243323938313a20496e76616c696420706172616d657465727300000000006044820152606401610b33565b6040805180820182526001600160a01b0393841681526001600160601b0392831660208083019182526000968752600490529190942093519051909116600160a01b029116179055565b6000600160801b821015611a1a576000828152600f60205260409020546001600160a01b0316158015906108655750600882901c600090815260146020526040902054600160ff84161b1615151592915050565b61086582612a37565b6108568282612a6c565b6000818152600f60205260408120546001600160a01b0316806108655760405162461bcd60e51b8152602060048201526018602482015277115490cdcc8c4e881a5b9d985b1a59081d1bdad95b88125160421b6044820152606401610b33565b600080611a9983612a86565b509392505050565b60006001600160a01b038216611b0f5760405162461bcd60e51b815260206004820152602d60248201527f4552433732315073693a2062616c616e636520717565727920666f722074686560448201526c207a65726f206164647265737360981b6064820152608401610b33565b6000600160801b5b600954811015610ab657611b2a816119c6565b15611b5c57611b3881610c4a565b6001600160a01b0316846001600160a01b031603611b5c57611b5982614a29565b91505b611b6581614a29565b9050611b17565b60006001600160a01b038216611bd65760405162461bcd60e51b815260206004820152602960248201527f4552433732313a2061646472657373207a65726f206973206e6f7420612076616044820152683634b21037bbb732b960b91b6064820152608401610b33565b506001600160a01b031660009081526010602052604090205490565b42821015611c135760405163068568f360e21b815260040160405180910390fd5b6000611c20858585612b1d565b9050611c35611c2e85610c4a565b8284612bf6565b15611c4a57611c448585612176565b50610c00565b60008251604003611c9157611c8a82611c668560006020612d00565b611c6f90614d1f565b611c7c8660206040612d00565b611c8590614d1f565b612e0d565b9050611cbd565b8251604103611ca457611c8a8284612e2a565b604051638baa579f60e01b815260040160405180910390fd5b611cc78186612e46565b15611ca457611cd68686612176565b61109d565b60005b818110156108f35736838383818110611cf957611cf96149fd565b9050602002810190611d0b9190614bfd565b905060005b611d1d60208301836149b4565b9050811015611d7157611d5f611d366020840184614611565b611d4360208501856149b4565b84818110611d5357611d536149fd565b90506020020135610e78565b80611d6981614a29565b915050611d10565b50508080611d7e90614a29565b915050611cde565b606060ff8314611d995761189783612e65565b818054611da590614a8e565b80601f0160208091040260200160405190810160405280929190818152602001828054611dd190614a8e565b8015611e1e5780601f10611df357610100808354040283529160200191611e1e565b820191906000526020600020905b815481529060010190602001808311611e0157829003601f168201915b50505050509050610865565b6127106001600160601b0382161115611e555760405162461bcd60e51b8152600401610b3390614cd5565b6001600160a01b038216611eab5760405162461bcd60e51b815260206004820152601960248201527f455243323938313a20696e76616c6964207265636569766572000000000000006044820152606401610b33565b604080518082019091526001600160a01b039092168083526001600160601b039091166020909201829052600160a01b90910217600355565b6000610e058383612ea4565b6060600e805461120890614a8e565b60005b818110156108f35736838383818110611f1d57611f1d6149fd565b9050602002810190611f2f9190614bfd565b9050611f53611f416020830183614611565b611f4e60208401846149b4565b612ece565b5080611f5e81614a29565b915050611f02565b600160801b8110611f8d5760405163b73c99f560e01b815260048101829052602401610b33565b600881901c600090815260146020526040902054600160ff83161b1615611fca576040516305dcda1160e51b815260048101829052602401610b33565b60138054906000611fda83614a29565b91905055506108568282612f0d565b6108568282612f27565b611ffe335b8361187f565b61201a5760405162461bcd60e51b8152600401610b3390614c1d565b610c0084848484612f32565b61202f33611ff8565b61201a5760405162461bcd60e51b8152600401610b3390614c6a565b606061205682612126565b6000612060612f56565b905060008151116120805760405180602001604052806000815250610e05565b8061208a84612f65565b60405160200161209b929190614d43565b6040516020818303038152906040529392505050565b6000610865825490565b60005b818110156108f357368383838181106120d9576120d96149fd565b6040029190910191506120fe90506120f46020830183614611565b8260200135612111565b508061210981614a29565b9150506120be565b6108568282612ff7565b600061086582613170565b61212f816119c6565b610bda5760405162461bcd60e51b8152602060048201526018602482015277115490cdcc8c4e881a5b9d985b1a59081d1bdad95b88125160421b6044820152606401610b33565b81333b158015906121f057506002546040516305a3b80960e01b81523360048201526001600160a01b03909116906305a3b80990602401602060405180830381865afa1580156121ca573d6000803e3d6000fd5b505050506040513d601f19601f820116820180604052508101906121ee9190614bcd565b155b156122105760405163f6fa4cbd60e01b8152336004820152602401610b33565b6001600160a01b0381163b1580159061229457506002546040516305a3b80960e01b81526001600160a01b038381166004830152909116906305a3b80990602401602060405180830381865afa15801561226e573d6000803e3d6000fd5b505050506040513d601f19601f820116820180604052508101906122929190614bcd565b155b156122bd576040516341b8d58160e11b81526001600160a01b0382166004820152602401610b33565b6108f383836131b0565b600954600090600160781b9082906122e39060081c6001614a42565b9050815b81811015612327576000818152600c6020526040902054612307816131d0565b6123119086614a42565b945050808061231f90614a29565b9150506122e7565b50505090565b6000600160801b6009546108759190614bea565b61234b8282610e0c565b61085657612358816131ef565b612363836020613201565b604051602001612374929190614d72565b60408051601f198184030181529082905262461bcd60e51b8252610b33916004016143d4565b60005b81811015610c00576123c7848484848181106123bb576123bb6149fd565b90506020020135611f66565b806123d181614a29565b91505061239d565b828233321480159061245457506002546040516305a3b80960e01b81523360048201526001600160a01b03909116906305a3b80990602401602060405180830381865afa15801561242e573d6000803e3d6000fd5b505050506040513d601f19601f820116820180604052508101906124529190614bcd565b155b156124745760405163937db65f60e01b8152336004820152602401610b33565b6001600160a01b0382163b158015906124f857506002546040516305a3b80960e01b81526001600160a01b038481166004830152909116906305a3b80990602401602060405180830381865afa1580156124d2573d6000803e3d6000fd5b505050506040513d601f19601f820116820180604052508101906124f69190614bcd565b155b156125215760405163f934453160e01b81526001600160a01b0383166004820152602401610b33565b6001600160a01b0381163b158015906125a557506002546040516305a3b80960e01b81526001600160a01b038381166004830152909116906305a3b80990602401602060405180830381865afa15801561257f573d6000803e3d6000fd5b505050506040513d601f19601f820116820180604052508101906125a39190614bcd565b155b156125ce57604051632a67242160e11b81526001600160a01b0382166004820152602401610b33565b6125d985858561339c565b5050505050565b6125ea8282610e0c565b610856576000828152602081815260408083206001600160a01b03851684529091529020805460ff191660011790556126203390565b6001600160a01b0316816001600160a01b0316837f2f8788117e7eff1d82e926ec794901d17c78024a50270940304540a733656f0d60405160405180910390a45050565b6000610e05836001600160a01b0384166133c6565b6126838282610e0c565b15610856576000828152602081815260408083206001600160a01b0385168085529252808320805460ff1916905551339285917ff6391f5c32d9c69d2a47ea670b442974b53935d1edc7fd64eb21e047a839171b9190a45050565b6000610e05836001600160a01b038416613415565b6001600160a01b0382166127495760405162461bcd60e51b815260206004820181905260248201527f4552433732313a206d696e7420746f20746865207a65726f20616464726573736044820152606401610b33565b612752816119c6565b1561279f5760405162461bcd60e51b815260206004820152601c60248201527f4552433732313a20746f6b656e20616c7265616479206d696e746564000000006044820152606401610b33565b6127a8816119c6565b156127f55760405162461bcd60e51b815260206004820152601c60248201527f4552433732313a20746f6b656e20616c7265616479206d696e746564000000006044820152606401610b33565b6001600160a01b038216600081815260106020908152604080832080546001019055848352600f90915280822080546001600160a01b031916841790555183929190600080516020614f85833981519152908290a45050565b60008061285a83611a2d565b9050806001600160a01b0316846001600160a01b0316148061288157506128818185611182565b806128a55750836001600160a01b031661289a8461087a565b6001600160a01b0316145b949350505050565b60006128b8826119c6565b61291c5760405162461bcd60e51b815260206004820152602f60248201527f4552433732315073693a206f70657261746f7220717565727920666f72206e6f60448201526e3732bc34b9ba32b73a103a37b5b2b760891b6064820152608401610b33565b600061292783610c4a565b9050806001600160a01b0316846001600160a01b031614806129625750836001600160a01b03166129578461087a565b6001600160a01b0316145b806128a557506128a58185611182565b600061297d82611a2d565b905061298882611a2d565b600083815260116020908152604080832080546001600160a01b03199081169091556001600160a01b038516808552601084528285208054600019019055878552600f90935281842080549091169055519293508492600080516020614f85833981519152908390a45050565b6000612a0082610c4a565b9050612a0d600c83613508565b60405182906000906001600160a01b03841690600080516020614f85833981519152908390a45050565b600881901c6000908152600c6020526040812054600160ff1b60ff84161c1615612a6357506000919050565b61086582613534565b610856828260405180602001604052806000815250613553565b600080612a92836119c6565b612af35760405162461bcd60e51b815260206004820152602c60248201527f4552433732315073693a206f776e657220717565727920666f72206e6f6e657860448201526b34b9ba32b73a103a37b5b2b760a11b6064820152608401610b33565b612afc83613594565b6000818152600860205260409020546001600160a01b031694909350915050565b60006128a5604051602001612b8b90660a0cae4dad2e8560cb1b81527f61646472657373207370656e6465722c75696e7432353620746f6b656e49642c60078201527f75696e74323536206e6f6e63652c75696e7432353620646561646c696e652900602782015260460190565b60408051808303601f19018152828252805160209182012060008881526017835283902054918401526001600160a01b0388169183019190915260608201869052608082015260a0810184905260c001604051602081830303815290604052805190602001206135a1565b6000806000856001600160a01b0316631626ba7e60e01b8686604051602401612c20929190614de7565b60408051601f198184030181529181526020820180516001600160e01b03166001600160e01b0319909416939093179092529051612c5e9190614e00565b600060405180830381855afa9150503d8060008114612c99576040519150601f19603f3d011682016040523d82523d6000602084013e612c9e565b606091505b5091509150818015612cb1575080516020145b15612cf457600081806020019051810190612ccc9190614e12565b90506374eca2c160e11b6001600160e01b0319821601612cf25760019350505050610e05565b505b50600095945050505050565b606081612d0e81601f614a42565b1015612d4d5760405162461bcd60e51b815260206004820152600e60248201526d736c6963655f6f766572666c6f7760901b6044820152606401610b33565b612d578284614a42565b84511015612d9b5760405162461bcd60e51b8152602060048201526011602482015270736c6963655f6f75744f66426f756e647360781b6044820152606401610b33565b606082158015612dba5760405191506000825260208201604052612e04565b6040519150601f8416801560200281840101858101878315602002848b0101015b81831015612df3578051835260209283019201612ddb565b5050858452601f01601f1916604052505b50949350505050565b6000806000612e1d8686866135ce565b91509150612e0481613607565b6000806000612e398585613751565b91509150611a9981613607565b60006001600160a01b03831615801590610e055750610e05838361187f565b60606000612e7283613793565b604080516020808252818301909252919250600091906020820181803683375050509182525060208101929092525090565b6000826000018281548110612ebb57612ebb6149fd565b9060005260206000200154905092915050565b60005b81811015610c0057612efb84848484818110612eef57612eef6149fd565b905060200201356117fc565b80612f0581614a29565b915050612ed1565b6108568282604051806020016040528060008152506137bb565b6108563383836137c6565b600160801b821015612f4a576110bd84848484613894565b610c00848484846138c7565b60606019805461120890614a8e565b60606000612f72836138e0565b60010190506000816001600160401b03811115612f9157612f9161467f565b6040519080825280601f01601f191660200182016040528015612fbb576020820181803683370190505b5090508181016020015b600019016f181899199a1a9b1b9c1cb0b131b232b360811b600a86061a8153600a8504945084612fc557509392505050565b600061300260095490565b9050600082116130625760405162461bcd60e51b815260206004820152602560248201527f4552433732315073693a207175616e74697479206d7573742062652067726561604482015264074657220360dc1b6064820152608401610b33565b6001600160a01b0383166130c45760405162461bcd60e51b815260206004820152602360248201527f4552433732315073693a206d696e7420746f20746865207a65726f206164647260448201526265737360e81b6064820152608401610b33565b81600960008282546130d69190614a42565b9091555050600081815260086020526040902080546001600160a01b0319166001600160a01b03851617905561310d600582613508565b60008061311a8484614a42565b90506001600160a01b038516915082826000600080516020614f85833981519152600080a4600183015b81811461316a5780836000600080516020614f85833981519152600080a4600101613144565b506125d9565b60006001600160e01b031982166380ac58cd60e01b14806131a157506001600160e01b03198216635b5e139f60e01b145b806108655750610865826139b8565b600160801b8110156131c65761085682826139f8565b6108568282613a66565b60005b81156131ea576000198201909116906001016131d3565b919050565b60606108656001600160a01b03831660145b60606000613210836002614a55565b61321b906002614a42565b6001600160401b038111156132325761323261467f565b6040519080825280601f01601f19166020018201604052801561325c576020820181803683370190505b509050600360fc1b81600081518110613277576132776149fd565b60200101906001600160f81b031916908160001a905350600f60fb1b816001815181106132a6576132a66149fd565b60200101906001600160f81b031916908160001a90535060006132ca846002614a55565b6132d5906001614a42565b90505b600181111561334d576f181899199a1a9b1b9c1cb0b131b232b360811b85600f1660108110613309576133096149fd565b1a60f81b82828151811061331f5761331f6149fd565b60200101906001600160f81b031916908160001a90535060049490941c9361334681614cbe565b90506132d8565b508315610e055760405162461bcd60e51b815260206004820181905260248201527f537472696e67733a20686578206c656e67746820696e73756666696369656e746044820152606401610b33565b60008181526017602052604081208054916133b683614a29565b91905055506108f3838383613a9b565b600081815260018301602052604081205461340d57508154600181810184556000848152602080822090930184905584548482528286019093526040902091909155610865565b506000610865565b600081815260018301602052604081205480156134fe576000613439600183614bea565b855490915060009061344d90600190614bea565b90508181146134b257600086600001828154811061346d5761346d6149fd565b9060005260206000200154905080876000018481548110613490576134906149fd565b6000918252602080832090910192909255918252600188019052604090208390555b85548690806134c3576134c3614e2f565b600190038181906000526020600020016000905590558560010160008681526020019081526020016000206000905560019350505050610865565b6000915050610865565b600881901c600090815260209290925260409091208054600160ff1b60ff9093169290921c9091179055565b600061353f60095490565b82108015610865575050600160801b111590565b600061355e60095490565b905061356a8484612ff7565b613578600085838686613abd565b610c005760405162461bcd60e51b8152600401610b3390614e45565b6000610865600583613bf4565b60006108656135ae6116af565b8360405161190160f01b8152600281019290925260228201526042902090565b6000806001600160ff1b038316816135eb60ff86901c601b614a42565b90506135f987828885613cec565b935093505050935093915050565b600081600481111561361b5761361b614e9a565b036136235750565b600181600481111561363757613637614e9a565b036136845760405162461bcd60e51b815260206004820152601860248201527f45434453413a20696e76616c6964207369676e617475726500000000000000006044820152606401610b33565b600281600481111561369857613698614e9a565b036136e55760405162461bcd60e51b815260206004820152601f60248201527f45434453413a20696e76616c6964207369676e6174757265206c656e677468006044820152606401610b33565b60038160048111156136f9576136f9614e9a565b03610bda5760405162461bcd60e51b815260206004820152602260248201527f45434453413a20696e76616c6964207369676e6174757265202773272076616c604482015261756560f01b6064820152608401610b33565b60008082516041036137875760208301516040840151606085015160001a61377b87828585613cec565b945094505050506109c1565b506000905060026109c1565b600060ff8216601f81111561086557604051632cd44ac360e21b815260040160405180910390fd5b6108f3838383613db0565b816001600160a01b0316836001600160a01b0316036138275760405162461bcd60e51b815260206004820152601960248201527f4552433732313a20617070726f766520746f2063616c6c6572000000000000006044820152606401610b33565b6001600160a01b03838116600081815260126020908152604080832094871680845294825291829020805460ff191686151590811790915591519182527f17307eab39ab6107e8899845ad3d59bd9653f200f220920489ca2b5937696c31910160405180910390a3505050565b61389f8484846123d9565b6138ab84848484613de3565b610c005760405162461bcd60e51b8152600401610b3390614eb0565b6138d28484846123d9565b613578848484600185613abd565b60008072184f03e93ff9f4daa797ed6e38ed64bf6a1f0160401b831061391f5772184f03e93ff9f4daa797ed6e38ed64bf6a1f0160401b830492506040015b6d04ee2d6d415b85acef8100000000831061394b576d04ee2d6d415b85acef8100000000830492506020015b662386f26fc10000831061396957662386f26fc10000830492506010015b6305f5e1008310613981576305f5e100830492506008015b612710831061399557612710830492506004015b606483106139a7576064830492506002015b600a83106108655760010192915050565b60006001600160e01b031982166380ac58cd60e01b14806139e957506001600160e01b03198216635b5e139f60e01b145b80610865575061086582613edc565b600081815260116020526040902080546001600160a01b0319166001600160a01b0384169081179091558190613a2d82611a2d565b6001600160a01b03167f8c5be1e5ebec7d5bd14f71427d1e84f3dd0314c0f7b2291e5b200ac8c7c3b92560405160405180910390a45050565b6000818152600a6020526040902080546001600160a01b0319166001600160a01b0384169081179091558190613a2d82610c4a565b600160801b811015613ab2576108f3838383613f01565b6108f3838383614053565b60006001600160a01b0385163b15613be757506001835b613ade8486614a42565b811015613be157604051630a85bd0160e11b81526001600160a01b0387169063150b7a0290613b179033908b9086908990600401614f02565b6020604051808303816000875af1925050508015613b52575060408051601f3d908101601f19168201909252613b4f91810190614e12565b60015b613baf573d808015613b80576040519150601f19603f3d011682016040523d82523d6000602084013e613b85565b606091505b508051600003613ba75760405162461bcd60e51b8152600401610b3390614e45565b805181602001fd5b828015613bcc57506001600160e01b03198116630a85bd0160e11b145b92505080613bd981614a29565b915050613ad4565b50613beb565b5060015b95945050505050565b600881901c60008181526020849052604081205490919060ff808516919082181c8015613c3657613c248161422b565b60ff168203600884901b179350613ce3565b60008311613ca35760405162461bcd60e51b815260206004820152603460248201527f4269744d6170733a205468652073657420626974206265666f7265207468652060448201527334b73232bc103237b2b9b713ba1032bc34b9ba1760611b6064820152608401610b33565b506000199091016000818152602086905260409020549091908015613cde57613ccb8161422b565b60ff0360ff16600884901b179350613ce3565b613c36565b50505092915050565b6000807f7fffffffffffffffffffffffffffffff5d576e7357a4501ddfe92f46681b20a0831115613d235750600090506003613da7565b6040805160008082526020820180845289905260ff881692820192909252606081018690526080810185905260019060a0016020604051602081039080840390855afa158015613d77573d6000803e3d6000fd5b5050604051601f1901519150506001600160a01b038116613da057600060019250925050613da7565b9150600090505b94509492505050565b613dba8383614295565b613dc76000848484613de3565b6108f35760405162461bcd60e51b8152600401610b3390614eb0565b60006001600160a01b0384163b15613ed157604051630a85bd0160e11b81526001600160a01b0385169063150b7a0290613e27903390899088908890600401614f02565b6020604051808303816000875af1925050508015613e62575060408051601f3d908101601f19168201909252613e5f91810190614e12565b60015b613eb7573d808015613e90576040519150601f19603f3d011682016040523d82523d6000602084013e613e95565b606091505b508051600003613ba75760405162461bcd60e51b8152600401610b3390614eb0565b6001600160e01b031916630a85bd0160e11b1490506128a5565b506001949350505050565b60006001600160e01b0319821663152a902d60e11b148061086557506108658261429f565b826001600160a01b0316613f1482611a2d565b6001600160a01b031614613f3a5760405162461bcd60e51b8152600401610b3390614f3f565b6001600160a01b038216613f9c5760405162461bcd60e51b8152602060048201526024808201527f4552433732313a207472616e7366657220746f20746865207a65726f206164646044820152637265737360e01b6064820152608401610b33565b826001600160a01b0316613faf82611a2d565b6001600160a01b031614613fd55760405162461bcd60e51b8152600401610b3390614f3f565b600081815260116020908152604080832080546001600160a01b03199081169091556001600160a01b0387811680865260108552838620805460001901905590871680865283862080546001019055868652600f9094528285208054909216841790915590518493600080516020614f8583398151915291a4505050565b60008061405f83612a86565b91509150846001600160a01b0316826001600160a01b0316146140d95760405162461bcd60e51b815260206004820152602c60248201527f4552433732315073693a207472616e73666572206f6620746f6b656e2074686160448201526b3a1034b9903737ba1037bbb760a11b6064820152608401610b33565b6001600160a01b03841661413f5760405162461bcd60e51b815260206004820152602760248201527f4552433732315073693a207472616e7366657220746f20746865207a65726f206044820152666164647265737360c81b6064820152608401610b33565b61414a600084612176565b6000614157846001614a42565b600881901c600090815260056020526040902054909150600160ff1b60ff83161c16158015614187575060095481105b156141be57600081815260086020526040902080546001600160a01b0319166001600160a01b0388161790556141be600582613508565b600084815260086020526040902080546001600160a01b0319166001600160a01b0387161790558184146141f7576141f7600585613508565b83856001600160a01b0316876001600160a01b0316600080516020614f8583398151915260405160405180910390a461109d565b60006040518061012001604052806101008152602001614fa5610100913960f87e818283848586878898a8b8c8d8e8f929395969799a9b9d9e9faaeb6bedeeff614274856142aa565b02901c81518110614287576142876149fd565b016020015160f81c92915050565b61085682826126f3565b6000610865826142c2565b60008082116142b857600080fd5b5060008190031690565b60006001600160e01b03198216635a05180f60e01b148061086557506108658260006001600160e01b03198216637965db0b60e01b148061086557506301ffc9a760e01b6001600160e01b0319831614610865565b60006020828403121561432957600080fd5b81356001600160401b0381111561433f57600080fd5b820160608185031215610e0557600080fd5b6001600160e01b031981168114610bda57600080fd5b60006020828403121561437957600080fd5b8135610e0581614351565b60005b8381101561439f578181015183820152602001614387565b50506000910152565b600081518084526143c0816020860160208601614384565b601f01601f19169290920160200192915050565b602081526000610e0560208301846143a8565b6000602082840312156143f957600080fd5b5035919050565b80356001600160a01b03811681146131ea57600080fd5b6000806040838503121561442a57600080fd5b61443383614400565b946020939093013593505050565b60008083601f84011261445357600080fd5b5081356001600160401b0381111561446a57600080fd5b6020830191508360208260051b85010111156109c157600080fd5b6000806020838503121561449857600080fd5b82356001600160401b038111156144ae57600080fd5b6144ba85828601614441565b90969095509350505050565b6000806000606084860312156144db57600080fd5b6144e484614400565b92506144f260208501614400565b9150604084013590509250925092565b6000806040838503121561451557600080fd5b50508035926020909101359150565b6000806020838503121561453757600080fd5b82356001600160401b038082111561454e57600080fd5b818501915085601f83011261456257600080fd5b81358181111561457157600080fd5b8660208260061b850101111561458657600080fd5b60209290920196919550909350505050565b600080604083850312156145ab57600080fd5b823591506145bb60208401614400565b90509250929050565b6020808252825182820181905260009190848201906040850190845b818110156146055783516001600160a01b0316835292840192918401916001016145e0565b50909695505050505050565b60006020828403121561462357600080fd5b610e0582614400565b80356001600160601b03811681146131ea57600080fd5b60008060006060848603121561465857600080fd5b8335925061466860208501614400565b91506146766040850161462c565b90509250925092565b634e487b7160e01b600052604160045260246000fd5b60006001600160401b03808411156146af576146af61467f565b604051601f8501601f19908116603f011681019082821181831017156146d7576146d761467f565b816040528093508581528686860111156146f057600080fd5b858560208301376000602087830101525050509392505050565b60006020828403121561471c57600080fd5b81356001600160401b0381111561473257600080fd5b8201601f8101841361474357600080fd5b6128a584823560208401614695565b600082601f83011261476357600080fd5b610e0583833560208501614695565b6000806000806080858703121561478857600080fd5b61479185614400565b9350602085013592506040850135915060608501356001600160401b038111156147ba57600080fd5b6147c687828801614752565b91505092959194509250565b60ff60f81b881681526000602060e0818401526147f260e084018a6143a8565b8381036040850152614804818a6143a8565b606085018990526001600160a01b038816608086015260a0850187905284810360c0860152855180825283870192509083019060005b818110156148565783518352928401929184019160010161483a565b50909c9b505050505050505050505050565b6000806040838503121561487b57600080fd5b61488483614400565b91506145bb6020840161462c565b8015158114610bda57600080fd5b600080604083850312156148b357600080fd5b6148bc83614400565b915060208301356148cc81614892565b809150509250929050565b600080600080606085870312156148ed57600080fd5b84356001600160401b0381111561490357600080fd5b61490f87828801614441565b9095509350614922905060208601614400565b91506149306040860161462c565b905092959194509250565b6000806000806080858703121561495157600080fd5b61495a85614400565b935061496860208601614400565b92506040850135915060608501356001600160401b038111156147ba57600080fd5b6000806040838503121561499d57600080fd5b6149a683614400565b91506145bb60208401614400565b6000808335601e198436030181126149cb57600080fd5b8301803591506001600160401b038211156149e557600080fd5b6020019150600581901b36038213156109c157600080fd5b634e487b7160e01b600052603260045260246000fd5b634e487b7160e01b600052601160045260246000fd5b600060018201614a3b57614a3b614a13565b5060010190565b8082018082111561086557610865614a13565b808202811582820484141761086557610865614a13565b600082614a8957634e487b7160e01b600052601260045260246000fd5b500490565b600181811c90821680614aa257607f821691505b602082108103614ac257634e487b7160e01b600052602260045260246000fd5b50919050565b601f8211156108f357600081815260208120601f850160051c81016020861015614aef5750805b601f850160051c820191505b8181101561109d57828155600101614afb565b81516001600160401b03811115614b2757614b2761467f565b614b3b81614b358454614a8e565b84614ac8565b602080601f831160018114614b705760008415614b585750858301515b600019600386901b1c1916600185901b17855561109d565b600085815260208120601f198616915b82811015614b9f57888601518255948401946001909101908401614b80565b5085821015614bbd5787850151600019600388901b60f8161c191681555b5050505050600190811b01905550565b600060208284031215614bdf57600080fd5b8151610e0581614892565b8181038181111561086557610865614a13565b60008235603e19833603018112614c1357600080fd5b9190910192915050565b6020808252602d908201527f4552433732313a2063616c6c6572206973206e6f7420746f6b656e206f776e6560408201526c1c881bdc88185c1c1c9bdd9959609a1b606082015260800190565b60208082526034908201527f4552433732315073693a207472616e736665722063616c6c6572206973206e6f6040820152731d081bdddb995c881b9bdc88185c1c1c9bdd995960621b606082015260800190565b600081614ccd57614ccd614a13565b506000190190565b6020808252602a908201527f455243323938313a20726f79616c7479206665652077696c6c206578636565646040820152692073616c65507269636560b01b606082015260800190565b80516020808301519190811015614ac25760001960209190910360031b1b16919050565b60008351614d55818460208801614384565b835190830190614d69818360208801614384565b01949350505050565b7f416363657373436f6e74726f6c3a206163636f756e7420000000000000000000815260008351614daa816017850160208801614384565b7001034b99036b4b9b9b4b733903937b6329607d1b6017918401918201528351614ddb816028840160208801614384565b01602801949350505050565b8281526040602082015260006128a560408301846143a8565b60008251614c13818460208701614384565b600060208284031215614e2457600080fd5b8151610e0581614351565b634e487b7160e01b600052603160045260246000fd5b60208082526035908201527f4552433732315073693a207472616e7366657220746f206e6f6e20455243373260408201527418a932b1b2b4bb32b91034b6b83632b6b2b73a32b960591b606082015260800190565b634e487b7160e01b600052602160045260246000fd5b60208082526032908201527f4552433732313a207472616e7366657220746f206e6f6e20455243373231526560408201527131b2b4bb32b91034b6b83632b6b2b73a32b960711b606082015260800190565b6001600160a01b0385811682528416602082015260408101839052608060608201819052600090614f35908301846143a8565b9695505050505050565b60208082526025908201527f4552433732313a207472616e736665722066726f6d20696e636f72726563742060408201526437bbb732b960d91b60608201526080019056feddf252ad1be2c89b69c2b068fc378daa952ba7f163c4a11628f55a4df523b3ef0001020903110a19042112290b311a3905412245134d2a550c5d32651b6d3a7506264262237d468514804e8d2b95569d0d495ea533a966b11c886eb93bc176c9071727374353637324837e9b47af86c7155181ad4fd18ed32c9096db57d59ee30e2e4a6a5f92a6be3498aae067ddb2eb1d5989b56fd7baf33ca0c2ee77e5caf7ff0810182028303840444c545c646c7425617c847f8c949c48a4a8b087b8c0c816365272829aaec650acd0d28fdad4e22d6991bd97dfdcea58b4d6f29fede4f6fe0f1f2f3f4b5b6b607b8b93a3a7b7bf357199c5abcfd9e168bcdee9b3f1ecf5fd1e3e5a7a8aa2b670c4ced8bbe8f0f4fc3d79a1c3cde7effb78cce6facbf9f8a26469706673582212207038f8fc29e973eaeada976b0c3af52b0b83561b5eddf26845b6094fb54d85ae64736f6c63430008130033",
  "linkReferences": {},
  "deployedLinkReferences": {}
}